HCP008752021100103000169000000040959000000169000000040959000000000000000000000000000000                                                                                                                     
D20211001          50                                      domiciliacionFINPAIS                    000000000307100DOGL621004RR1072010000000002709758751A00000000     030000000                              
D20211001          104                                     domiciliacionFINPAIS                    000000000204700DOGL621004RR1072010000000002709758751A00000000     030000000                              
D20211001          88                                      domiciliacionFINPAIS                    000000000102400TOBF5601203V1072010000000006371075691A00000000     040000000                              
D20211001          218                                     domiciliacionFINPAIS                    000000000102400TOBF5601203V1072010000000006371075691A00000000     040000000                              
D20211001          292                                     domiciliacionFINPAIS                    000000000102400TOBF5601203V1072010000000006371075691A00000000     040000000                              
D20211001          216                                     domiciliacionFINPAIS                    000000000174000AERG580205QY9072010000000006682207161A00000000     030000000                              
D20211001          1184                                    domiciliacionFINPAIS                    000000000307100GOMR550313BF8072010000000011161763111A00000000     040000000                              
D20211001          364                                     domiciliacionFINPAIS                    000000000204700HEPE600415AQA072010000000006206230161A00000000     040000000                              
D20211001          455                                     domiciliacionFINPAIS                    000000000409400HEPE600415AQA072010000000006206230161A00000000     040000000                              
D20211001          614                                     domiciliacionFINPAIS                    000000000307100HEPE600415AQA072010000000006206230161A00000000     040000000                              
D20211001          1234                                    domiciliacionFINPAIS                    000000000227200SAPS6003135Q1072010000000005336769891A00000000     260000000                              
D20211001          144                                     domiciliacionFINPAIS                    000000000163800DOFG5312184D0072010000000005401310571A00000000     040000000                              
D20211001          112                                     domiciliacionFINPAIS                    000000000409400LOFA421209MNA072010000000005726971431A00000000     100000000                              
D20211001          153                                     domiciliacionFINPAIS                    000000000204700LOFA421209MNA072010000000005726971431A00000000     260000000                              
D20211001          180                                     domiciliacionFINPAIS                    000000000307100LOST6001088B1072010000000006317094021A00000000     040000000                              
D20211001          1410                                    domiciliacionFINPAIS                    000000000227200GART531221IN6072010000000006342118211A00000000     040000000                              
D20211001          164                                     domiciliacionFINPAIS                    000000000204700MAIB6205041A5072010000000006449896791A00000000     040000000                              
D20211001          636                                     domiciliacionFINPAIS                    000000000204700MAIB6205041A5072010000000006449896791A00000000     040000000                              
D20211001          386                                     domiciliacionFINPAIS                    000000000307100VILM600914TE1072010000000006449901161A00000000     040000000                              
D20211001          291                                     domiciliacionFINPAIS                    000000000113600MACP6012216R9072010000000006650178031A00000000     260000000                              
D20211001          335                                     domiciliacionFINPAIS                    000000000307100SAGA5601122D7072010000000006719958451A00000000     040000000                              
D20211001          1004                                    domiciliacionFINPAIS                    000000000204700SAGA5601122D7072010000000006719958451A00000000     040000000                              
D20211001          62                                      domiciliacionFINPAIS                    000000000409400GASA650122EP9072010000000008201124041A00000000     040000000                              
D20211001          642                                     domiciliacionFINPAIS                    000000000511800GASA650122EP9072010000000008201124041A00000000     040000000                              
D20211001          787                                     domiciliacionFINPAIS                    000000000153600AUET650613LL2072010000000008282448511A00000000     200000000                              
D20211001          818                                     domiciliacionFINPAIS                    000000000307100LEGG621212281072010000000008282453081A00000000     040000000                              
D20211001          105                                     domiciliacionFINPAIS                    000000000307100OETT59101444A072010000000008446547591A00000000     040000000                              
D20211001          187                                     domiciliacionFINPAIS                    000000000204700OETT59101444A072010000000008446547591A00000000     200000000                              
D20211001          168                                     domiciliacionFINPAIS                    000000000204700LAFE571016QW8072010000000008531511751A00000000     040000000                              
D20211001          819                                     domiciliacionFINPAIS                    000000000307100CODS5905197Z7072010000000008869989031A00000000     040000000                              
D20211001          620                                     domiciliacionFINPAIS                    000000000307100RUNC620222QE2072010000000008869993571A00000000     030000000                              
D20211001          132                                     domiciliacionFINPAIS                    000000000307100MEDE640421PH6072010000000008922431811A00000000     040000000                              
D20211001          1070                                    domiciliacionFINPAIS                    000000000307100VECO6303056A2072010000000011124396251A00000000     260000000                              
D20211001          1369                                    domiciliacionFINPAIS                    000000000102400VECO6303056A2072010000000011124396251A00000000     260000000                              
D20211001          181                                     domiciliacionFINPAIS                    000000000307100RISA6111117K0072010000000008970007271A00000000     040000000                              
D20211001          135                                     domiciliacionFINPAIS                    000000000102400SANR580515293072010000000002307934841A00000000     040000000                              
D20211001          146                                     domiciliacionFINPAIS                    000000000307100SANR580515293072010000000002307934841A00000000     040000000                              
D20211001          175                                     domiciliacionFINPAIS                    000000000204700SANR580515293072010000000002307934841A00000000     040000000                              
D20211001          358                                     domiciliacionFINPAIS                    000000000204700SANR580515293072010000000002307934841A00000000     040000000                              
D20211001          97                                      domiciliacionFINPAIS                    000000000307100VIGR620310MX5072010000000002639353491A00000000     200000000                              
D20211001          171                                     domiciliacionFINPAIS                    000000000204700DIAA6103161Y4072010000000002838188061A00000000     260000000                              
D20211001          1339                                    domiciliacionFINPAIS                    000000000102400DIEE6012128A5072010000000002838188241A00000000     040000000                              
D20211001          166                                     domiciliacionFINPAIS                    000000000225200GACS630129KR5072010000000004389219621A00000000     040000000                              
D20211001          332                                     domiciliacionFINPAIS                    000000000511800MALA520926KU4072010000000004470942971A00000000     040000000                              
D20211001          1528                                    domiciliacionFINPAIS                    000000000102400RUVF520105LQA072010000000004470943811A00000000     200000000                              
D20211001          130                                     domiciliacionFINPAIS                    000000000204700PIEM580821NGA072010000000004575296951A00000000     040000000                              
D20211001          148                                     domiciliacionFINPAIS                    000000000215000PIEM580821NGA072010000000004575296951A00000000     040000000                              
D20211001          693                                     domiciliacionFINPAIS                    000000000139100CARL600321UY2072010000000004631539891A00000000     040000000                              
D20211001          538                                     domiciliacionFINPAIS                    000000000307100LOGM660123H56072010000000004867445641A00000000     040000000                              
D20211001          1293                                    domiciliacionFINPAIS                    000000000153600LOGM660123H56072010000000004867445641A00000000     040000000                              
D20211001          248                                     domiciliacionFINPAIS                    000000000102400PACG581209QG7072010000000005920720651A00000000     260000000                              
D20211001          798                                     domiciliacionFINPAIS                    000000000139100PACG581209QG7072010000000005920720651A00000000     260000000                              
D20211001          393                                     domiciliacionFINPAIS                    000000000204700AOGS6003107B7072010000000010065298031A00000000     200000000                              
D20211001          739                                     domiciliacionFINPAIS                    000000000307100AOGS6003107B7072010000000010065298031A00000000     200000000                              
D20211001          1349                                    domiciliacionFINPAIS                    000000000102400AOGS6003107B7072010000000010065298031A00000000     040000000                              
D20211001          157                                     domiciliacionFINPAIS                    000000000511800EACM480219CE9072010000000010161280091A00000000     040000000                              
D20211001          1181                                    domiciliacionFINPAIS                    000000000102400GULP690130SM4072010000000010240912651A00000000     260000000                              
D20211001          671                                     domiciliacionFINPAIS                    000000000307100EORA610124PP8072010000000010440407841A00000000     040000000                              
D20211001          813                                     domiciliacionFINPAIS                    000000000307100EORA610124PP8072010000000010440407841A00000000     040000000                              
D20211001          1142                                    domiciliacionFINPAIS                    000000000307100EORA610124PP8072010000000010440407841A00000000     040000000                              
D20211001          1499                                    domiciliacionFINPAIS                    000000000102400EORA610124PP8072010000000010440407841A00000000     040000000                              
D20211001          213                                     domiciliacionFINPAIS                    000000000307100MASL631228JJ8072010000000010818821031A00000000     040000000                              
D20211001          803                                     domiciliacionFINPAIS                    000000000153600MASL631228JJ8072010000000010818821031A00000000     040000000                              
D20211001          223                                     domiciliacionFINPAIS                    000000000340800GUMM600726DT5072010000000010858687581A00000000     040000000                              
D20211001          389                                     domiciliacionFINPAIS                    000000000102400RALP650317JE5072010000000011229540881A00000000     040000000                              
D20211001          1267                                    domiciliacionFINPAIS                    000000000204700RALP650317JE5072010000000011229540881A00000000     040000000                              
D20211001          151                                     domiciliacionFINPAIS                    000000000204700AEGO560709R78072010000000010285860221A00000000     030000000                              
D20211001          1493                                    domiciliacionFINPAIS                    000000000204700LOLG711211DS6072010000000011312814051A00000000     040000000                              
D20211001          106                                     domiciliacionFINPAIS                    000000000102400SESA640727FP5072010000000003116116381A00000000     030000000                              
D20211001          178                                     domiciliacionFINPAIS                    000000000255900SESA640727FP5072010000000003116116381A00000000     030000000                              
D20211001          961                                     domiciliacionFINPAIS                    000000000139100AAPE420618EP7072010000000011400244711A00000000     030000000                              
D20211001          47                                      domiciliacionFINPAIS                    000000000307100AUPJ600209823072010000000010336179571A00000000     030000000                              
D20211001          93                                      domiciliacionFINPAIS                    000000000204700AUPJ600209823072010000000010336179571A00000000     030000000                              
D20211001          736                                     domiciliacionFINPAIS                    000000000818800CARC640413UY7072010000000010152440781A00000000     260000000                              
D20211001          1261                                    domiciliacionFINPAIS                    000000000614100CARC640413UY7072010000000010152440781A00000000     260000000                              
D20211001          535                                     domiciliacionFINPAIS                    000000000227200COVR620303F26072010000000002929754021A00000000     200000000                              
D20211001          107                                     domiciliacionFINPAIS                    000000000174000DOHJ590511DZ9072010000000010240911801A00000000     100000000                              
D20211001          57                                      domiciliacionFINPAIS                    000000000102400EALI670706762072010000000008776513811A00000000     030000000                              
D20211001          194                                     domiciliacionFINPAIS                    000000000042900JOOM410102NT3072010000000005336748641A00000000     040000000                              
D20211001          732                                     domiciliacionFINPAIS                    000000000204700LOFA421209MNA072010000000005726971431A00000000     260000000                              
D20211001          871                                     domiciliacionFINPAIS                    000000000307100MUAA540607AQ7072010000000006560101011A00000000     040000000                              
D20211001          1265                                    domiciliacionFINPAIS                    000000000307100MUAA540607AQ7072010000000006560101011A00000000     040000000                              
D20211001          1489                                    domiciliacionFINPAIS                    000000000307100MUAA540607AQ7072010000000006560101011A00000000     040000000                              
D20211001          708                                     domiciliacionFINPAIS                    000000000113600TICA590806D52072010000000010285865811A00000000     040000000                              
D20211001          1179                                    domiciliacionFINPAIS                    000000000079600TICA590806D52072010000000010285865811A00000000     040000000                              
D20211001          202                                     domiciliacionFINPAIS                    000000000307100VERA630627EW2072010000000008830293011A00000000     260000000                              
D20211001          245                                     domiciliacionFINPAIS                    000000000153600VERA630627EW2072010000000008830293011A00000000     100000000                              
D20211001          514                                     domiciliacionFINPAIS                    000000000255900VERA630627EW2072010000000008830293011A00000000     260000000                              
D20211001          1312                                    domiciliacionFINPAIS                    000000000102400VERA630627EW2072010000000008830293011A00000000     260000000                              
D20211001          664                                     domiciliacionFINPAIS                    000000000511800MAVP600105MR1072010000000005853574381A00000000     040000000                              
D20211001          633                                     domiciliacionFINPAIS                    000000000153000YAFM590123E75072010000000003271627481A00000000     260000000                              
D20211001          44                                      domiciliacionFINPAIS                    000000000307100CUGG600625CF6072010000000011286868221A00000000     040000000                              
D20211001          372                                     domiciliacionFINPAIS                    000000000307100MECF431224MN4072010000000005133998151A00000000     200000000                              
D20211001          94                                      domiciliacionFINPAIS                    000000000204700CUGG600625CF6072010000000011286868221A00000000     200000000                              
D20211001          87                                      domiciliacionFINPAIS                    000000000307100MIMR580312ED0072010000000011463544421A00000000     040000000                              
D20211001          843                                     domiciliacionFINPAIS                    000000000307100MIMR580312ED0072010000000011463544421A00000000     200000000                              
D20211001          1234                                    domiciliacionFINPAIS                    000000000227200SAPS6003135Q1072010000000005336769891A00000000     260000000                              
D20211001          144                                     domiciliacionFINPAIS                    000000000163800DOFG5312184D0072010000000005401310571A00000000     040000000                              
D20211001          112                                     domiciliacionFINPAIS                    000000000409400LOFA421209MNA072010000000005726971431A00000000     100000000                              
D20211001          153                                     domiciliacionFINPAIS                    000000000204700LOFA421209MNA072010000000005726971431A00000000     260000000                              
D20211001          180                                     domiciliacionFINPAIS                    000000000307100LOST6001088B1072010000000006317094021A00000000     040000000                              
D20211001          1410                                    domiciliacionFINPAIS                    000000000227200GART531221IN6072010000000006342118211A00000000     040000000                              
D20211001          164                                     domiciliacionFINPAIS                    000000000204700MAIB6205041A5072010000000006449896791A00000000     040000000                              
D20211001          636                                     domiciliacionFINPAIS                    000000000204700MAIB6205041A5072010000000006449896791A00000000     040000000                              
D20211001          386                                     domiciliacionFINPAIS                    000000000307100VILM600914TE1072010000000006449901161A00000000     040000000                              
D20211001          291                                     domiciliacionFINPAIS                    000000000113600MACP6012216R9072010000000006650178031A00000000     260000000                              
D20211001          335                                     domiciliacionFINPAIS                    000000000307100SAGA5601122D7072010000000006719958451A00000000     040000000                              
D20211001          1004                                    domiciliacionFINPAIS                    000000000204700SAGA5601122D7072010000000006719958451A00000000     040000000                              
D20211001          62                                      domiciliacionFINPAIS                    000000000409400GASA650122EP9072010000000008201124041A00000000     040000000                              
D20211001          642                                     domiciliacionFINPAIS                    000000000511800GASA650122EP9072010000000008201124041A00000000     040000000                              
D20211001          787                                     domiciliacionFINPAIS                    000000000153600AUET650613LL2072010000000008282448511A00000000     200000000                              
D20211001          818                                     domiciliacionFINPAIS                    000000000307100LEGG621212281072010000000008282453081A00000000     040000000                              
D20211001          105                                     domiciliacionFINPAIS                    000000000307100OETT59101444A072010000000008446547591A00000000     040000000                              
D20211001          187                                     domiciliacionFINPAIS                    000000000204700OETT59101444A072010000000008446547591A00000000     200000000                              
D20211001          168                                     domiciliacionFINPAIS                    000000000204700LAFE571016QW8072010000000008531511751A00000000     040000000                              
D20211001          819                                     domiciliacionFINPAIS                    000000000307100CODS5905197Z7072010000000008869989031A00000000     040000000                              
D20211001          620                                     domiciliacionFINPAIS                    000000000307100RUNC620222QE2072010000000008869993571A00000000     030000000                              
D20211001          132                                     domiciliacionFINPAIS                    000000000307100MEDE640421PH6072010000000008922431811A00000000     040000000                              
D20211001          1070                                    domiciliacionFINPAIS                    000000000307100VECO6303056A2072010000000011124396251A00000000     260000000                              
D20211001          1369                                    domiciliacionFINPAIS                    000000000102400VECO6303056A2072010000000011124396251A00000000     260000000                              
D20211001          181                                     domiciliacionFINPAIS                    000000000307100RISA6111117K0072010000000008970007271A00000000     040000000                              
D20211001          135                                     domiciliacionFINPAIS                    000000000102400SANR580515293072010000000002307934841A00000000     040000000                              
D20211001          146                                     domiciliacionFINPAIS                    000000000307100SANR580515293072010000000002307934841A00000000     040000000                              
D20211001          175                                     domiciliacionFINPAIS                    000000000204700SANR580515293072010000000002307934841A00000000     040000000                              
D20211001          358                                     domiciliacionFINPAIS                    000000000204700SANR580515293072010000000002307934841A00000000     040000000                              
D20211001          901                                     domiciliacionFINPAIS                    000000000511800VAMY6202196PA072010000000002403181941A00000000     040000000                              
D20211001          903                                     domiciliacionFINPAIS                    000000000511800RASR610903RB3072010000000002598741061A00000000     040000000                              
D20211001          97                                      domiciliacionFINPAIS                    000000000307100VIGR620310MX5072010000000002639353491A00000000     200000000                              
D20211001          171                                     domiciliacionFINPAIS                    000000000204700DIAA6103161Y4072010000000002838188061A00000000     260000000                              
D20211001          1339                                    domiciliacionFINPAIS                    000000000102400DIEE6012128A5072010000000002838188241A00000000     040000000                              
D20211001          1294                                    domiciliacionFINPAIS                    000000000204700COZM590120F20072010000000005151139761A00000000     040000000                              
D20211001          166                                     domiciliacionFINPAIS                    000000000225200GACS630129KR5072010000000004389219621A00000000     040000000                              
D20211001          332                                     domiciliacionFINPAIS                    000000000511800MALA520926KU4072010000000004470942971A00000000     040000000                              
D20211001          1528                                    domiciliacionFINPAIS                    000000000102400RUVF520105LQA072010000000004470943811A00000000     200000000                              
D20211001          130                                     domiciliacionFINPAIS                    000000000204700PIEM580821NGA072010000000004575296951A00000000     040000000                              
D20211001          148                                     domiciliacionFINPAIS                    000000000215000PIEM580821NGA072010000000004575296951A00000000     040000000                              
D20211001          1531                                    domiciliacionFINPAIS                    000000000204700COZM590120F20072010000000005151139761A00000000     200000000                              
D20211001          693                                     domiciliacionFINPAIS                    000000000139100CARL600321UY2072010000000004631539891A00000000     040000000                              
D20211001          538                                     domiciliacionFINPAIS                    000000000307100LOGM660123H56072010000000004867445641A00000000     040000000                              
D20211001          1293                                    domiciliacionFINPAIS                    000000000153600LOGM660123H56072010000000004867445641A00000000     040000000                              
D20211001          248                                     domiciliacionFINPAIS                    000000000102400PACG581209QG7072010000000005920720651A00000000     260000000                              
D20211001          798                                     domiciliacionFINPAIS                    000000000139100PACG581209QG7072010000000005920720651A00000000     260000000                              
D20211001          393                                     domiciliacionFINPAIS                    000000000204700AOGS6003107B7072010000000010065298031A00000000     200000000                              
D20211001          739                                     domiciliacionFINPAIS                    000000000307100AOGS6003107B7072010000000010065298031A00000000     200000000                              
D20211001          1349                                    domiciliacionFINPAIS                    000000000102400AOGS6003107B7072010000000010065298031A00000000     040000000                              
D20211001          157                                     domiciliacionFINPAIS                    000000000511800EACM480219CE9072010000000010161280091A00000000     040000000                              
D20211001          1181                                    domiciliacionFINPAIS                    000000000102400GULP690130SM4072010000000010240912651A00000000     260000000                              
D20211001          671                                     domiciliacionFINPAIS                    000000000307100EORA610124PP8072010000000010440407841A00000000     040000000                              
D20211001          813                                     domiciliacionFINPAIS                    000000000307100EORA610124PP8072010000000010440407841A00000000     040000000                              
D20211001          1142                                    domiciliacionFINPAIS                    000000000307100EORA610124PP8072010000000010440407841A00000000     040000000                              
D20211001          1499                                    domiciliacionFINPAIS                    000000000102400EORA610124PP8072010000000010440407841A00000000     040000000                              
D20211001          213                                     domiciliacionFINPAIS                    000000000307100MASL631228JJ8072010000000010818821031A00000000     040000000                              
D20211001          803                                     domiciliacionFINPAIS                    000000000153600MASL631228JJ8072010000000010818821031A00000000     040000000                              
D20211001          223                                     domiciliacionFINPAIS                    000000000340800GUMM600726DT5072010000000010858687581A00000000     040000000                              
D20211001          389                                     domiciliacionFINPAIS                    000000000102400RALP650317JE5072010000000011229540881A00000000     040000000                              
D20211001          1267                                    domiciliacionFINPAIS                    000000000204700RALP650317JE5072010000000011229540881A00000000     040000000                              
D20211001          151                                     domiciliacionFINPAIS                    000000000204700AEGO560709R78072010000000011286867741A00000000     040000000                              
D20211001          116                                     domiciliacionFINPAIS                    000000000204700DOTR570611MC5072010000000008580060101A00000000     040000000                              
D20211001          1493                                    domiciliacionFINPAIS                    000000000204700LOLG711211DS6072010000000011312814051A00000000     040000000                              
D20211001          106                                     domiciliacionFINPAIS                    000000000102400SESA640727FP5072010000000011343455951A00000000     040000000                              
D20211001          178                                     domiciliacionFINPAIS                    000000000255900SESA640727FP5072010000000011343455951A00000000     040000000                              
D20211001          961                                     domiciliacionFINPAIS                    000000000139100AAPE420618EP7072010000000011400244711A00000000     030000000                              
D20211001          131                                     domiciliacionFINPAIS                    000000000071700DOTR570611MC5072010000000008580060101A00000000     200000000                              
D20211001          100                                     domiciliacionFINPAIS                    000000000511800GUVA570508V74072010000000002709759411A00000000     040000000                              
D20211001          75                                      domiciliacionFINPAIS                    000000000307100VARM6003221R8072010000000002838195401A00000000     200000000                              
D20211001          206                                     domiciliacionFINPAIS                    000000000204700VARM6003221R8072010000000002838195401A00000000     200000000                              
D20211001          66                                      domiciliacionFINPAIS                    000000000133100VANE5702158D5072010000000011286870071A00000000     040000000                              
D20211001          1287                                    domiciliacionFINPAIS                    000000000204700VEPA5708239B9072010000000008243248581A00000000     040000000                              
D20211001          520                                     domiciliacionFINPAIS                    000000000102400PIEM580821NGA072010000000004575296951A00000000     200000000                              
