H0095020210810000170000                                                                                                                                                             
D37353                                   000000005000000072CARREON URBINA JOSE                     0100000000061194959001                    CAUA810116AZ1     0100A                
D36928                                   000000005000000072MAR REYES NORA HILDA                    0100000000031920018601                    MARN651115C26     0122A                
D36944                                   000000005000000072CONSTANTINO HERNANDE                    0100000000111469912401                    COHA510601U73     0122A                
D36942                                   000000005000000072LUNA DELGADO JOSE GE                    0100000000080134555501                    LUDG510304DG5     0122A                
D36940                                   000000005000000072ALTAMIRANO FLORES RU                    0100000000101250556301                    AAFR571216V22     0122A                
D36938                                   000000005000000072CASTANO BELTRAN VANE                    0100000000027983464901                    CABV9302049K7     0122A                
D36936                                   000000005000000072SEPULVEDA GARCIA CES                    0100000000066794089301                    SEGC631021DT6     0122A                
D36934                                   000000005000000072VIGIL PINA PERLA ARA                    0100000000089471198301                    VIPP9008302W3     0122A                
D36933                                   000000005000000072TOVAR GOMEZ CRUZ                        0100000000065459317801                    TOGC730810HM0     0122A                
D36932                                   000000005000000072GARCIA AVILEZ OMAR                      0100000000065458266801                    GAAO901120U49     0122A                
D36926                                   000000005000000072SANCHEZ PEREZ LETICI                    0100000000027963532301                    SAPL691030JS9     0122A                
D36925                                   000000005000000072CARRILLO VELA MA TRI                    0100000000042134507401                    CAVM520608QZ3     0130A                
D36922                                   000000005000000072LINARES VALERO SOFIA                    0100000000085424508001                    LIVS6803257W2     0122A                
D37190                                   000000005000000072GALAVIZ BUSTOS MA CO                    0100000000044494054401                    GABC540615T19     0100A                
D37185                                   000000005000000072MORAN AREVALO FRANCI                    0100000000080800946301                    MOAF550623PU4     0100A                
D37181                                   000000005000000072DE JESUS CRUZ GLORIA                    0100000000022478331801                    JECG580405U71     0100A                
D37178                                   000000005000000072AGUIRRE BONILLA JUAN                    0100000000087285449501                    AUBJ450330QU2     0100A                
D37177                                   000000005000000072SAUCEDA REYES ROSAUR                    0100000000018719560501                    SARR700625DF4     0100A                
D37175                                   000000005000000072ESTUPINAN PERCEBAULT                    0100000000068903469101                    EUPL700213GUZ     0100A                
D37173                                   000000005000000072VILLALBA RAMIREZ PAO                    0100000000051951931601                    VIRP831106RV4     0100A                
D37168                                   000000005000000072VAZQUEZ LOPEZ CARMEN                    0100000000027963754101                    VALC620416A48     0100A                
D37161                                   000000005000000072PONCE DE LEON ESCOBA                    0100000000081413254001                    POEY630827AJ1     0100A                
D37158                                   000000005000000072ESCAMILLA VAZQUEZ NO                    0100000000096486626001                    EAVN630215RB6     0100A                
D37153                                   000000005000000072GARCIA HUERTA CARLOS                    0100000000052655051301                    GAHC821120J6A     0100A                
D37150                                   000000005000000072RAMOS SOTO MA YANSI                     0100000000086065535401                    RASY811108RY9     0100A                
D37146                                   000000005000000072REYNA CASTRO JESUS A                    0100000000065169054401                    RECJ870814SW6     0100A                
D37143                                   000000005000000072CADENA MARTINEZ JOSE                    0100000000102570734901                    CAMC640505UK6     0100A                
D37142                                   000000005000000072GARCIA ALVAREZ FELIP                    0100000000027032201301                    GAAF641119BGA     0100A                
D37141                                   000000005000000072BAZALDUA PARRA EDUAR                    0100000000041851703101                    BAPE890917AK0     0100A                
D37139                                   000000005000000072GARZA CAMARILLO MARI                    0100000000026501129201                    GACG511210Q54     0100A                
D37134                                   000000005000000072CORONADO MATA FRANCI                    0100000000050309693701                    COMF741001I63     0100A                
D37133                                   000000005000000072GARCIA CHAVEZ MA GUA                    0100000000085783999401                    GACM741205JC7     0130A                
D37132                                   000000005000000072LOPEZ CASTANEDA IRMA                    0100000000085779048801                    LOCI631231UJ1     0100A                
D37131                                   000000005000000072RODRIGUEZ CHAVEZ MAR                    0100000000068789743601                    ROCM860902SW2     0100A                
D37129                                   000000005000000072MARTINEZ RAMOS JOSEF                    0100000000058651374501                    MARJ75052389A     0100A                
D37128                                   000000005000000072PEREZ MORA ELVA PATR                    0100000000050795950801                    PEME6607057N3     0100A                
D37127                                   000000005000000072MANZANO  ANGEL DOMIN                    0100000000022187137101                    NOMA630803FS7     0130A                
D37126                                   000000005000000072ARAIZA RODRIGUEZ SER                    0100000000087631546201                    AARS800224N74     0100A                
D37124                                   000000005000000072MARTINEZ RAMOS JOSEF                    0100000000058651374501                    MARJ75052389A     0100A                
D37121                                   000000005000000072GONZALEZ AGUILAR LUD                    0100000000049609823401                    GOAL700105TR4     0100A                
D37119                                   000000005000000072RAMOS FLORES YUNIVA                     0100000000056526955101                    RAFY810531285     0100A                
D37118                                   000000005000000072MORENO MUNOZ JESUS F                    0100000000065458804401                    MOMJ600205SM8     0100A                
D37117                                   000000005000000072PATINO REYES ANTONIO                    0100000000065458940701                    PARA810321KY3     0100A                
D37116                                   000000005000000072CASTILLO OCHOA JUAN                     0100000000080280026601                    CAOJ670128F7A     0100A                
D37115                                   000000005000000072GRIMALDO RODRIGUEZ Z                    0100000000050857193401                    GIRZ8207039U8     0100A                
D37114                                   000000005000000072TREJO BARRON KARINA                     0100000000031730629901                    TEBK920824FK9     0100A                
D37113                                   000000005000000072DIAZ GUERRERO KARINA                    0100000000031726922801                    DIGK7607053Q4     0100A                
D37111                                   000000005000000072CASTANEDA HERNANDEZ                     0100000000067071336901                    CAHA6902072Q3     0100A                
D37110                                   000000005000000072OLVERA DE LA CRUZ HA                    0100000000088497085701                    OECH810422R94     0100A                
D37109                                   000000005000000072ALVAREZ AYALA HECTOR                    0100000000065457768201                    AAAH771104691     0100A                
D37108                                   000000005000000072PALACIOS RODRIGUEZ M                    0100000000042267371001                    PARM7309221D3     0100A                
D37103                                   000000005000000072RODRIGUEZ VILLARREAL                    0100000000024797408501                    ROVJ620728SG6     0100A                
D37102                                   000000005000000072RAMIREZ HERNANDEZ MA                    0100000000031263644101                    RAHR5601065U4     0100A                
D37101                                   000000005000000072VALDIVIA LOPEZ ALICI                    0100000000027963710301                    VALA860616DC7     0100A                
D37099                                   000000005000000072ROJAS DE LOS SANTOS                     0100000000018668967501                    ROSM781222UG4     0100A                
D37098                                   000000005000000072PEREZ LOZANO LILIA M                    0100000000056415115701                    PELL6311198F0     0100A                
D37097                                   000000005000000072SANCHEZ DIAZ ALFREDO                    0100000000069014087901                    SADA590729D57     0100A                
D37094                                   000000005000000072HUERTA DAVILA CARMEN                    0100000000088438075501                    HUDC6207178R8     0100A                
D37091                                   000000005000000072MEDINA GUERRA INES                      0100000000020797627001                    MEGI621102826     0100A                
D37085                                   000000005000000072SALAS MURILLO NORMA                     0100000000027963491501                    SAMN710102NS7     0100A                
D37079                                   000000005000000072ARCEO RODRIGUEZ JORG                    0100000000085783762801                    AERJ781230BD7     0100A                
D37078                                   000000005000000072COTA FLORES MARICELA                    0100000000051955442901                    COFM6201301Q1     0100A                
D37076                                   000000005000000072PEREZ GONZALEZ MARIA                    0100000000042964775401                    PEGT651015623     0100A                
D37073                                   000000005000000072RODRIGUEZ SANCHEZ GL                    0100000000031730034501                    ROSG660326184     0100A                
D37072                                   000000005000000072FRANCO ZAMUDIO JUAN                     0100000000044710858701                    FAZJ840918SY1     0100A                
D37071                                   000000005000000072ARREAGA ISLAS CRISTY                    0100000000040758151301                    AEIC7912171LA     0100A                
D37067                                   000000005000000072VILLARREAL RAMIREZ M                    0100000000066415379501                    VIRD840313V55     0100A                
D37066                                   000000005000000072ARENAS ROMERO IDALIA                    0100000000043064674601                    AERI6311238Z6     0100A                
D37061                                   000000005000000072CORTES GARCIA GUSTAV                    0100000000064415997701                    COGG700122JE4     0100A                
D37057                                   000000005000000072GUEL RODRIGUEZ ESTEB                    0100000000045435578101                    GURE6402134C9     0100A                
D37054                                   000000005000000072MUNOZ CASTRO RAUL                       0100000000104484003201                    MUCR550415R93     0100A                
D37053                                   000000005000000072TORRES AGUAYO ALMA R                    0100000000052045866201                    TOAA770123AI9     0100A                
D37052                                   000000005000000072CARO RUSSELL OFELIA                     0100000000028057834101                    CARO7903232C6     0100A                
D37051                                   000000005000000072ZAMORA MARTINEZ DAVI                    0100000000066795648301                    ZAMD610120MU0     0100A                
D37046                                   000000005000000072REYES ALVARADO MARTH                    0100000000063781658001                    REAM610925GQ1     0100A                
D37044                                   000000005000000072AGUILAR GUEVARA BLAN                    0100000000031917165101                    AUGB790626520     0100A                
D37043                                   000000005000000072MEDINA AYALA SALVADO                    0100000000042108967701                    MEAX580326M10     0100A                
D37042                                   000000005000000072CADENA TAPIZ ANTONIO                    0100000000047264566401                    CATA560427849     0100A                
D36991                                   000000005000000072PULGARIN GLORIA GILB                    0100000000010616269901                    PUGG630525Q51     0122A                
D36987                                   000000005000000072LOPEZ CORONADO MAURO                    0100000000065458567801                    LOCM650115LS6     0122A                
D36986                                   000000005000000072GOMEZ FLORES FAUSTO                     0100000000065167667801                    GOFF710906EZ3     0122A                
D36981                                   000000005000000072GARCIA SANTANA GERMA                    0100000000043014806201                    GASG500228C47     0122A                
D36980                                   000000005000000072ROBLES LOPEZ OSCAR N                    0100000000023116043001                    ROLO590524MX0     0122A                
D36977                                   000000005000000072PEDROZA MARTINEZ ANA                    0100000000066791493301                    PEMA641217NCA     0122A                
D36973                                   000000005000000072GONZALEZ DE LEON NOR                    0100000000058601583801                    GOLN631015ME4     0122A                
D36972                                   000000005000000072ESPARZA RODRIGUEZ MI                    0100000000014882848101                    EARM720229AC2     0122A                
D36968                                   000000005000000072GUTIERREZ PORTALES G                    0100000000066787946101                    GUPG691205GTA     0122A                
D36962                                   000000005000000072MAR REYES NORA HILDA                    0100000000031920018601                    MARN651115C26     0122A                
D36960                                   000000005000000072PEREZ GARCIA FLORENC                    0100000000103218102201                    PEGF590725UZ2     0122A                
D36956                                   000000005000000072RODRIGUEZ CORTEZ OSC                    0100000000089859205701                    ROCO610307U82     0122A                
D36955                                   000000005000000072PEREZ MORALES KARLA                     0100000000066791727901                    PEMK880125BC0     0122A                
D36954                                   000000005000000072PEREZ MORALES KARLA                     0100000000066791727901                    PEMK880125BC0     0122A                
D36948                                   000000005000000072SANCHEZ GONZALEZ MAR                    0100000000068904066501                    SAGG570103BV7     0122A                
D36946                                   000000005000000072ROCHA CAMPOS JOSEFIN                    0100000000064199153201                    ROCJ6903269Y4     0122A                
D37039                                   000000005000000072RUIZ SANTIAGO SIDONI                    0100000000108678716401                    RUSS5908217T1     0100A                
D37035                                   000000005000000072RAMOS CORTES ZAIDA N                    0100000000028058108801                    RACZ930728834     0100A                
D37027                                   000000005000000072MONRREAL BURGUENO DA                    0100000000084718990801                    MOBD900512EU2     0100A                
D37024                                   000000005000000072COTA OSUNA JESUS JAI                    0100000000106739936001                    COOJ611225QL0     0100A                
D37021                                   000000005000000072AGUILAR HERRERA LUZ                     0100000000062542927701                    AUHL601208JB6     0100A                
D37020                                   000000005000000072PINEDO PINEDO JAVIER                    0100000000044491865901                    PIPJ670620E71     0100A                
D37019                                   000000005000000072GUERRERO MARTINEZ SA                    0100000000027326840201                    GUMS560111EJ9     0100A                
D37015                                   000000005000000072GONZALEZ ESPINOSA MA                    0100000000078958457501                    GOEM640520LM7     0100A                
D37014                                   000000005000000072GOMEZ CAVAZOS JORGE                     0100000000032077265201                    GOCJ860705QZ1     0100A                
D37012                                   000000005000000072SALDIVAR TELLO MAYRA                    0100000000031730242401                    SATM811001MV8     0100A                
D37011                                   000000005000000072SALDIVAR TELLO MAYRA                    0100000000031730242401                    SATM811001MV8     0100A                
D37006                                   000000005000000072RUBIO IRACHETA ANA P                    0100000000078958984401                    RUIA660331AUO     0100A                
D37005                                   000000005000000072MUNOZ ACUNA ELISA                       0100000000056422805201                    MUAE800121H99     0100A                
D36996                                   000000005000000072RUBIO IBARRA JOSE IG                    0100000000047112681201                    RUII5608309G2     0100A                
D36995                                   000000005000000072GARCIA DE LA ROSA FR                    0100000000032077248301                    GARF661004NE4     0122A                
D37349                                   000000005000000072BARAJAS LIZCANO ARMI                    0100000000057600489701                    BALA730318BI9     0100A                
D37345                                   000000005000000072GUERRERO VAZQUEZ PER                    0100000000082012077101                    GUVP790716CN5     0100A                
D37344                                   000000005000000072SEPULVEDA TORRES MAR                    0100000000041815836801                    SETT460821RT9     0100A                
D37343                                   000000005000000072CARDENAS HERRERA RUB                    0100000000046907854301                    CAHR441211QN2     0100A                
D37337                                   000000005000000072ZAVALA VALDES RAUL                      0100000000059314908501                    ZAVR630530AT8     0100A                
D37334                                   000000005000000072OLIVARES IRACHETA EM                    0100000000017859966701                    OIIE540930K8A     0100A                
D37328                                   000000005000000072ORTIZ OCHOA ESMERALD                    0100000000031917286301                    OIOE770306QL3     0100A                
D37322                                   000000005000000072HIGUERA ARMENTA VICE                    0100000000019660917701                    HIAV550826132     0100A                
D37321                                   000000005000000072HIGUERA ARMENTA VICE                    0100000000019660917701                    HIAV550826132     0100A                
D37319                                   000000005000000072GUADALAJARA LOPEZ MA                    0100000000021665906101                    GULM580105E7A     0100A                
D37318                                   000000005000000072MORENO MARTINEZ ROSA                    0100000000028058089401                    MOMR7508161L9     0100A                
D37317                                   000000005000000072HERNANDEZ SALINAS GR                    0100000000041798445801                    HESG6606182K0     0100A                
D37316                                   000000005000000072OLACHEA GONZALEZ LUI                    0100000000112974984501                    OAGL600426GN8     0100A                
D37314                                   000000005000000072GALVAN DE LA ROSA MA                    0100000000106428886501                    GARM850729P42     0100A                
D37311                                   000000005000000072FLORES SANCHEZ ROSA                     0100000000027631793601                    FOSR7305174R8     0100A                
D37310                                   000000005000000072RAMIREZ CARMONA ELVI                    0100000000042349802201                    RACE440718RG4     0100A                
D37307                                   000000005000000072ROJAS RIVERA MARIA G                    0100000000031730064401                    RORG720921JX4     0100A                
D37306                                   000000005000000072SORIANO RUIZ JUANA                      0100000000115338705501                    SORJ740817D90     0100A                
D37303                                   000000005000000072HERNANDEZ CHAVARRIA                     0100000000056216826501                    HECT5504059T8     0100A                
D37294                                   000000005000000072SALINAS MENDOZA RAFA                    0100000000042026384501                    SAMR4010214CA     0100A                
D37291                                   000000005000000072FIGUEROA SOSA ELENA                     0100000000021288838601                    FISE591211S76     0100A                
D37290                                   000000005000000072CRUZ SANCHEZ MARISEL                    0100000000031726785901                    CUSM880224PH0     0100A                
D37288                                   000000005000000072ESPINOZA JASSO ERIKA                    0100000000112409704601                    EIJE790805DNA     0100A                
D37286                                   000000005000000072DELGADO CALDERON MAR                    0100000000110923011201                    DECC770716BH1     0100A                
D37279                                   000000005000000072SANCHEZ GARZA RAMON                     0100000000088466216101                    SAGR550221C78     0100A                
D37276                                   000000005000000072RODRIGUEZ GARCIA SAN                    0100000000087752699301                    ROGS861010585     0100A                
D37269                                   000000005000000072MUNOZ BRIONES DORA E                    0100000000027037775001                    MUBD540112VE4     0100A                
D37267                                   000000005000000072ORTEGA GARCIA JUDITH                    0100000000020799072601                    OEGJ621012DJ8     0100A                
D37265                                   000000005000000072AVILA ANGELES MARIA                     0100000000021935025701                    AIAL6305105A0     0100A                
D37263                                   000000005000000072ZAPATA LIMON JOSE LU                    0100000000026850225001                    ZALL800227CQ2     0100A                
D37262                                   000000005000000072CASTANEDA SALAZAR AL                    0100000000106859190101                    CASA590112P63     0100A                
D37261                                   000000005000000072RUVALCABA BAUTISTA E                    0100000000064416057101                    RUBE831005L80     0100A                
D37260                                   000000005000000072GARCIA REYNA MA DEL                     0100000000044642540101                    GARR510830DZ1     0100A                
D37259                                   000000005000000072URIARTE  RUTH                           0100000000027963686101                    UIRU720910LS0     0100A                
D37258                                   000000005000000072ESPARZA JIMENEZ ARTU                    0100000000064274289801                    EAJA600513LF9     0100A                
D37251                                   000000005000000072HUITRON GONZALEZ MAR                    0100000000111645216301                    HUGM6608246A7     0100A                
D37250                                   000000005000000072SAENZ ZAVALA TOMAS                      0100000000106602679901                    SAZT510118FW8     0100A                
D37246                                   000000005000000072TORRES ROSAS MARTHA                     0100000000032077692201                    TORM870128G34     0100A                
D37244                                   000000005000000072MARTINEZ AGUIAR MARC                    0100000000035773921301                    MAAM5406129P5     0100A                
D37241                                   000000005000000072ORANTES VEGA VICTOR                     0100000000082914225301                    OAVV9009015ZA     0100A                
D37240                                   000000005000000072VALENZUELA GARCIA BE                    0100000000109260651001                    VAGB600212CGA     0100A                
D37239                                   000000005000000072RANGEL OJEDA MARIA L                    0100000000101932323401                    RAOL4909308E1     0100A                
D37238                                   000000005000000072AVILES  DELIA GUADAL                    0100000000104097706001                    AIDE551211367     0100A                
D37233                                   000000005000000072TORRES ENCISO CARLOS                    0100000000027963661001                    TOEC680427JA0     0100A                
D37232                                   000000005000000072OYERVIDEZ MORALES AL                    0100000000098339272501                    OEMA680616UP3     0100A                
D37231                                   000000005000000072GALVAN HURTADO MIGDA                    0100000000032072555501                    GAHM790214F5A     0100A                
D37230                                   000000005000000072MOYEDA ZERTUCHE JUAN                    0100000000044497710801                    MOZJ591124A14     0100A                
D37229                                   000000005000000072SALAZAR MARTINEZ JUL                    0100000000029294406001                    SAMJ741121293     0100A                
D37228                                   000000005000000072CASTRO TORRES ANA MA                    0100000000018619763901                    CATA530726IC6     0100A                
D37227                                   000000005000000072AGUILAR CONTRERAS AN                    0100000000031278692601                    AUCA561203NT3     0100A                
D37225                                   000000005000000072AMAYA MONTIEL CARLOS                    0100000000040109774001                    AAMC860112AE5     0100A                
D37223                                   000000005000000072VIGIL PINA PERLA ARA                    0100000000089471198301                    VIPP9008302W3     0100A                
D37220                                   000000005000000072RAMIREZ SALAS MA. BE                    0100000000081813582001                    RASM600217E53     0130A                
D37217                                   000000005000000072HUERTA BALDOVINOS AM                    0100000000061244620101                    HUBA630710SE2     0100A                
D37212                                   000000005000000072BAEZA QUIROZ MARTHA                     0100000000052807773301                    BAQM580203DEA     0100A                
D37210                                   000000005000000072FELIX CRUZ JUAN DE D                    0100000000032077226901                    FECJ871103QS2     0100A                
D37207                                   000000005000000072MENDOZA PARRA MARTHA                    0100000000027962866001                    MEPM770119BW7     0100A                
D37206                                   000000005000000072COBOS MORENO CESAR                      0100000000065458052501                    COMC840827RF0     0100A                
D37201                                   000000005000000072NEVAREZ VARGAS BREND                    0100000000030722268001                    NEVB900507I78     0100A                
D37197                                   000000005000000072AGUIRRE BONILLA JUAN                    0100000000087285449501                    AUBJ450330QU2     0100A                
D37195                                   000000005000000072TALAMANTES WINDFIELD                    0100000000017543969601                    TAWV730216735     0100A                
