HCP009502021100101000808000000080602700000808000000080602700000000000000000000000000000                                                                                                                     
D20211001          27241                                   domiciliaciongocredit                   000000000046300CAOO400917RA6072010000000006977685171A00000000     040000000                              
D20211001          31966                                   domiciliaciongocredit                   000000000046300BERS6207305L7072010000000003181649641A00000000     040000000                              
D20211001          35486                                   domiciliaciongocredit                   000000000046300VIFF590426BM0072010000000010845315231A00000000     000000000                              
D20211001          36801                                   domiciliaciongocredit                   000000000046400SIJP660429JI4072010000000005407011211A00000000     040000000                              
D20211001          21156                                   domiciliaciongocredit                   000000000046800PIEA81052777A072010000000010917324121A00000000     000000000                              
D20211001          33628                                   domiciliaciongocredit                   000000000046800RORS5912244D1072010000000004724054111A00000000     040000000                              
D20211001          28738                                   domiciliaciongocredit                   000000000046900MATM5205042C7072010000000008301131651A00000000     000000000                              
D20211001          37915                                   domiciliaciongocredit                   000000000046900CATP560403R93072010000000004497584811A00000000     000000000                              
D20211001          32848                                   domiciliaciongocredit                   000000000047100FOFM571113K58072010000000010996408941A00000000     000000000                              
D20211001          32801                                   domiciliaciongocredit                   000000000047600AAGR510830I47072010000000008007488961A00000000     000000000                              
D20211001          35600                                   domiciliaciongocredit                   000000000047600VAZG540628GK7072010000000002531505271A00000000     000000000                              
D20211001          37545                                   domiciliaciongocredit                   000000000047600CICL450819LG5072010000000004990894521A00000000     040000000                              
D20211001          29069                                   domiciliaciongocredit                   000000000047700GOME5702206N1072010000000003238732971A00000000     040000000                              
D20211001          30856                                   domiciliaciongocredit                   000000000047700IIPA5305152G3072010000000004759931151A00000000     000000000                              
D20211001          32577                                   domiciliaciongocredit                   000000000047700MEQA601229IH9072010000000006235942561A00000000     000000000                              
D20211001          34928                                   domiciliaciongocredit                   000000000048000HEAC540216EA4072010000000002195669001A00000000     040000000                              
D20211001          36107                                   domiciliaciongocredit                   000000000048000ROGJ710909FM7072010000000004101088441A00000000     040000000                              
D20211001          35117                                   domiciliaciongocredit                   000000000048200AUAD540819KZ5072010000000002506483951A00000000     000000000                              
D20211001          35601                                   domiciliaciongocredit                   000000000048200SILJ520905RBA072010000000008509557101A00000000     000000000                              
D20211001          36763                                   domiciliaciongocredit                   000000000048200RIGC4903077L7072010000000002284127461A00000000     040000000                              
D20211001          33512                                   domiciliaciongocredit                   000000000048800MABF5807072FA072010000000008817769551A00000000     000000000                              
D20211001          33412                                   domiciliaciongocredit                   000000000049000ZAOA541016MV4072010000000004031812871A00000000     000000000                              
D20211001          29960                                   domiciliaciongocredit                   000000000049000TAGC550125768072010000000004355148311A00000000     000000000                              
D20211001          36597                                   domiciliaciongocredit                   000000000049000CAMA520521I71072010000000005930758491A00000000     000000000                              
D20211001          36358                                   domiciliaciongocredit                   000000000049100GANV421005IX9072010000000002838241601A00000000     040000000                              
D20211001          34632                                   domiciliaciongocredit                   000000000049500AUAN560802TS5072010000000004127333251A00000000     000000000                              
D20211001          36264                                   domiciliaciongocredit                   000000000049500GOCJ670710LC4072010000000001854272811A00000000     040000000                              
D20211001          38002                                   domiciliaciongocredit                   000000000049500COCR540821SI3072010000000002509699881A00000000     000000000                              
D20211001          31014                                   domiciliaciongocredit                   000000000049600LEZJ580301DY9072010000000002650533311A00000000     000000000                              
D20211001          35024                                   domiciliaciongocredit                   000000000049900HARY5606142RA072010000000010284192501A00000000     040000000                              
D20211001          29011                                   domiciliaciongocredit                   000000000050100RICP631209CC1072010000000004720444721A00000000     000000000                              
D20211001          31654                                   domiciliaciongocredit                   000000000050100FEAM7311299A5072010000000004920776651A00000000     000000000                              
D20211001          36035                                   domiciliaciongocredit                   000000000050100SACL5508253L3072010000000008357080611A00000000     000000000                              
D20211001          37217                                   domiciliaciongocredit                   000000000050100HUBA630710SE2072010000000006124462011A00000000     000000000                              
D20211001          36600                                   domiciliaciongocredit                   000000000050400AACP450310V93072010000000005850367511A00000000     000000000                              
D20211001          29121                                   domiciliaciongocredit                   000000000050800MORG750206TE9072010000000005459026631A00000000     040000000                              
D20211001          29795                                   domiciliaciongocredit                   000000000050800RUAR501114FF7072010000000006709212211A00000000     040000000                              
D20211001          36410                                   domiciliaciongocredit                   000000000050900GOER511017956072010000000008932702321A00000000     040000000                              
D20211001          29028                                   domiciliaciongocredit                   000000000050900CALH440808M19072010000000001922359431A00000000     040000000                              
D20211001          27646                                   domiciliaciongocredit                   000000000051100ROMC710517H50072010000000006632073561A00000000     000000000                              
D20211001          27646                                   domiciliaciongocredit                   000000000051100ROMC710517H50072010000000006632073561A00000000     000000000                              
D20211001          36586                                   domiciliaciongocredit                   000000000051200HAMR430805UEA072010000000001880821681A00000000     040000000                              
D20211001          33033                                   domiciliaciongocredit                   000000000051300MEGS591014H9A072010000000011292798471A00000000     000000000                              
D20211001          37631                                   domiciliaciongocredit                   000000000051500CAOL550819JX7072010000000010081953051A00000000     000000000                              
D20211001          35848                                   domiciliaciongocredit                   000000000051500SALJ720109960072010000000010232573361A00000000     040000000                              
D20211001          29097                                   domiciliaciongocredit                   000000000051600BICL4210255GA072010000000001048034111A00000000     040000000                              
D20211001          24524                                   domiciliaciongocredit                   000000000051700PAGE680318KU9072010000000004719470801A00000000     040000000                              
D20211001          34331                                   domiciliaciongocredit                   000000000051700GACD440229HQ4072010000000004542571661A00000000     040000000                              
D20211001          33837                                   domiciliaciongocredit                   000000000051800PAPA470603FF8072010000000002676272681A00000000     000000000                              
D20211001          33114                                   domiciliaciongocredit                   000000000051900PEBM530322UB0072010000000002063923871A00000000     040000000                              
D20211001          35006                                   domiciliaciongocredit                   000000000052400CELC560118TF4072010000000004271119811A00000000     000000000                              
D20211001          36334                                   domiciliaciongocredit                   000000000052400MEGG601113JL6072010000000002822469431A00000000     000000000                              
D20211001          36574                                   domiciliaciongocredit                   000000000052400RULP510915MH4072010000000003543325101A00000000     040000000                              
D20211001          35203                                   domiciliaciongocredit                   000000000052500FABG541212BK3072010000000010333904831A00000000     000000000                              
D20211001          36115                                   domiciliaciongocredit                   000000000052500MAMG481021DL2072010000000002987212181A00000000     040000000                              
D20211001          32667                                   domiciliaciongocredit                   000000000052900RETT411209VB7072010000000005627866781A00000000     000000000                              
D20211001          29451                                   domiciliaciongocredit                   000000000053100TUCA421126BR6072010000000002901653841A00000000     000000000                              
D20211001          35451                                   domiciliaciongocredit                   000000000053100GAMA740419LA0072010000000002273555011A00000000     000000000                              
D20211001          37250                                   domiciliaciongocredit                   000000000053100SAZT510118FW8072010000000010660267991A00000000     000000000                              
D20211001          35743                                   domiciliaciongocredit                   000000000053200ROGJ470813AY0072010000000005563679051A00000000     000000000                              
D20211001          20888                                   domiciliaciongocredit                   000000000054000FARN570421JG8072010000000003148411461A00000000     040000000                              
D20211001          32744                                   domiciliaciongocredit                   000000000054000GODJ500217LE1072010000000008359512871A00000000     000000000                              
D20211001          33298                                   domiciliaciongocredit                   000000000054000GOMV530714FY3072010000000008923236901A00000000     040000000                              
D20211001          34146                                   domiciliaciongocredit                   000000000054000VESA7412046V6072010000000008494546731A00000000     040000000                              
D20211001          22289                                   domiciliaciongocredit                   000000000054300GAGA620509EBA072010000000009837050731A00000000     040000000                              
D20211001          35848                                   domiciliaciongocredit                   000000000054400SALJ720109960072010000000010232573361A00000000     040000000                              
D20211001          29782                                   domiciliaciongocredit                   000000000054500OEGJ530903GU7072010000000005412828401A00000000     040000000                              
D20211001          34374                                   domiciliaciongocredit                   000000000054500VEMJ681112J39072010000000006760530301A00000000     040000000                              
D20211001          29097                                   domiciliaciongocredit                   000000000054500BICL4210255GA072010000000001048034111A00000000     040000000                              
D20211001          22970                                   domiciliaciongocredit                   000000000054500CAMD550326S32072010000000002831305441A00000000     040000000                              
D20211001          33163                                   domiciliaciongocredit                   000000000054700TIAA441019BZ8072010000000002387308051A00000000     040000000                              
D20211001          30916                                   domiciliaciongocredit                   000000000055000MEGA5407119H5072010000000004495622041A00000000     000000000                              
D20211001          26908                                   domiciliaciongocredit                   000000000055600FOLM481224D62072010000000006152370351A00000000     040000000                              
D20211001          32482                                   domiciliaciongocredit                   000000000055800HEAC540216EA4072010000000002195669001A00000000     040000000                              
D20211001          21632                                   domiciliaciongocredit                   000000000055800BAAA550807QL2072010000000011291456981A00000000     000000000                              
D20211001          25438                                   domiciliaciongocredit                   000000000055800TAMH5706285S3072010000000003253132831A00000000     000000000                              
D20211001          35151                                   domiciliaciongocredit                   000000000056000RUVA670327IN9072010000000002901567571A00000000     000000000                              
D20211001          37784                                   domiciliaciongocredit                   000000000056000GAGG560909418072010000000003074768301A00000000     000000000                              
D20211001          36801                                   domiciliaciongocredit                   000000000056300SIJP660429JI4072010000000005407011211A00000000     040000000                              
D20211001          34400                                   domiciliaciongocredit                   000000000056300RASJ5304197U0072010000000008839437881A00000000     000000000                              
D20211001          36758                                   domiciliaciongocredit                   000000000056500SOMJ5412246D1072010000000006379011961A00000000     200000000                              
D20211001          32705                                   domiciliaciongocredit                   000000000057100MAMR611129IVA072010000000010906134751A00000000     000000000                              
D20211001          22622                                   domiciliaciongocredit                   000000000057200RUQR510120CV3072010000000006306675501A00000000     040000000                              
D20211001          35589                                   domiciliaciongocredit                   000000000057200AARO490625K46072010000000006273977181A00000000     040000000                              
D20211001          35827                                   domiciliaciongocredit                   000000000057400HEGM530505JV9072010000000008826771701A00000000     000000000                              
D20211001          37306                                   domiciliaciongocredit                   000000000057400SORJ740817D90072010000000011533870551A00000000     000000000                              
D20211001          34661                                   domiciliaciongocredit                   000000000057900JUSA520726K67072010000000008419145911A00000000     040000000                              
D20211001          34748                                   domiciliaciongocredit                   000000000057900CAJC451205P72072010000000008981010321A00000000     000000000                              
D20211001          37372                                   domiciliaciongocredit                   000000000057900COLG5502181E0072010000000002912709131A00000000     040000000                              
D20211001          31556                                   domiciliaciongocredit                   000000000059500OEPE5808309W4072010000000005191158661A00000000     040000000                              
D20211001          36912                                   domiciliaciongocredit                   000000000059500VESJ470424QA6072010000000006527619191A00000000     040000000                              
D20211001          34974                                   domiciliaciongocredit                   000000000059900LUJG510917GLA072010000000008228957561A00000000     000000000                              
D20211001          32547                                   domiciliaciongocredit                   000000000059900GOSE4805247HA072010000000010230549911A00000000     000000000                              
D20211001          34638                                   domiciliaciongocredit                   000000000060000GAGM470722MP7072010000000004353560041A00000000     000000000                              
D20211001          33339                                   domiciliaciongocredit                   000000000060400ROCP530418IZ8072010000000008822881651A00000000     040000000                              
D20211001          26908                                   domiciliaciongocredit                   000000000060400FOLM481224D62072010000000006152370351A00000000     040000000                              
D20211001          30467                                   domiciliaciongocredit                   000000000060600AURL490318GH0072010000000004958370111A00000000     040000000                              
D20211001          30861                                   domiciliaciongocredit                   000000000061700SOEU550614JQ3072010000000011297415131A00000000     040000000                              
D20211001          31263                                   domiciliaciongocredit                   000000000061700MORA640305K77072010000000010396191131A00000000     000000000                              
D20211001          31556                                   domiciliaciongocredit                   000000000061900OEPE5808309W4072010000000005191158661A00000000     040000000                              
D20211001          30646                                   domiciliaciongocredit                   000000000062500MEAM710602V49072010000000003610840311A00000000     000000000                              
D20211001          37845                                   domiciliaciongocredit                   000000000062600SAGX560314UK9072010000000004616086631A00000000     040000000                              
D20211001          33113                                   domiciliaciongocredit                   000000000062800FISE591211S76072010000000002128883861A00000000     000000000                              
D20211001          32581                                   domiciliaciongocredit                   000000000062900BARE500124U50072010000000006609922951A00000000     040000000                              
D20211001          33818                                   domiciliaciongocredit                   000000000062900LOPL570819GH1072010000000002511379441A00000000     040000000                              
D20211001          34871                                   domiciliaciongocredit                   000000000063200SIFA490730E37072010000000003099602211A00000000     000000000                              
D20211001          31440                                   domiciliaciongocredit                   000000000063400RIEE541003U55072010000000002822844311A00000000     040000000                              
D20211001          20806                                   domiciliaciongocredit                   000000000063500HEMS550627874072010000000004901150861A00000000     040000000                              
D20211001          29241                                   domiciliaciongocredit                   000000000063500RIRA601116ST1072010000000001902338421A00000000     040000000                              
D20211001          29275                                   domiciliaciongocredit                   000000000063500BASM530403PS2072010000000008924425551A00000000     000000000                              
D20211001          29491                                   domiciliaciongocredit                   000000000063500CAML450214KK9072010000000005674552001A00000000     040000000                              
D20211001          29538                                   domiciliaciongocredit                   000000000063500CAAE5706222Q7072010000000003540008551A00000000     000000000                              
D20211001          29751                                   domiciliaciongocredit                   000000000063500MOCE500303PG2072010000000001767197421A00000000     040000000                              
D20211001          29818                                   domiciliaciongocredit                   000000000063500VAMR551024P43072010000000004424835511A00000000     000000000                              
D20211001          30197                                   domiciliaciongocredit                   000000000063500BASM530403PS2072010000000008924425551A00000000     000000000                              
D20211001          33767                                   domiciliaciongocredit                   000000000063500MEPI550522BM3072010000000003132831961A00000000     000000000                              
D20211001          34706                                   domiciliaciongocredit                   000000000063500BASM530403PS2072010000000008924425551A00000000     000000000                              
D20211001          34894                                   domiciliaciongocredit                   000000000063500VAGH480114NF3072010000000008237074541A00000000     040000000                              
D20211001          35143                                   domiciliaciongocredit                   000000000063500SACL5508253L3072010000000008357080611A00000000     000000000                              
D20211001          36333                                   domiciliaciongocredit                   000000000063500SIMR650221UT9072010000000002044132971A00000000     000000000                              
D20211001          36686                                   domiciliaciongocredit                   000000000064000VAFR5412083K8072010000000002883893651A00000000     000000000                              
D20211001          33989                                   domiciliaciongocredit                   000000000064300CUCE600704S96072010000000011240249761A00000000     000000000                              
D20211001          35133                                   domiciliaciongocredit                   000000000064300MOCG560220CD1072010000000004686608391A00000000     000000000                              
D20211001          35897                                   domiciliaciongocredit                   000000000064300AAGE5402185U1072010000000002308884101A00000000     000000000                              
D20211001          36221                                   domiciliaciongocredit                   000000000064300TORJ601225GH2072010000000011402411841A00000000     000000000                              
D20211001          36748                                   domiciliaciongocredit                   000000000064300VACM570303DW9072010000000003063607451A00000000     000000000                              
D20211001          36925                                   domiciliaciongocredit                   000000000064300CAVT520608QZ0072010000000004213450741A00000000     200000000                              
D20211001          37434                                   domiciliaciongocredit                   000000000064300AUME750714JTA072010000000010342937051A00000000     040000000                              
D20211001          31496                                   domiciliaciongocredit                   000000000065200VIGG600705D77072010000000007872244741A00000000     040000000                              
D20211001          33668                                   domiciliaciongocredit                   000000000065300AAMR540804X32072010000000002511766991A00000000     000000000                              
D20211001          35762                                   domiciliaciongocredit                   000000000326300LAMM5805154T9072010000000010955174931A00000000     040000000                              
D20211001          38066                                   domiciliaciongocredit                   000000000335700DOCR560314NV9072010000000002479242951A00000000     000000000                              
D20211001          37444                                   domiciliaciongocredit                   000000000336400VAAG490416K15072010000000008230368371A00000000     000000000                              
D20211001          33630                                   domiciliaciongocredit                   000000000352600TOTJ710709IB6072010000000011219175901A00000000     000000000                              
D20211001          36139                                   domiciliaciongocredit                   000000000374900HELL5202103C5072010000000003350320241A00000000     040000000                              
D20211001          32523                                   domiciliaciongocredit                   000000000376000SAGR420428ST3072010000000004600688041A00000000     040000000                              
D20211001          34775                                   domiciliaciongocredit                   000000000380900BUAA5603086T0072010000000004401960081A00000000     000000000                              
D20211001          36174                                   domiciliaciongocredit                   000000000384600LAES500407FY7072010000000003151126741A00000000     040000000                              
D20211001          36174                                   domiciliaciongocredit                   000000000384600LAES500407FY7072010000000003151126741A00000000     040000000                              
D20211001          29425                                   domiciliaciongocredit                   000000000389300ROBL5609162E5072010000000003199896781A00000000     000000000                              
D20211001          36839                                   domiciliaciongocredit                   000000000391600BAHJ6306264M3072010000000006966023881A00000000     000000000                              
D20211001          35564                                   domiciliaciongocredit                   000000000408400FAVA770528182072010000000005902836701A00000000     000000000                              
D20211001          25617                                   domiciliaciongocredit                   000000000444400BOGJ4510192T2072010000000008716967371A00000000     000000000                              
D20211001          29463                                   domiciliaciongocredit                   000000000444400BIRA540917G35072010000000003164604021A00000000     040000000                              
D20211001          37454                                   domiciliaciongocredit                   000000000456800COMJ480120G39072010000000008266174421A00000000     000000000                              
D20211001          35919                                   domiciliaciongocredit                   000000000465700CUCM541012HZ0072010000000010931607921A00000000     040000000                              
D20211001          34911                                   domiciliaciongocredit                   000000000497100AIHA521217FE6072010000000008647662031A00000000     000000000                              
D20211001          36174                                   domiciliaciongocredit                   000000000512700LAES500407FY7072010000000003151126741A00000000     040000000                              
D20211001          37262                                   domiciliaciongocredit                   000000000514200CASA590112QI9072010000000010685919011A00000000     000000000                              
D20211001          35294                                   domiciliaciongocredit                   000000000546700OOHE730112J15072010000000003091445531A00000000     000000000                              
D20211001          36839                                   domiciliaciongocredit                   000000000549400BAHJ6306264M3072010000000006966023881A00000000     040000000                              
D20211001          34835                                   domiciliaciongocredit                   000000000574500WIRG5702233F0072010000000003034175721A00000000     000000000                              
D20211001          35245                                   domiciliaciongocredit                   000000000587300GAGF590408A95072010000000006855783111A00000000     040000000                              
D20211001          35336                                   domiciliaciongocredit                   000000000609600MOHR531020N37072010000000002057296961A00000000     000000000                              
D20211001          34865                                   domiciliaciongocredit                   000000000633700CAOO530218587072010000000002024550791A00000000     040000000                              
D20211001          20392                                   domiciliaciongocredit                   000000000634800MORO6505208A9072010000000008478663111A00000000     000000000                              
D20211001          33657                                   domiciliaciongocredit                   000000000651400PIMA571015A40072010000000011432419161A00000000     000000000                              
D20211001          36390                                   domiciliaciongocredit                   000000000729900MARL5612043KA072010000000002954891971A00000000     040000000                              
D20211001          36174                                   domiciliaciongocredit                   000000000769100LAES500407FY7072010000000003151126741A00000000     040000000                              
D20211001          37444                                   domiciliaciongocredit                   000000000784900VAAG490416K15072010000000008230368371A00000000     000000000                              
D20211001          36174                                   domiciliaciongocredit                   000000000897300LAES500407FY7072010000000003151126741A00000000     040000000                              
D20211001          36174                                   domiciliaciongocredit                   000000000897300LAES500407FY7072010000000003151126741A00000000     040000000                              
D20211001          35222                                   domiciliaciongocredit                   000000000008400EOTG591212U74072010000000011040297861A00000000     000000000                              
D20211001          36481                                   domiciliaciongocredit                   000000000008400CACX551130I76072010000000004420973051A00000000     000000000                              
D20211001          34983                                   domiciliaciongocredit                   000000000008900VAGE460117HB8072010000000001449947081A00000000     000000000                              
D20211001          36944                                   domiciliaciongocredit                   000000000009700COHA510601U73072010000000011146991241A00000000     040000000                              
D20211001          33929                                   domiciliaciongocredit                   000000000011200MIBF510812446072010000000004489866341A00000000     040000000                              
D20211001          19239                                   domiciliaciongocredit                   000000000011900AUDF6901133F7072010000000004260229321A00000000     040000000                              
D20211001          30369                                   domiciliaciongocredit                   000000000012200LACV360826JM8072010000000011414397821A00000000     040000000                              
D20211001          31582                                   domiciliaciongocredit                   000000000012500HESI741116KL6072010000000002886117301A00000000     000000000                              
D20211001          35233                                   domiciliaciongocredit                   000000000012600TOTJ710709IB6072010000000011219175901A00000000     000000000                              
D20211001          37921                                   domiciliaciongocredit                   000000000012600LOPA640125LA2072010000000009644563801A00000000     040000000                              
D20211001          35524                                   domiciliaciongocredit                   000000000012900DOMA450925HL3072010000000010266972141A00000000     000000000                              
D20211001          37690                                   domiciliaciongocredit                   000000000012900CUCE600704S96072010000000011240249761A00000000     000000000                              
D20211001          31206                                   domiciliaciongocredit                   000000000013300VIAM471017HQ0072010000000008738938391A00000000     040000000                              
D20211001          30369                                   domiciliaciongocredit                   000000000013300LACV360826JM8072010000000011414397821A00000000     040000000                              
D20211001          36018                                   domiciliaciongocredit                   000000000013600MURV550104N87072010000000004858173681A00000000     040000000                              
D20211001          21127                                   domiciliaciongocredit                   000000000013700HEML4812174C5072010000000002802613261A00000000     000000000                              
D20211001          35618                                   domiciliaciongocredit                   000000000014000LEFI4908286BA072010000000004277631111A00000000     000000000                              
D20211001          37239                                   domiciliaciongocredit                   000000000014000RAOL4909308E1072010000000010193232341A00000000     040000000                              
D20211001          28994                                   domiciliaciongocredit                   000000000014900CAML450214KK9072010000000005674552001A00000000     040000000                              
D20211001          31515                                   domiciliaciongocredit                   000000000014900DOSE490811392072010000000004859790061A00000000     000000000                              
D20211001          34332                                   domiciliaciongocredit                   000000000015000ROCP530418IZ8072010000000008822881651A00000000     040000000                              
D20211001          34980                                   domiciliaciongocredit                   000000000015000LEMM550111EA2072010000000002970686801A00000000     000000000                              
D20211001          36018                                   domiciliaciongocredit                   000000000015100MURV550104N87072010000000004858173681A00000000     040000000                              
D20211001          31491                                   domiciliaciongocredit                   000000000015700TEMM530726656072010000000004208465101A00000000     040000000                              
D20211001          33804                                   domiciliaciongocredit                   000000000016100PUEG530710N79072010000000011123696561A00000000     000000000                              
D20211001          34696                                   domiciliaciongocredit                   000000000016100OOMJ570830TP1072010000000004483892621A00000000     000000000                              
D20211001          34994                                   domiciliaciongocredit                   000000000016100VACP5506294S1072010000000004267248161A00000000     000000000                              
D20211001          36645                                   domiciliaciongocredit                   000000000016300JAHE780425V83072010000000002025184241A00000000     040000000                              
D20211001          20835                                   domiciliaciongocredit                   000000000016400RAAR600823HA9072010000000003157501601A00000000     040000000                              
D20211001          32478                                   domiciliaciongocredit                   000000000016400MEMC560815DSA072010000000004762097381A00000000     040000000                              
D20211001          33629                                   domiciliaciongocredit                   000000000016400RATE641108FA5072010000000004308319621A00000000     040000000                              
D20211001          36960                                   domiciliaciongocredit                   000000000016400PEGF590725UZ2072010000000010321810221A00000000     000000000                              
D20211001          27892                                   domiciliaciongocredit                   000000000016600TOEA541224MS9072010000000002730199301A00000000     040000000                              
D20211001          30453                                   domiciliaciongocredit                   000000000016600MOAR571123KR4072010000000010155292431A00000000     040000000                              
D20211001          30860                                   domiciliaciongocredit                   000000000016600CONR570829BA6072010000000003243705791A00000000     000000000                              
D20211001          29085                                   domiciliaciongocredit                   000000000016700GAVE3803015N7072010000000001824399571A00000000     000000000                              
D20211001          33331                                   domiciliaciongocredit                   000000000017100VACP5506294S1072010000000004267248161A00000000     000000000                              
D20211001          19239                                   domiciliaciongocredit                   000000000017500AUDF6901133F7072010000000004260229321A00000000     040000000                              
D20211001          34858                                   domiciliaciongocredit                   000000000065300AAMR540804X32072010000000002511766991A00000000     000000000                              
D20211001          24035                                   domiciliaciongocredit                   000000000065300TOOI600129F53072010000000001658017531A00000000     040000000                              
D20211001          31464                                   domiciliaciongocredit                   000000000066100AACR5408084T0072010000000002512280841A00000000     000000000                              
D20211001          30499                                   domiciliaciongocredit                   000000000066100CULF590822N48072010000000004038258711A00000000     000000000                              
D20211001          30844                                   domiciliaciongocredit                   000000000066400BIGC500805IDA072010000000008194022481A00000000     040000000                              
D20211001          31440                                   domiciliaciongocredit                   000000000066400RIEE541003U55072010000000002822844311A00000000     040000000                              
D20211001          27819                                   domiciliaciongocredit                   000000000066700SAFV550122S77072010000000002976944811A00000000     040000000                              
D20211001          35021                                   domiciliaciongocredit                   000000000066700CELC560118TF4072010000000004271119811A00000000     000000000                              
D20211001          35102                                   domiciliaciongocredit                   000000000066900OIHR5502077Y8072010000000004182235011A00000000     040000000                              
D20211001          34836                                   domiciliaciongocredit                   000000000067100AIPC541105457072010000000002609886701A00000000     040000000                              
D20211001          36836                                   domiciliaciongocredit                   000000000067300HESI741116KL6072010000000002886117301A00000000     000000000                              
D20211001          38147                                   domiciliaciongocredit                   000000000067300PEBM5601207Z7072010000000006305829341A00000000     000000000                              
D20211001          22500                                   domiciliaciongocredit                   000000000067400AUGM540723DG1072010000000002889007511A00000000     040000000                              
D20211001          33160                                   domiciliaciongocredit                   000000000067500SENL490318421072010000000005358762151A00000000     000000000                              
D20211001          19883                                   domiciliaciongocredit                   000000000067800MECJ480423274072010000000004875039821A00000000     040000000                              
D20211001          19946                                   domiciliaciongocredit                   000000000067800BAAA480902K33072010000000004512234051A00000000     040000000                              
D20211001          19897                                   domiciliaciongocredit                   000000000067800VIZA570305FM8072010000000002678646611A00000000     040000000                              
D20211001          37054                                   domiciliaciongocredit                   000000000067800MUCR550415Q45072010000000010448400321A00000000     000000000                              
D20211001          32994                                   domiciliaciongocredit                   000000000068400CERI5401239K6072010000000002308884291A00000000     000000000                              
D20211001          35394                                   domiciliaciongocredit                   000000000068600PEHG511212LD7072010000000008144786041A00000000     040000000                              
D20211001          38086                                   domiciliaciongocredit                   000000000068900VECP690411HP5072010000000002824451201A00000000     000000000                              
D20211001          30604                                   domiciliaciongocredit                   000000000069400MASM540216A31072010000000002353358341A00000000     040000000                              
D20211001          27815                                   domiciliaciongocredit                   000000000069900TAGC521006M8A072010000000008747654291A00000000     000000000                              
D20211001          29450                                   domiciliaciongocredit                   000000000069900BAMC490117UD0072010000000005415037491A00000000     040000000                              
D20211001          34269                                   domiciliaciongocredit                   000000000069900MOOE471201AGA072010000000003109005311A00000000     000000000                              
D20211001          34549                                   domiciliaciongocredit                   000000000069900AAVJ530108MZ8072010000000008884225691A00000000     000000000                              
D20211001          37334                                   domiciliaciongocredit                   000000000069900OIIE540930K8A072010000000001785996671A00000000     000000000                              
D20211001          32547                                   domiciliaciongocredit                   000000000069900GOSE4805247HA072010000000010230549911A00000000     000000000                              
D20211001          35113                                   domiciliaciongocredit                   000000000069900SEVG571105GJA072010000000011315097981A00000000     000000000                              
D20211001          32547                                   domiciliaciongocredit                   000000000069900GOSE4805247HA072010000000010230549911A00000000     000000000                              
D20211001          34578                                   domiciliaciongocredit                   000000000070000TECJ700105KD1072010000000004436273431A00000000     000000000                              
D20211001          37451                                   domiciliaciongocredit                   000000000070000MEPG5502269H8072010000000001198959151A00000000     000000000                              
D20211001          34028                                   domiciliaciongocredit                   000000000070500BUMG550208786072010000000010039398211A00000000     000000000                              
D20211001          37445                                   domiciliaciongocredit                   000000000070500VAMS690826A62072010000000006844065921A00000000     000000000                              
D20211001          33931                                   domiciliaciongocredit                   000000000071500GAFT680628UZ1072010000000010979863291A00000000     000000000                              
D20211001          32705                                   domiciliaciongocredit                   000000000071800MAMR611129IVA072010000000010906134751A00000000     000000000                              
D20211001          32799                                   domiciliaciongocredit                   000000000072600HEDB560830EV9072010000000004846883561A00000000     000000000                              
D20211001          33603                                   domiciliaciongocredit                   000000000072900AURC540624AW1072010000000002508475721A00000000     000000000                              
D20211001          37197                                   domiciliaciongocredit                   000000000073200AUBJ450330QU2072010000000008728544951A00000000     000000000                              
D20211001          36572                                   domiciliaciongocredit                   000000000073400CAMV570115TN5072010000000004666952481A00000000     000000000                              
D20211001          37569                                   domiciliaciongocredit                   000000000074200AIGF460427C8A072010000000003133989241A00000000     000000000                              
D20211001          36746                                   domiciliaciongocredit                   000000000074400AAGE5402185U1072010000000002308884101A00000000     000000000                              
D20211001          33883                                   domiciliaciongocredit                   000000000074500MAMA490305FV9072010000000004925214301A00000000     000000000                              
D20211001          19897                                   domiciliaciongocredit                   000000000074500VIZA570305FM8072010000000002678646611A00000000     040000000                              
D20211001          34462                                   domiciliaciongocredit                   000000000075000MUEI560515LI4072010000000004361336591A00000000     040000000                              
D20211001          35095                                   domiciliaciongocredit                   000000000075000TOMM481020CL6072010000000006017631621A00000000     000000000                              
D20211001          35149                                   domiciliaciongocredit                   000000000075000ROSJ5609276Y6072010000000011376248081A00000000     000000000                              
D20211001          35385                                   domiciliaciongocredit                   000000000075000TACA500215QW8072010000000004355125101A00000000     000000000                              
D20211001          35829                                   domiciliaciongocredit                   000000000075000LICA560119HT7072010000000004486084771A00000000     000000000                              
D20211001          36577                                   domiciliaciongocredit                   000000000075000ZAGG490509LD1072010000000001774917731A00000000     000000000                              
D20211001          36816                                   domiciliaciongocredit                   000000000075000SOMN451012V52072010000000010271742081A00000000     040000000                              
D20211001          37983                                   domiciliaciongocredit                   000000000075000MOAF560519A99072010000000004424703281A00000000     000000000                              
D20211001          36912                                   domiciliaciongocredit                   000000000075000VESJ470424QA6072010000000006527619191A00000000     040000000                              
D20211001          33013                                   domiciliaciongocredit                   000000000075500ROME710910LH3072010000000008841309321A00000000     040000000                              
D20211001          36010                                   domiciliaciongocredit                   000000000076100BEOC580716IZ0072010000000010688836241A00000000     000000000                              
D20211001          20482                                   domiciliaciongocredit                   000000000076200MOGG5709245N2072010000000003629283561A00000000     040000000                              
D20211001          20722                                   domiciliaciongocredit                   000000000076200MEVC4903035F2072010000000002536961001A00000000     040000000                              
D20211001          36850                                   domiciliaciongocredit                   000000000076300MABA591201836072010000000011023849771A00000000     000000000                              
D20211001          33002                                   domiciliaciongocredit                   000000000076900OARA480626ET8072010000000006028260001A00000000     040000000                              
D20211001          28280                                   domiciliaciongocredit                   000000000077100IARD370605BW4072010000000005412819831A00000000     040000000                              
D20211001          34866                                   domiciliaciongocredit                   000000000077100CAOO530218587072010000000002024550791A00000000     040000000                              
D20211001          30292                                   domiciliaciongocredit                   000000000078900FOLG550324RU5072010000000002841733971A00000000     000000000                              
D20211001          33072                                   domiciliaciongocredit                   000000000079700SAMS600906DG0072010000000011287679361A00000000     000000000                              
D20211001          33591                                   domiciliaciongocredit                   000000000079700VECP690411HP5072010000000002824451201A00000000     000000000                              
D20211001          28763                                   domiciliaciongocredit                   000000000080200NOLJ401202E75072010000000001449737031A00000000     000000000                              
D20211001          36019                                   domiciliaciongocredit                   000000000080400TEGE4908033P8072010000000003632207491A00000000     040000000                              
D20211001          36638                                   domiciliaciongocredit                   000000000080400MOCC571108QA4072010000000005966570041A00000000     000000000                              
D20211001          34031                                   domiciliaciongocredit                   000000000080800OEPE5808309W4072010000000005191158661A00000000     040000000                              
D20211001          31794                                   domiciliaciongocredit                   000000000080900HISE531123LD0072010000000002109949391A00000000     000000000                              
D20211001          34991                                   domiciliaciongocredit                   000000000081100AERJ560824CM2072010000000010700776401A00000000     000000000                              
D20211001          16385                                   domiciliaciongocredit                   000000000081700ROPG530922Q18072010000000003641280751A00000000     000000000                              
D20211001          18123                                   domiciliaciongocredit                   000000000081700SOAA681227K86072010000000006297205161A00000000     040000000                              
D20211001          33948                                   domiciliaciongocredit                   000000000081700HEAA450715DZ5072010000000002021952181A00000000     040000000                              
D20211001          22970                                   domiciliaciongocredit                   000000000081700CAMD550326S32072010000000002831305441A00000000     040000000                              
D20211001          33046                                   domiciliaciongocredit                   000000000082200VIRE560310119072010000000010365327891A00000000     000000000                              
D20211001          32560                                   domiciliaciongocredit                   000000000082200BICC640807UW3072010000000001061623451A00000000     040000000                              
D20211001          37286                                   domiciliaciongocredit                   000000000082500DECC770716BH1072010000000011092301121A00000000     000000000                              
D20211001          27785                                   domiciliaciongocredit                   000000000082600SAAJ440623GAA072010000000002566807531A00000000     000000000                              
D20211001          28902                                   domiciliaciongocredit                   000000000082600AEAN420520RD7072010000000001448408231A00000000     040000000                              
D20211001          31854                                   domiciliaciongocredit                   000000000083100GAMG440110JY3072010000000005413183131A00000000     000000000                              
D20211001          30499                                   domiciliaciongocredit                   000000000083200CULF590822N48072010000000004038258711A00000000     000000000                              
D20211001          27578                                   domiciliaciongocredit                   000000000083900MAJJ5804059V7072010000000010280891581A00000000     000000000                              
D20211001          35170                                   domiciliaciongocredit                   000000000083900LOGR440621EJ5072010000000008658203801A00000000     040000000                              
D20211001          36689                                   domiciliaciongocredit                   000000000083900LIRG451209591072010000000005100822731A00000000     000000000                              
D20211001          34202                                   domiciliaciongocredit                   000000000083900SEMH5712262W5072010000000010804636711A00000000     000000000                              
D20211001          37532                                   domiciliaciongocredit                   000000000083900CAPF570722MX5072010000000011509930711A00000000     000000000                              
D20211001          34031                                   domiciliaciongocredit                   000000000083900OEPE5808309W4072010000000005191158661A00000000     040000000                              
D20211001          35216                                   domiciliaciongocredit                   000000000084400ROAC530924DI4072010000000002046705951A00000000     000000000                              
D20211001          36392                                   domiciliaciongocredit                   000000000084700PERO610306PH7072010000000010853045641A00000000     000000000                              
D20211001          36899                                   domiciliaciongocredit                   000000000084700TEPF460726A55072010000000011421067641A00000000     040000000                              
D20211001          38033                                   domiciliaciongocredit                   000000000084700IAOL571122F90072010000000005918149141A00000000     000000000                              
D20211001          36758                                   domiciliaciongocredit                   000000000084800SOMJ5412246D1072010000000006379011961A00000000     200000000                              
D20211001          36991                                   domiciliaciongocredit                   000000000085200PUGG630525Q51072010000000001061626991A00000000     040000000                              
D20211001          38049                                   domiciliaciongocredit                   000000000086300AARI570708NR7072010000000001198601641A00000000     000000000                              
D20211001          19423                                   domiciliaciongocredit                   000000000087100LELL501109IG5072010000000003253068651A00000000     040000000                              
D20211001          32817                                   domiciliaciongocredit                   000000000087400GANC6309101T1072010000000002507899711A00000000     040000000                              
D20211001          33435                                   domiciliaciongocredit                   000000000088100MIMJ590528SN9072010000000004709844441A00000000     000000000                              
D20211001          35403                                   domiciliaciongocredit                   000000000088900RORE7308301U4072010000000001922415151A00000000     040000000                              
D20211001          36214                                   domiciliaciongocredit                   000000000089300VASC530202R82072010000000008664341041A00000000     040000000                              
D20211001          36609                                   domiciliaciongocredit                   000000000089300RUBF5311033NA072010000000002561395321A00000000     000000000                              
D20211001          37039                                   domiciliaciongocredit                   000000000090000RUSS5908217T1072010000000010867871641A00000000     000000000                              
D20211001          35113                                   domiciliaciongocredit                   000000000090000SEVG571105GJA072010000000011315097981A00000000     000000000                              
D20211001          34158                                   domiciliaciongocredit                   000000000090000BAMR6501125D7072010000000001086357971A00000000     040000000                              
D20211001          38166                                   domiciliaciongocredit                   000000000090800DIML510113NK1072010000000004638982261A00000000     000000000                              
D20211001          30467                                   domiciliaciongocredit                   000000000090900AURL490318GH0072010000000004958370111A00000000     040000000                              
D20211001          34413                                   domiciliaciongocredit                   000000000091100NULL600124TV1072010000000002777319221A00000000     000000000                              
D20211001          29991                                   domiciliaciongocredit                   000000000091200CAAD570804V39072010000000003340755291A00000000     000000000                              
D20211001          32923                                   domiciliaciongocredit                   000000000091700MARR520412UYA072010000000005400598101A00000000     000000000                              
D20211001          25888                                   domiciliaciongocredit                   000000000092100RAGP4002232P8072010000000001773147881A00000000     040000000                              
D20211001          34824                                   domiciliaciongocredit                   000000000092100HIRA4908318Y8072010000000006801148711A00000000     040000000                              
D20211001          35215                                   domiciliaciongocredit                   000000000092100CALA660710MT9072010000000010266608891A00000000     040000000                              
D20211001          27477                                   domiciliaciongocredit                   000000000092500DULJ391112GJ4072010000000004295647351A00000000     040000000                              
D20211001          32123                                   domiciliaciongocredit                   000000000092500SADA570215P1A072010000000010779898631A00000000     000000000                              
D20211001          34385                                   domiciliaciongocredit                   000000000092500LAMR630422AD9072010000000005402790981A00000000     040000000                              
D20211001          35576                                   domiciliaciongocredit                   000000000092500MOCM550212K2A072010000000002775388131A00000000     000000000                              
D20211001          36909                                   domiciliaciongocredit                   000000000092500RUII5608309G2072010000000004711268121A00000000     000000000                              
D20211001          37564                                   domiciliaciongocredit                   000000000093800ROGR490824724072010000000006850628011A00000000     000000000                              
D20211001          32876                                   domiciliaciongocredit                   000000000094200CESF531103GZ5072010000000002261226491A00000000     000000000                              
D20211001          29602                                   domiciliaciongocredit                   000000000094800PAGJ421208UDA072010000000001767208781A00000000     000000000                              
D20211001          37178                                   domiciliaciongocredit                   000000000094800AUBJ450330QU2072010000000008728544951A00000000     000000000                              
D20211001          22948                                   domiciliaciongocredit                   000000000095300DIBB460109NR2072010000000005570040921A00000000     040000000                              
D20211001          25929                                   domiciliaciongocredit                   000000000095300SALJ5512233L5072010000000004217129841A00000000     040000000                              
D20211001          32216                                   domiciliaciongocredit                   000000000095300IUCM711216M36072010000000004091914931A00000000     040000000                              
D20211001          32349                                   domiciliaciongocredit                   000000000095300VEJI510216JV0072010000000006978413351A00000000     000000000                              
D20211001          32549                                   domiciliaciongocredit                   000000000095300CAGX630115A47072010000000001074950221A00000000     040000000                              
D20211001          33308                                   domiciliaciongocredit                   000000000095300AUBJ450330QU2072010000000008728544951A00000000     000000000                              
D20211001          33890                                   domiciliaciongocredit                   000000000095300HEVA5607191W3072010000000004517123831A00000000     040000000                              
D20211001          37212                                   domiciliaciongocredit                   000000000095300BAQM580203DEA072010000000005280777331A00000000     000000000                              
D20211001          22970                                   domiciliaciongocredit                   000000000095300CAMD550326S32072010000000002831305441A00000000     040000000                              
D20211001          34811                                   domiciliaciongocredit                   000000000095300LEMM480520DM7072010000000006795057451A00000000     000000000                              
D20211001          34635                                   domiciliaciongocredit                   000000000017700PAHR541214NX9072010000000011276910891A00000000     040000000                              
D20211001          34837                                   domiciliaciongocredit                   000000000017700TELJ531216292072010000000002278245481A00000000     000000000                              
D20211001          26507                                   domiciliaciongocredit                   000000000018000CACC560329IR8072010000000004703255881A00000000     000000000                              
D20211001          36702                                   domiciliaciongocredit                   000000000018200TOGG520324M96072010000000005966361661A00000000     040000000                              
D20211001          32629                                   domiciliaciongocredit                   000000000018900ROLA590320N52072010000000010745905491A00000000     000000000                              
D20211001          20303                                   domiciliaciongocredit                   000000000019100MEME540203U98072010000000002219448281A00000000     040000000                              
D20211001          21187                                   domiciliaciongocredit                   000000000019100EURD520804889072010000000004503688221A00000000     000000000                              
D20211001          31517                                   domiciliaciongocredit                   000000000019100MASL4904112V9072010000000002055570861A00000000     040000000                              
D20211001          34876                                   domiciliaciongocredit                   000000000019100RASS430107QC6072010000000006320991461A00000000     000000000                              
D20211001          29028                                   domiciliaciongocredit                   000000000019100CALH440808M19072010000000001922359431A00000000     040000000                              
D20211001          34324                                   domiciliaciongocredit                   000000000019300GUCJ620626E3A072010000000008406138421A00000000     000000000                              
D20211001          32503                                   domiciliaciongocredit                   000000000019500AOYT680823PB5072010000000004378532621A00000000     040000000                              
D20211001          35222                                   domiciliaciongocredit                   000000000019600EOTG591212U74072010000000011040297861A00000000     000000000                              
D20211001          36481                                   domiciliaciongocredit                   000000000019600CACX551130I76072010000000004420973051A00000000     000000000                              
D20211001          37367                                   domiciliaciongocredit                   000000000019800AAMF5111066I6072010000000002253799781A00000000     000000000                              
D20211001          29976                                   domiciliaciongocredit                   000000000019900OACR511125IA7072010000000008109858871A00000000     000000000                              
D20211001          36801                                   domiciliaciongocredit                   000000000019900SIJP660429JI4072010000000005407011211A00000000     040000000                              
D20211001          21156                                   domiciliaciongocredit                   000000000020100PIEA81052777A072010000000010917324121A00000000     000000000                              
D20211001          33628                                   domiciliaciongocredit                   000000000020100RORS5912244D1072010000000004724054111A00000000     040000000                              
D20211001          32801                                   domiciliaciongocredit                   000000000020400AAGR510830I47072010000000008007488961A00000000     000000000                              
D20211001          29069                                   domiciliaciongocredit                   000000000020500GOME5702206N1072010000000003238732971A00000000     040000000                              
D20211001          30856                                   domiciliaciongocredit                   000000000020500IIPA5305152G3072010000000004759931151A00000000     000000000                              
D20211001          32577                                   domiciliaciongocredit                   000000000020500MEQA601229IH9072010000000006235942561A00000000     000000000                              
D20211001          34928                                   domiciliaciongocredit                   000000000020600HEAC540216EA4072010000000002195669001A00000000     040000000                              
D20211001          34983                                   domiciliaciongocredit                   000000000020800VAGE460117HB8072010000000001449947081A00000000     000000000                              
D20211001          33512                                   domiciliaciongocredit                   000000000020900MABF5807072FA072010000000008817769551A00000000     000000000                              
D20211001          33412                                   domiciliaciongocredit                   000000000021000ZAOA541016MV4072010000000004031812871A00000000     000000000                              
D20211001          29011                                   domiciliaciongocredit                   000000000021500RICP631209CC1072010000000004720444721A00000000     000000000                              
D20211001          31654                                   domiciliaciongocredit                   000000000021500FEAM7311299A5072010000000004920776651A00000000     000000000                              
D20211001          29121                                   domiciliaciongocredit                   000000000021800MORG750206TE9072010000000005459026631A00000000     040000000                              
D20211001          29028                                   domiciliaciongocredit                   000000000021800CALH440808M19072010000000001922359431A00000000     040000000                              
D20211001          27646                                   domiciliaciongocredit                   000000000021900ROMC710517H50072010000000006632073561A00000000     000000000                              
D20211001          27646                                   domiciliaciongocredit                   000000000021900ROMC710517H50072010000000006632073561A00000000     000000000                              
D20211001          36586                                   domiciliaciongocredit                   000000000022000HAMR430805UEA072010000000001880821681A00000000     040000000                              
D20211001          33114                                   domiciliaciongocredit                   000000000022300PEBM530322UB0072010000000002063923871A00000000     040000000                              
D20211001          36944                                   domiciliaciongocredit                   000000000022500COHA510601U73072010000000011146991241A00000000     040000000                              
D20211001          35006                                   domiciliaciongocredit                   000000000022500CELC560118TF4072010000000004271119811A00000000     000000000                              
D20211001          35203                                   domiciliaciongocredit                   000000000022500FABG541212BK3072010000000010333904831A00000000     000000000                              
D20211001          36115                                   domiciliaciongocredit                   000000000022500MAMG481021DL2072010000000002987212181A00000000     040000000                              
D20211001          20888                                   domiciliaciongocredit                   000000000023200FARN570421JG8072010000000003148411461A00000000     040000000                              
D20211001          32744                                   domiciliaciongocredit                   000000000023200GODJ500217LE1072010000000008359512871A00000000     000000000                              
D20211001          33298                                   domiciliaciongocredit                   000000000023200GOMV530714FY3072010000000008923236901A00000000     040000000                              
D20211001          34146                                   domiciliaciongocredit                   000000000023200VESA7412046V6072010000000008494546731A00000000     040000000                              
D20211001          26908                                   domiciliaciongocredit                   000000000023900FOLM481224D62072010000000006152370351A00000000     040000000                              
D20211001          32482                                   domiciliaciongocredit                   000000000024000HEAC540216EA4072010000000002195669001A00000000     040000000                              
D20211001          36801                                   domiciliaciongocredit                   000000000024100SIJP660429JI4072010000000005407011211A00000000     040000000                              
D20211001          22622                                   domiciliaciongocredit                   000000000024500RUQR510120CV3072010000000006306675501A00000000     040000000                              
D20211001          35589                                   domiciliaciongocredit                   000000000024500AARO490625K46072010000000006273977181A00000000     040000000                              
D20211001          32705                                   domiciliaciongocredit                   000000000024500MAMR611129IVA072010000000010906134751A00000000     000000000                              
D20211001          36912                                   domiciliaciongocredit                   000000000025500VESJ470424QA6072010000000006527619191A00000000     040000000                              
D20211001          34974                                   domiciliaciongocredit                   000000000025700LUJG510917GLA072010000000008228957561A00000000     000000000                              
D20211001          34638                                   domiciliaciongocredit                   000000000025800GAGM470722MP7072010000000004353560041A00000000     000000000                              
D20211001          33339                                   domiciliaciongocredit                   000000000025900ROCP530418IZ8072010000000008822881651A00000000     040000000                              
D20211001          26908                                   domiciliaciongocredit                   000000000025900FOLM481224D62072010000000006152370351A00000000     040000000                              
D20211001          33929                                   domiciliaciongocredit                   000000000026200MIBF510812446072010000000004489866341A00000000     040000000                              
D20211001          30861                                   domiciliaciongocredit                   000000000026500SOEU550614JQ3072010000000011297415131A00000000     040000000                              
D20211001          31263                                   domiciliaciongocredit                   000000000026500MORA640305K77072010000000010396191131A00000000     000000000                              
D20211001          30646                                   domiciliaciongocredit                   000000000026800MEAM710602V49072010000000003610840311A00000000     000000000                              
D20211001          32581                                   domiciliaciongocredit                   000000000027000BARE500124U50072010000000006609922951A00000000     040000000                              
D20211001          33818                                   domiciliaciongocredit                   000000000027000LOPL570819GH1072010000000002511379441A00000000     040000000                              
D20211001          20806                                   domiciliaciongocredit                   000000000027300HEMS550627874072010000000004901150861A00000000     040000000                              
D20211001          29241                                   domiciliaciongocredit                   000000000027300RIRA601116ST1072010000000001902338421A00000000     040000000                              
D20211001          29275                                   domiciliaciongocredit                   000000000027300BASM530403PS2072010000000008924425551A00000000     000000000                              
D20211001          29491                                   domiciliaciongocredit                   000000000027300CAML450214KK9072010000000005674552001A00000000     040000000                              
D20211001          29538                                   domiciliaciongocredit                   000000000027300CAAE5706222Q7072010000000003540008551A00000000     000000000                              
D20211001          29751                                   domiciliaciongocredit                   000000000027300MOCE500303PG2072010000000001767197421A00000000     040000000                              
D20211001          29818                                   domiciliaciongocredit                   000000000027300VAMR551024P43072010000000004424835511A00000000     000000000                              
D20211001          30197                                   domiciliaciongocredit                   000000000027300BASM530403PS2072010000000008924425551A00000000     000000000                              
D20211001          33767                                   domiciliaciongocredit                   000000000027300MEPI550522BM3072010000000003132831961A00000000     000000000                              
D20211001          34706                                   domiciliaciongocredit                   000000000027300BASM530403PS2072010000000008924425551A00000000     000000000                              
D20211001          34894                                   domiciliaciongocredit                   000000000027300VAGH480114NF3072010000000008237074541A00000000     040000000                              
D20211001          35143                                   domiciliaciongocredit                   000000000027300SACL5508253L3072010000000008357080611A00000000     000000000                              
D20211001          36333                                   domiciliaciongocredit                   000000000027300SIMR650221UT9072010000000002044132971A00000000     000000000                              
D20211001          19239                                   domiciliaciongocredit                   000000000027800AUDF6901133F7072010000000004260229321A00000000     040000000                              
D20211001          33668                                   domiciliaciongocredit                   000000000028000AAMR540804X32072010000000002511766991A00000000     000000000                              
D20211001          34858                                   domiciliaciongocredit                   000000000028000AAMR540804X32072010000000002511766991A00000000     000000000                              
D20211001          30369                                   domiciliaciongocredit                   000000000028400LACV360826JM8072010000000011414397821A00000000     040000000                              
D20211001          30844                                   domiciliaciongocredit                   000000000028500BIGC500805IDA072010000000008194022481A00000000     040000000                              
D20211001          27819                                   domiciliaciongocredit                   000000000028600SAFV550122S77072010000000002976944811A00000000     040000000                              
D20211001          35021                                   domiciliaciongocredit                   000000000028600CELC560118TF4072010000000004271119811A00000000     000000000                              
D20211001          35102                                   domiciliaciongocredit                   000000000028700OIHR5502077Y8072010000000004182235011A00000000     040000000                              
D20211001          34836                                   domiciliaciongocredit                   000000000028800AIPC541105457072010000000002609886701A00000000     040000000                              
D20211001          19883                                   domiciliaciongocredit                   000000000029100MECJ480423274072010000000004875039821A00000000     040000000                              
D20211001          19946                                   domiciliaciongocredit                   000000000029100BAAA480902K33072010000000004512234051A00000000     040000000                              
D20211001          19897                                   domiciliaciongocredit                   000000000029100VIZA570305FM8072010000000002678646611A00000000     040000000                              
D20211001          31582                                   domiciliaciongocredit                   000000000029200HESI741116KL6072010000000002886117301A00000000     000000000                              
D20211001          27646                                   domiciliaciongocredit                   000000000029200ROMC710517H50072010000000006632073561A00000000     000000000                              
D20211001          35233                                   domiciliaciongocredit                   000000000029400TOTJ710709IB6072010000000011219175901A00000000     000000000                              
D20211001          37921                                   domiciliaciongocredit                   000000000029400LOPA640125LA2072010000000009644563801A00000000     040000000                              
D20211001          35394                                   domiciliaciongocredit                   000000000029400PEHG511212LD7072010000000008144786041A00000000     040000000                              
D20211001          30604                                   domiciliaciongocredit                   000000000029800MASM540216A31072010000000002353358341A00000000     040000000                              
D20211001          35524                                   domiciliaciongocredit                   000000000030000DOMA450925HL3072010000000010266972141A00000000     000000000                              
D20211001          37690                                   domiciliaciongocredit                   000000000030000CUCE600704S96072010000000011240249761A00000000     000000000                              
D20211001          27815                                   domiciliaciongocredit                   000000000030000TAGC521006M8A072010000000008747654291A00000000     000000000                              
D20211001          29450                                   domiciliaciongocredit                   000000000030000BAMC490117UD0072010000000005415037491A00000000     040000000                              
D20211001          34269                                   domiciliaciongocredit                   000000000030000MOOE471201AGA072010000000003109005311A00000000     000000000                              
D20211001          34549                                   domiciliaciongocredit                   000000000030000AAVJ530108MZ8072010000000008884225691A00000000     000000000                              
D20211001          37334                                   domiciliaciongocredit                   000000000030000OIIE540930K8A072010000000001785996671A00000000     000000000                              
D20211001          32547                                   domiciliaciongocredit                   000000000030000GOSE4805247HA072010000000010230549911A00000000     000000000                              
D20211001          35113                                   domiciliaciongocredit                   000000000030000SEVG571105GJA072010000000011315097981A00000000     000000000                              
D20211001          32547                                   domiciliaciongocredit                   000000000030000GOSE4805247HA072010000000010230549911A00000000     000000000                              
D20211001          34028                                   domiciliaciongocredit                   000000000030200BUMG550208786072010000000010039398211A00000000     000000000                              
D20211001          32705                                   domiciliaciongocredit                   000000000030800MAMR611129IVA072010000000010906134751A00000000     000000000                              
D20211001          31206                                   domiciliaciongocredit                   000000000030900VIAM471017HQ0072010000000008738938391A00000000     040000000                              
D20211001          30369                                   domiciliaciongocredit                   000000000030900LACV360826JM8072010000000011414397821A00000000     040000000                              
D20211001          33603                                   domiciliaciongocredit                   000000000031300AURC540624AW1072010000000002508475721A00000000     000000000                              
D20211001          37197                                   domiciliaciongocredit                   000000000031400AUBJ450330QU2072010000000008728544951A00000000     000000000                              
D20211001          36572                                   domiciliaciongocredit                   000000000031500CAMV570115TN5072010000000004666952481A00000000     000000000                              
D20211001          36018                                   domiciliaciongocredit                   000000000031600MURV550104N87072010000000004858173681A00000000     040000000                              
D20211001          21127                                   domiciliaciongocredit                   000000000031800HEML4812174C5072010000000002802613261A00000000     000000000                              
D20211001          19897                                   domiciliaciongocredit                   000000000031900VIZA570305FM8072010000000002678646611A00000000     040000000                              
D20211001          34462                                   domiciliaciongocredit                   000000000032200MUEI560515LI4072010000000004361336591A00000000     040000000                              
D20211001          35095                                   domiciliaciongocredit                   000000000032200TOMM481020CL6072010000000006017631621A00000000     000000000                              
D20211001          35149                                   domiciliaciongocredit                   000000000032200ROSJ5609276Y6072010000000011376248081A00000000     000000000                              
D20211001          35385                                   domiciliaciongocredit                   000000000032200TACA500215QW8072010000000004355125101A00000000     000000000                              
D20211001          35829                                   domiciliaciongocredit                   000000000032200LICA560119HT7072010000000004486084771A00000000     000000000                              
D20211001          36577                                   domiciliaciongocredit                   000000000032200ZAGG490509LD1072010000000001774917731A00000000     000000000                              
D20211001          36816                                   domiciliaciongocredit                   000000000032200SOMN451012V52072010000000010271742081A00000000     040000000                              
D20211001          37983                                   domiciliaciongocredit                   000000000032200MOAF560519A99072010000000004424703281A00000000     000000000                              
D20211001          36912                                   domiciliaciongocredit                   000000000032200VESJ470424QA6072010000000006527619191A00000000     040000000                              
D20211001          36010                                   domiciliaciongocredit                   000000000032600BEOC580716IZ0072010000000010688836241A00000000     000000000                              
D20211001          35618                                   domiciliaciongocredit                   000000000032700LEFI4908286BA072010000000004277631111A00000000     000000000                              
D20211001          37239                                   domiciliaciongocredit                   000000000032700RAOL4909308E1072010000000010193232341A00000000     040000000                              
D20211001          20482                                   domiciliaciongocredit                   000000000032700MOGG5709245N2072010000000003629283561A00000000     040000000                              
D20211001          20722                                   domiciliaciongocredit                   000000000032700MEVC4903035F2072010000000002536961001A00000000     040000000                              
D20211001          33002                                   domiciliaciongocredit                   000000000033000OARA480626ET8072010000000006028260001A00000000     040000000                              
D20211001          28280                                   domiciliaciongocredit                   000000000033100IARD370605BW4072010000000005412819831A00000000     040000000                              
D20211001          34866                                   domiciliaciongocredit                   000000000033100CAOO530218587072010000000002024550791A00000000     040000000                              
D20211001          33072                                   domiciliaciongocredit                   000000000034200SAMS600906DG0072010000000011287679361A00000000     000000000                              
D20211001          33591                                   domiciliaciongocredit                   000000000034200VECP690411HP5072010000000002824451201A00000000     000000000                              
D20211001          22970                                   domiciliaciongocredit                   000000000095300CAMD550326S32072010000000002831305441A00000000     040000000                              
D20211001          29783                                   domiciliaciongocredit                   000000000095400PIGM561124LL1072010000000004919448451A00000000     000000000                              
D20211001          36981                                   domiciliaciongocredit                   000000000095700GASG500228C47072010000000004301480621A00000000     000000000                              
D20211001          33163                                   domiciliaciongocredit                   000000000096200TIAA441019BZ8072010000000002387308051A00000000     040000000                              
D20211001          34231                                   domiciliaciongocredit                   000000000096500REGE540805IJ9072010000000002800223301A00000000     000000000                              
D20211001          36057                                   domiciliaciongocredit                   000000000097500LARG5701207D9072010000000004981195031A00000000     000000000                              
D20211001          36204                                   domiciliaciongocredit                   000000000097500CAME430209TV4072010000000001773086661A00000000     000000000                              
D20211001          25800                                   domiciliaciongocredit                   000000000097900ROME460315NB1072010000000005647079171A00000000     040000000                              
D20211001          34461                                   domiciliaciongocredit                   000000000097900RUGH690414VC2072010000000004950834981A00000000     000000000                              
D20211001          35802                                   domiciliaciongocredit                   000000000097900MAZA4801173B6072010000000001451246231A00000000     000000000                              
D20211001          36996                                   domiciliaciongocredit                   000000000097900RUII5608309G2072010000000004711268121A00000000     000000000                              
D20211001          37291                                   domiciliaciongocredit                   000000000097900FISE591211S76072010000000002128883861A00000000     000000000                              
D20211001          34068                                   domiciliaciongocredit                   000000000097900VEME691023CH8072010000000008672446901A00000000     040000000                              
D20211001          32523                                   domiciliaciongocredit                   000000000098200SAGR420428ST3072010000000004600688041A00000000     040000000                              
D20211001          30287                                   domiciliaciongocredit                   000000000098400MAGS600310SF1072010000000001451436241A00000000     040000000                              
D20211001          28405                                   domiciliaciongocredit                   000000000098500BILJ3907052WA072010000000008566415381A00000000     000000000                              
D20211001          36159                                   domiciliaciongocredit                   000000000098700MORJ5603195YA072010000000003649693621A00000000     000000000                              
D20211001          35240                                   domiciliaciongocredit                   000000000098700VAAP590225IK7072010000000010771028591A00000000     000000000                              
D20211001          32942                                   domiciliaciongocredit                   000000000098900VAHJ530423987072010000000010024791241A00000000     000000000                              
D20211001          36758                                   domiciliaciongocredit                   000000000098900SOMJ5412246D1072010000000006379011961A00000000     200000000                              
D20211001          36758                                   domiciliaciongocredit                   000000000098900SOMJ5412246D1072010000000006379011961A00000000     200000000                              
D20211001          30855                                   domiciliaciongocredit                   000000000100700RUGN621119IT6072010000000003616034691A00000000     000000000                              
D20211001          35762                                   domiciliaciongocredit                   000000000100900LAMM5805154T9072010000000010955174931A00000000     040000000                              
D20211001          36355                                   domiciliaciongocredit                   000000000101300VASG701211PA6072010000000006147282281A00000000     040000000                              
D20211001          36746                                   domiciliaciongocredit                   000000000102100AAGE5402185U1072010000000002308884101A00000000     000000000                              
D20211001          34051                                   domiciliaciongocredit                   000000000103800ROGL560319M24072010000000004579730471A00000000     000000000                              
