01000000130002S21800001202108180100                         MONTO FACIL SAPI DE CV SOFOM ENR        MFA110429MT9                                                                                                                                                                                            00014445547801                                                                                      
020000002310100000000026788520210818                        51202108180024000002180026042303683ZUÅIGA GOMEZ RICARDO                    30165                                   ZUÅIGA GOMEZ RICARDO                    0000000000000000518614DOMICILIACION GOCREDIT                  04                     000000000002021081801                                                                               
020000003310100000000005677020210818                        51202108180024000002813904049757139MATA FUENTES FRANCISCO                  30370                                   MATA FUENTES FRANCISCO                  0000000000000000518616DOMICILIACION GOCREDIT                  04                     000000000002021081801                                                                               
020000004310100000000008939520210818                        51202108180024000002180069052052088ROJAS ORTEGA FERNANDO                   30452                                   ROJAS ORTEGA FERNANDO                   0000000000000000518618DOMICILIACION GOCREDIT                  04                     000000000002021081801                                                                               
020000005310100000000002118620210818                        51202108180024000002813903837982049CASTRO CASTILLO CESAR ARTURO            30905                                   CASTRO CASTILLO CESAR ARTURO            0000000000000000518620DOMICILIACION GOCREDIT                  04                     000000000002021081801                                                                               
020000006310100000000011296220210818                        51202108180024000002180701120917326PANCARDO CEBALLOS ARTURO FERNANDO       32686                                   PANCARDO CEBALLOS ARTURO FERNANDO       0000000000000000518622DOMICILIACION GOCREDIT                  04                     000000000002021081801                                                                               
020000007310100000000011296220210818                        51202108180024000002813904167716256MELENDEZ CUEVAS JOSE GERARDO            32844                                   MELENDEZ CUEVAS JOSE GERARDO            0000000000000000518624DOMICILIACION GOCREDIT                  04                     000000000002021081801                                                                               
020000008310100000000011296220210818                        51202108180024000002180903901668333ZARAGOZA BOBADILLA ROBERTO              32868                                   ZARAGOZA BOBADILLA ROBERTO              0000000000000000518626DOMICILIACION GOCREDIT                  04                     000000000002021081801                                                                               
020000009310100000000011296220210818                        51202108180024000002813902481290764LUGO MELENDEZ VICENTE ANTONIO           32989                                   LUGO MELENDEZ VICENTE ANTONIO           0000000000000000518628DOMICILIACION GOCREDIT                  04                     000000000002021081801                                                                               
020000010310100000000001506220210818                        51202108180024000002813903973025543NAVARRO VILLAFUERTE JUAN MANUEL         33134                                   NAVARRO VILLAFUERTE JUAN MANUEL         0000000000000000518630DOMICILIACION GOCREDIT                  04                     000000000002021081801                                                                               
020000011310100000000004330220210818                        51202108180024000002813903577929074GONZALEZ MARTINEZ LAURA ESTHER          33231                                   GONZALEZ MARTINEZ LAURA ESTHER          0000000000000000518632DOMICILIACION GOCREDIT                  04                     000000000002021081801                                                                               
020000012310100000000011296220210818                        51202108180024000002180903653522154DURAN NAVARRO MARIA GUADALUPE           33310                                   DURAN NAVARRO MARIA GUADALUPE           0000000000000000518634DOMICILIACION GOCREDIT                  04                     000000000002021081801                                                                               
020000013310100000000006024720210818                        51202108180024000002813902589884179MANDUJANO RAMOS GILBERTO                33510                                   MANDUJANO RAMOS GILBERTO                0000000000000000518636DOMICILIACION GOCREDIT                  04                     000000000002021081801                                                                               
020000014310100000000002089820210818                        51202108180024000002180900731550520CHAVEZ BUSTAMANTE MARIA TERESA          33563                                   CHAVEZ BUSTAMANTE MARIA TERESA          0000000000000000518638DOMICILIACION GOCREDIT                  04                     000000000002021081801                                                                               
020000015310100000000002259320210818                        51202108180024000002580903699139554VILLASANA GUERRERO JACINTO              33566                                   VILLASANA GUERRERO JACINTO              0000000000000000518640DOMICILIACION GOCREDIT                  04                     000000000002021081801                                                                               
020000016310100000000004518520210818                        51202108180024000002813902666750375SANCHEZ BARUCH MIGUEL ANGEL             33775                                   SANCHEZ BARUCH MIGUEL ANGEL             0000000000000000518642DOMICILIACION GOCREDIT                  04                     000000000002021081801                                                                               
020000017310100000000007530920210818                        51202108180024000002580904459913249HERNANDEZ MEDINA MARTHA ALICIA          33844                                   HERNANDEZ MEDINA MARTHA ALICIA          0000000000000000518644DOMICILIACION GOCREDIT                  04                     000000000002021081801                                                                               
020000018310100000000003483020210818                        51202108180024000002580903529993682FLORES CORONADO ROBERTO                 33872                                   FLORES CORONADO ROBERTO                 0000000000000000518646DOMICILIACION GOCREDIT                  04                     000000000002021081801                                                                               
020000019310100000000010449020210818                        51202108180024000002040903721061739ABAROA PRECIADO ARTURO                  34169                                   ABAROA PRECIADO ARTURO                  0000000000000000518648DOMICILIACION GOCREDIT                  04                     000000000002021081801                                                                               
020000020310100000000005648120210818                        51202108180024000002813902865151681CASTILLO PEREZ JOSE ERASMO              34622                                   CASTILLO PEREZ JOSE ERASMO              0000000000000000518650DOMICILIACION GOCREDIT                  04                     000000000002021081801                                                                               
020000021300100000000014064020210818                        51202108180024000002052901212276214CASTILLA FREGOSO GESAHUR                35380                                   CASTILLA FREGOSO GESAHUR                0000000000000000518652DOMICILIACION GOCREDIT                  00                     000000000002021081801                                                                               
020000022310100000000013417320210818                        51202108180024000002580903636986537ESQUIBEL ARGUELLO GREGORIO              35405                                   ESQUIBEL ARGUELLO GREGORIO              0000000000000000518654DOMICILIACION GOCREDIT                  04                     000000000002021081801                                                                               
020000023310100000000005983520210818                        51202108180024000002813902691971284DURAN LLANAS RENE                       35629                                   DURAN LLANAS RENE                       0000000000000000518656DOMICILIACION GOCREDIT                  04                     000000000002021081801                                                                               
020000024310100000000003317520210818                        51202108180024000002813902072784582RESENDIZ CHAVEZ CARLOS                  35667                                   RESENDIZ CHAVEZ CARLOS                  0000000000000000518658DOMICILIACION GOCREDIT                  04                     000000000002021081801                                                                               
020000025310100000000010449020210818                        51202108180024000002022902915425139VARGAS PINZON RUBEN                     35820                                   VARGAS PINZON RUBEN                     0000000000000000518660DOMICILIACION GOCREDIT                  04                     000000000002021081801                                                                               
020000026310100000000010100720210818                        51202108180024000002813425600166677GUTIERREZ REYES DIMAS ANTONIO           36112                                   GUTIERREZ REYES DIMAS ANTONIO           0000000000000000518662DOMICILIACION GOCREDIT                  04                     000000000002021081801                                                                               
020000027310100000000008257720210818                        51202108180024000002040903630158319JORDAN MARTINEZ PAZ GUADALUPE           36345                                   JORDAN MARTINEZ PAZ GUADALUPE           0000000000000000518664DOMICILIACION GOCREDIT                  04                     000000000002021081801                                                                               
020000028310100000000014536720210818                        51202108180024000002813904088026355LOPEZ MARROQUIN ARMINDA                 36523                                   LOPEZ MARROQUIN ARMINDA                 0000000000000000518666DOMICILIACION GOCREDIT                  04                     000000000002021081801                                                                               
020000029310100000000009691120210818                        51202108180024000002813902773608019CRUZ HERNANDEZ LIDIO                    36594                                   CRUZ HERNANDEZ LIDIO                    0000000000000000518668DOMICILIACION GOCREDIT                  04                     000000000002021081801                                                                               
020000030310100000000005224520210818                        51202108180024000002813701264647447VEGA CASTRO DAVID                       36619                                   VEGA CASTRO DAVID                       0000000000000000518670DOMICILIACION GOCREDIT                  04                     000000000002021081801                                                                               
020000031310100000000011842220210818                        51202108180024000002052903473722330MENDEZ  JUAN HUMBERTO                   36663                                   MENDEZ  JUAN HUMBERTO                   0000000000000000518672DOMICILIACION GOCREDIT                  04                     000000000002021081801                                                                               
020000032300100000000006269520210818                        51202108180024000002052900728386796RODRIGUEZ CLATZA JOSUE                  36795                                   RODRIGUEZ CLATZA JOSUE                  0000000000000000518674DOMICILIACION GOCREDIT                  00                     000000000002021081801                                                                               
020000033310100000000005473520210818                        51202108180024000002813902740693594ROSALES HERNANDEZ FLORENCIO             36874                                   ROSALES HERNANDEZ FLORENCIO             0000000000000000518676DOMICILIACION GOCREDIT                  04                     000000000002021081801                                                                               
020000034310100000000009483620210818                        51202108180024000002233904597236915MENDOZA ROMERO MARGARITA                36951                                   MENDOZA ROMERO MARGARITA                0000000000000000518678DOMICILIACION GOCREDIT                  04                     000000000002021081801                                                                               
020000035300100000000015325220210818                        51202108180024000002052902751326828MARTINEZ ORDUÅA JORGE                   37038                                   MARTINEZ ORDUÅA JORGE                   0000000000000000518680DOMICILIACION GOCREDIT                  00                     000000000002021081801                                                                               
020000036310100000000005224520210818                        51202108180024000002813902666750375SANCHEZ BARUCH MIGUEL ANGEL             37358                                   SANCHEZ BARUCH MIGUEL ANGEL             0000000000000000518682DOMICILIACION GOCREDIT                  04                     000000000002021081801                                                                               
020000037300100000000006193320210818                        51202108180024000002580902921864190RODRIGUEZ VELAZQUEZ BEATRIZ             37362                                   RODRIGUEZ VELAZQUEZ BEATRIZ             0000000000000000518684DOMICILIACION GOCREDIT                  00                     000000000002021081801                                                                               
020000038310100000000017415020210818                        51202108180024000002813904139262453GARCIA RESENDIZ ROSA MARIA              37386                                   GARCIA RESENDIZ ROSA MARIA              0000000000000000518686DOMICILIACION GOCREDIT                  04                     000000000002021081801                                                                               
020000039310100000000004876120210818                        51202108180024000002811902506012463DIAZ LOREDO GABRIEL                     30437                                   DIAZ LOREDO GABRIEL                     0000000000000000518688DOMICILIACION GOCREDIT                  04                     000000000002021081801                                                                               
020000040310100000000011296220210818                        51202108180024000002813903621348459GARCIA RODRIGUEZ JUAN JOSE              32811                                   GARCIA RODRIGUEZ JUAN JOSE              0000000000000000518690DOMICILIACION GOCREDIT                  04                     000000000002021081801                                                                               
020000041310100000000006966020210818                        51202108180024000002813903621348459GARCIA RODRIGUEZ JUAN JOSE              37060                                   GARCIA RODRIGUEZ JUAN JOSE              0000000000000000518692DOMICILIACION GOCREDIT                  04                     000000000002021081801                                                                               
020000042310100000000004876120210818                        51202108180024000002811902506012463DIAZ LOREDO GABRIEL                     30393                                   DIAZ LOREDO GABRIEL                     0000000000000000518694DOMICILIACION GOCREDIT                  04                     000000000002021081801                                                                               
020000043310100000000003200720210818                        51202108180024000002813902686652767ZAVALA DELGADO FRANCISCO JAVIER         35042                                   ZAVALA DELGADO FRANCISCO JAVIER         0000000000000000518696DOMICILIACION GOCREDIT                  04                     000000000002021081801                                                                               
020000044310100000000003200720210818                        51202108180024000002811902755223168TURRUBIATES CARRIZALES ALEJANDRO        32408                                   TURRUBIATES CARRIZALES ALEJANDRO        0000000000000000518698DOMICILIACION GOCREDIT                  04                     000000000002021081801                                                                               
020000045310100000000006501420210818                        51202108180024000002813902517488796MALDONADO CABELLO JOSE LUIS             30709                                   MALDONADO CABELLO JOSE LUIS             0000000000000000518700DOMICILIACION GOCREDIT                  04                     000000000002021081801                                                                               
020000046310100000000007530920210818                        51202108180024000002813902567551136HERNANDEZ REYNA LEOPOLDO JULIO          33642                                   HERNANDEZ REYNA LEOPOLDO JULIO          0000000000000000518702DOMICILIACION GOCREDIT                  04                     000000000002021081801                                                                               
020000047310100000000004201120210818                        51202108180024000002811902495944228LEMUS DIAZ MIGUEL ANGEL                 35585                                   LEMUS DIAZ MIGUEL ANGEL                 0000000000000000518704DOMICILIACION GOCREDIT                  04                     000000000002021081801                                                                               
020000048310100000000004365420210818                        51202108180024000002580448500045412FLORES MORALES CARMEN ANABEL            33639                                   FLORES MORALES CARMEN ANABEL            0000000000000000518706DOMICILIACION GOCREDIT                  04                     000000000002021081801                                                                               
020000049310100000000004975920210818                        51202108180024000002580902780533099LOPEZ FERNANDEZ ENRIQUE                 34343                                   LOPEZ FERNANDEZ ENRIQUE                 0000000000000000518708DOMICILIACION GOCREDIT                  04                     000000000002021081801                                                                               
020000050310100000000003953720210818                        51202108180024000002813904142481438MORALES QUEZADA MARIA CONSUELO          32666                                   MORALES QUEZADA MARIA CONSUELO          0000000000000000518710DOMICILIACION GOCREDIT                  04                     000000000002021081801                                                                               
020000051310100000000006501420210818                        51202108180024000002813902528797052VENEGAS MARTINEZ ALFREDO                30710                                   VENEGAS MARTINEZ ALFREDO                0000000000000000518712DOMICILIACION GOCREDIT                  04                     000000000002021081801                                                                               
020000052310100000000004895120210818                        51202108180024000002813902499195932JUAREZ ALARCON DANIEL                   34633                                   JUAREZ ALARCON DANIEL                   0000000000000000518878DOMICILIACION GOCREDIT                  04                     000000000002021081801                                                                               
020000053310100000000007530920210818                        51202108180024000002813903498721364PUGA RUIZ MARIA TERESA DE JESUS         32618                                   PUGA RUIZ MARIA TERESA DE JESUS         0000000000000000518880DOMICILIACION GOCREDIT                  04                     000000000002021081801                                                                               
020000054310100000000014064020210818                        51202108180024000002813902215151286HERON CASTILLO EDUARDO ERIC             30344                                   HERON CASTILLO EDUARDO ERIC             0000000000000000518882DOMICILIACION GOCREDIT                  04                     000000000002021081801                                                                               
020000055310100000000011296220210818                        51202108180024000002903902438771476SANCHEZ ORONA JOSE ARTURO               32455                                   SANCHEZ ORONA JOSE ARTURO               0000000000000000518884DOMICILIACION GOCREDIT                  04                     000000000002021081801                                                                               
020000056300100000000001947420210818                        51202108180024000002813903688727835ALEJO LEAL SALVADOR                     30804                                   ALEJO LEAL SALVADOR                     0000000000000000518886DOMICILIACION GOCREDIT                  00                     000000000002021081801                                                                               
020000057310100000000011480820210818                        51202108180024000002180026042303683ZUÅIGA GOMEZ RICARDO                    30165                                   ZUÅIGA GOMEZ RICARDO                    0000000000000000518888DOMICILIACION GOCREDIT                  04                     000000000002021081801                                                                               
020000058310100000000002433020210818                        51202108180024000002813904049757139MATA FUENTES FRANCISCO                  30370                                   MATA FUENTES FRANCISCO                  0000000000000000518890DOMICILIACION GOCREDIT                  04                     000000000002021081801                                                                               
020000059310100000000003831220210818                        51202108180024000002180069052052088ROJAS ORTEGA FERNANDO                   30452                                   ROJAS ORTEGA FERNANDO                   0000000000000000518892DOMICILIACION GOCREDIT                  04                     000000000002021081801                                                                               
020000060310100000000000908020210818                        51202108180024000002813903837982049CASTRO CASTILLO CESAR ARTURO            30905                                   CASTRO CASTILLO CESAR ARTURO            0000000000000000518894DOMICILIACION GOCREDIT                  04                     000000000002021081801                                                                               
020000061310100000000004841320210818                        51202108180024000002180701120917326PANCARDO CEBALLOS ARTURO FERNANDO       32686                                   PANCARDO CEBALLOS ARTURO FERNANDO       0000000000000000518896DOMICILIACION GOCREDIT                  04                     000000000002021081801                                                                               
020000062310100000000004841320210818                        51202108180024000002813904167716256MELENDEZ CUEVAS JOSE GERARDO            32844                                   MELENDEZ CUEVAS JOSE GERARDO            0000000000000000518898DOMICILIACION GOCREDIT                  04                     000000000002021081801                                                                               
020000063310100000000004841320210818                        51202108180024000002180903901668333ZARAGOZA BOBADILLA ROBERTO              32868                                   ZARAGOZA BOBADILLA ROBERTO              0000000000000000518900DOMICILIACION GOCREDIT                  04                     000000000002021081801                                                                               
020000064310100000000004841320210818                        51202108180024000002813902481290764LUGO MELENDEZ VICENTE ANTONIO           32989                                   LUGO MELENDEZ VICENTE ANTONIO           0000000000000000518902DOMICILIACION GOCREDIT                  04                     000000000002021081801                                                                               
020000065310100000000000645620210818                        51202108180024000002813903973025543NAVARRO VILLAFUERTE JUAN MANUEL         33134                                   NAVARRO VILLAFUERTE JUAN MANUEL         0000000000000000518904DOMICILIACION GOCREDIT                  04                     000000000002021081801                                                                               
020000066310100000000001855820210818                        51202108180024000002813903577929074GONZALEZ MARTINEZ LAURA ESTHER          33231                                   GONZALEZ MARTINEZ LAURA ESTHER          0000000000000000518906DOMICILIACION GOCREDIT                  04                     000000000002021081801                                                                               
020000067310100000000004841320210818                        51202108180024000002180903653522154DURAN NAVARRO MARIA GUADALUPE           33310                                   DURAN NAVARRO MARIA GUADALUPE           0000000000000000518908DOMICILIACION GOCREDIT                  04                     000000000002021081801                                                                               
020000068310100000000002582020210818                        51202108180024000002813902589884179MANDUJANO RAMOS GILBERTO                33510                                   MANDUJANO RAMOS GILBERTO                0000000000000000518910DOMICILIACION GOCREDIT                  04                     000000000002021081801                                                                               
020000069310100000000000895720210818                        51202108180024000002180900731550520CHAVEZ BUSTAMANTE MARIA TERESA          33563                                   CHAVEZ BUSTAMANTE MARIA TERESA          0000000000000000518912DOMICILIACION GOCREDIT                  04                     000000000002021081801                                                                               
020000070310100000000000968320210818                        51202108180024000002580903699139554VILLASANA GUERRERO JACINTO              33566                                   VILLASANA GUERRERO JACINTO              0000000000000000518914DOMICILIACION GOCREDIT                  04                     000000000002021081801                                                                               
020000071310100000000001936520210818                        51202108180024000002813902666750375SANCHEZ BARUCH MIGUEL ANGEL             33775                                   SANCHEZ BARUCH MIGUEL ANGEL             0000000000000000518916DOMICILIACION GOCREDIT                  04                     000000000002021081801                                                                               
020000072310100000000003227520210818                        51202108180024000002580904459913249HERNANDEZ MEDINA MARTHA ALICIA          33844                                   HERNANDEZ MEDINA MARTHA ALICIA          0000000000000000518918DOMICILIACION GOCREDIT                  04                     000000000002021081801                                                                               
020000073310100000000001492820210818                        51202108180024000002580903529993682FLORES CORONADO ROBERTO                 33872                                   FLORES CORONADO ROBERTO                 0000000000000000518920DOMICILIACION GOCREDIT                  04                     000000000002021081801                                                                               
020000074310100000000004478220210818                        51202108180024000002040903721061739ABAROA PRECIADO ARTURO                  34169                                   ABAROA PRECIADO ARTURO                  0000000000000000518922DOMICILIACION GOCREDIT                  04                     000000000002021081801                                                                               
020000075310100000000002420720210818                        51202108180024000002813902865151681CASTILLO PEREZ JOSE ERASMO              34622                                   CASTILLO PEREZ JOSE ERASMO              0000000000000000518924DOMICILIACION GOCREDIT                  04                     000000000002021081801                                                                               
020000076300100000000006027420210818                        51202108180024000002052901212276214CASTILLA FREGOSO GESAHUR                35380                                   CASTILLA FREGOSO GESAHUR                0000000000000000518926DOMICILIACION GOCREDIT                  00                     000000000002021081801                                                                               
020000077310100000000005750320210818                        51202108180024000002580903636986537ESQUIBEL ARGUELLO GREGORIO              35405                                   ESQUIBEL ARGUELLO GREGORIO              0000000000000000518928DOMICILIACION GOCREDIT                  04                     000000000002021081801                                                                               
020000078300100000000002564420210818                        51202108180024000002813902691971284DURAN LLANAS RENE                       35629                                   DURAN LLANAS RENE                       0000000000000000518930DOMICILIACION GOCREDIT                  00                     000000000002021081801                                                                               
020000079310100000000001421820210818                        51202108180024000002813902072784582RESENDIZ CHAVEZ CARLOS                  35667                                   RESENDIZ CHAVEZ CARLOS                  0000000000000000518932DOMICILIACION GOCREDIT                  04                     000000000002021081801                                                                               
020000080310100000000004478220210818                        51202108180024000002022902915425139VARGAS PINZON RUBEN                     35820                                   VARGAS PINZON RUBEN                     0000000000000000518934DOMICILIACION GOCREDIT                  04                     000000000002021081801                                                                               
020000081310100000000004328920210818                        51202108180024000002813425600166677GUTIERREZ REYES DIMAS ANTONIO           36112                                   GUTIERREZ REYES DIMAS ANTONIO           0000000000000000518936DOMICILIACION GOCREDIT                  04                     000000000002021081801                                                                               
020000082310100000000003539020210818                        51202108180024000002040903630158319JORDAN MARTINEZ PAZ GUADALUPE           36345                                   JORDAN MARTINEZ PAZ GUADALUPE           0000000000000000518938DOMICILIACION GOCREDIT                  04                     000000000002021081801                                                                               
020000083310100000000006230020210818                        51202108180024000002813904088026355LOPEZ MARROQUIN ARMINDA                 36523                                   LOPEZ MARROQUIN ARMINDA                 0000000000000000518940DOMICILIACION GOCREDIT                  04                     000000000002021081801                                                                               
020000084310100000000004153420210818                        51202108180024000002813902773608019CRUZ HERNANDEZ LIDIO                    36594                                   CRUZ HERNANDEZ LIDIO                    0000000000000000518942DOMICILIACION GOCREDIT                  04                     000000000002021081801                                                                               
020000085310100000000002239120210818                        51202108180024000002813701264647447VEGA CASTRO DAVID                       36619                                   VEGA CASTRO DAVID                       0000000000000000518944DOMICILIACION GOCREDIT                  04                     000000000002021081801                                                                               
020000086310100000000005075320210818                        51202108180024000002052903473722330MENDEZ  JUAN HUMBERTO                   36663                                   MENDEZ  JUAN HUMBERTO                   0000000000000000518946DOMICILIACION GOCREDIT                  04                     000000000002021081801                                                                               
020000087310100000000002686920210818                        51202108180024000002052900728386796RODRIGUEZ CLATZA JOSUE                  36795                                   RODRIGUEZ CLATZA JOSUE                  0000000000000000518948DOMICILIACION GOCREDIT                  04                     000000000002021081801                                                                               
020000088310100000000002345820210818                        51202108180024000002813902740693594ROSALES HERNANDEZ FLORENCIO             36874                                   ROSALES HERNANDEZ FLORENCIO             0000000000000000518950DOMICILIACION GOCREDIT                  04                     000000000002021081801                                                                               
020000089310100000000004064420210818                        51202108180024000002233904597236915MENDOZA ROMERO MARGARITA                36951                                   MENDOZA ROMERO MARGARITA                0000000000000000518952DOMICILIACION GOCREDIT                  04                     000000000002021081801                                                                               
020000090300100000000006568020210818                        51202108180024000002052902751326828MARTINEZ ORDUÅA JORGE                   37038                                   MARTINEZ ORDUÅA JORGE                   0000000000000000518954DOMICILIACION GOCREDIT                  00                     000000000002021081801                                                                               
020000091310100000000002239120210818                        51202108180024000002813902666750375SANCHEZ BARUCH MIGUEL ANGEL             37358                                   SANCHEZ BARUCH MIGUEL ANGEL             0000000000000000518956DOMICILIACION GOCREDIT                  04                     000000000002021081801                                                                               
020000092300100000000002654320210818                        51202108180024000002580902921864190RODRIGUEZ VELAZQUEZ BEATRIZ             37362                                   RODRIGUEZ VELAZQUEZ BEATRIZ             0000000000000000518958DOMICILIACION GOCREDIT                  00                     000000000002021081801                                                                               
020000093310100000000007463620210818                        51202108180024000002813904139262453GARCIA RESENDIZ ROSA MARIA              37386                                   GARCIA RESENDIZ ROSA MARIA              0000000000000000518960DOMICILIACION GOCREDIT                  04                     000000000002021081801                                                                               
020000094310100000000002089820210818                        51202108180024000002811902506012463DIAZ LOREDO GABRIEL                     30437                                   DIAZ LOREDO GABRIEL                     0000000000000000518962DOMICILIACION GOCREDIT                  04                     000000000002021081801                                                                               
020000095310100000000004841320210818                        51202108180024000002813903621348459GARCIA RODRIGUEZ JUAN JOSE              32811                                   GARCIA RODRIGUEZ JUAN JOSE              0000000000000000518964DOMICILIACION GOCREDIT                  04                     000000000002021081801                                                                               
020000096310100000000002985520210818                        51202108180024000002813903621348459GARCIA RODRIGUEZ JUAN JOSE              37060                                   GARCIA RODRIGUEZ JUAN JOSE              0000000000000000518966DOMICILIACION GOCREDIT                  04                     000000000002021081801                                                                               
020000097310100000000002089820210818                        51202108180024000002811902506012463DIAZ LOREDO GABRIEL                     30393                                   DIAZ LOREDO GABRIEL                     0000000000000000518968DOMICILIACION GOCREDIT                  04                     000000000002021081801                                                                               
020000098310100000000001371720210818                        51202108180024000002813902686652767ZAVALA DELGADO FRANCISCO JAVIER         35042                                   ZAVALA DELGADO FRANCISCO JAVIER         0000000000000000518970DOMICILIACION GOCREDIT                  04                     000000000002021081801                                                                               
020000099310100000000001371720210818                        51202108180024000002811902755223168TURRUBIATES CARRIZALES ALEJANDRO        32408                                   TURRUBIATES CARRIZALES ALEJANDRO        0000000000000000518972DOMICILIACION GOCREDIT                  04                     000000000002021081801                                                                               
020000100310100000000002786420210818                        51202108180024000002813902517488796MALDONADO CABELLO JOSE LUIS             30709                                   MALDONADO CABELLO JOSE LUIS             0000000000000000518974DOMICILIACION GOCREDIT                  04                     000000000002021081801                                                                               
020000101310100000000003227520210818                        51202108180024000002813902567551136HERNANDEZ REYNA LEOPOLDO JULIO          33642                                   HERNANDEZ REYNA LEOPOLDO JULIO          0000000000000000518976DOMICILIACION GOCREDIT                  04                     000000000002021081801                                                                               
020000102310100000000001800520210818                        51202108180024000002811902495944228LEMUS DIAZ MIGUEL ANGEL                 35585                                   LEMUS DIAZ MIGUEL ANGEL                 0000000000000000519027DOMICILIACION GOCREDIT                  04                     000000000002021081801                                                                               
020000103310100000000001870920210818                        51202108180024000002580448500045412FLORES MORALES CARMEN ANABEL            33639                                   FLORES MORALES CARMEN ANABEL            0000000000000000519029DOMICILIACION GOCREDIT                  04                     000000000002021081801                                                                               
020000104310100000000002132520210818                        51202108180024000002580902780533099LOPEZ FERNANDEZ ENRIQUE                 34343                                   LOPEZ FERNANDEZ ENRIQUE                 0000000000000000519031DOMICILIACION GOCREDIT                  04                     000000000002021081801                                                                               
020000105310100000000001694520210818                        51202108180024000002813904142481438MORALES QUEZADA MARIA CONSUELO          32666                                   MORALES QUEZADA MARIA CONSUELO          0000000000000000519033DOMICILIACION GOCREDIT                  04                     000000000002021081801                                                                               
020000106310100000000002786420210818                        51202108180024000002813902528797052VENEGAS MARTINEZ ALFREDO                30710                                   VENEGAS MARTINEZ ALFREDO                0000000000000000519035DOMICILIACION GOCREDIT                  04                     000000000002021081801                                                                               
020000107310100000000002097920210818                        51202108180024000002813902499195932JUAREZ ALARCON DANIEL                   34633                                   JUAREZ ALARCON DANIEL                   0000000000000000519037DOMICILIACION GOCREDIT                  04                     000000000002021081801                                                                               
020000108310100000000003227520210818                        51202108180024000002813903498721364PUGA RUIZ MARIA TERESA DE JESUS         32618                                   PUGA RUIZ MARIA TERESA DE JESUS         0000000000000000519039DOMICILIACION GOCREDIT                  04                     000000000002021081801                                                                               
020000109310100000000006027420210818                        51202108180024000002813902215151286HERON CASTILLO EDUARDO ERIC             30344                                   HERON CASTILLO EDUARDO ERIC             0000000000000000519041DOMICILIACION GOCREDIT                  04                     000000000002021081801                                                                               
020000110310100000000004841320210818                        51202108180024000002903902438771476SANCHEZ ORONA JOSE ARTURO               32455                                   SANCHEZ ORONA JOSE ARTURO               0000000000000000519043DOMICILIACION GOCREDIT                  04                     000000000002021081801                                                                               
020000111300100000000000834620210818                        51202108180024000002813903688727835ALEJO LEAL SALVADOR                     30804                                   ALEJO LEAL SALVADOR                     0000000000000000519045DOMICILIACION GOCREDIT                  00                     000000000002021081801                                                                               
020000112310100000000001167120210818                        51202108180024000002811902506012463DIAZ LOREDO GABRIEL                     30437K                                  DIAZ LOREDO GABRIEL                     0000000000000000519047DOMICILIACION GOCREDIT                  04                     000000000002021081801                                                                               
020000113310100000000011996220210818                        51202108180024000002813903621348459GARCIA RODRIGUEZ JUAN JOSE              32811K                                  GARCIA RODRIGUEZ JUAN JOSE              0000000000000000519049DOMICILIACION GOCREDIT                  04                     000000000002021081801                                                                               
020000114310100000000007666020210818                        51202108180024000002813903621348459GARCIA RODRIGUEZ JUAN JOSE              37060K                                  GARCIA RODRIGUEZ JUAN JOSE              0000000000000000519051DOMICILIACION GOCREDIT                  04                     000000000002021081801                                                                               
020000115310100000000009107020210818                        51202108180024000002811902506012463DIAZ LOREDO GABRIEL                     30393K                                  DIAZ LOREDO GABRIEL                     0000000000000000519125DOMICILIACION GOCREDIT                  04                     000000000002021081801                                                                               
020000116310100000000003200720210818                        51202108180024000002813902686652767ZAVALA DELGADO FRANCISCO JAVIER         35042K                                  ZAVALA DELGADO FRANCISCO JAVIER         0000000000000000519127DOMICILIACION GOCREDIT                  04                     000000000002021081801                                                                               
020000117310100000000003200720210818                        51202108180024000002811902755223168TURRUBIATES CARRIZALES ALEJANDRO        32408K                                  TURRUBIATES CARRIZALES ALEJANDRO        0000000000000000519129DOMICILIACION GOCREDIT                  04                     000000000002021081801                                                                               
020000118310100000000006501420210818                        51202108180024000002813902517488796MALDONADO CABELLO JOSE LUIS             30709K                                  MALDONADO CABELLO JOSE LUIS             0000000000000000519131DOMICILIACION GOCREDIT                  04                     000000000002021081801                                                                               
020000119310100000000007530920210818                        51202108180024000002813902567551136HERNANDEZ REYNA LEOPOLDO JULIO          33642K                                  HERNANDEZ REYNA LEOPOLDO JULIO          0000000000000000519133DOMICILIACION GOCREDIT                  04                     000000000002021081801                                                                               
020000120310100000000004201120210818                        51202108180024000002811902495944228LEMUS DIAZ MIGUEL ANGEL                 35585K                                  LEMUS DIAZ MIGUEL ANGEL                 0000000000000000519135DOMICILIACION GOCREDIT                  04                     000000000002021081801                                                                               
020000121310100000000004365420210818                        51202108180024000002580448500045412FLORES MORALES CARMEN ANABEL            33639K                                  FLORES MORALES CARMEN ANABEL            0000000000000000519137DOMICILIACION GOCREDIT                  04                     000000000002021081801                                                                               
020000122310100000000004975920210818                        51202108180024000002580902780533099LOPEZ FERNANDEZ ENRIQUE                 34343K                                  LOPEZ FERNANDEZ ENRIQUE                 0000000000000000519139DOMICILIACION GOCREDIT                  04                     000000000002021081801                                                                               
020000123310100000000003953720210818                        51202108180024000002813904142481438MORALES QUEZADA MARIA CONSUELO          32666K                                  MORALES QUEZADA MARIA CONSUELO          0000000000000000519141DOMICILIACION GOCREDIT                  04                     000000000002021081801                                                                               
020000124310100000000006501420210818                        51202108180024000002813902528797052VENEGAS MARTINEZ ALFREDO                30710K                                  VENEGAS MARTINEZ ALFREDO                0000000000000000519143DOMICILIACION GOCREDIT                  04                     000000000002021081801                                                                               
020000125310100000000004895120210818                        51202108180024000002813902499195932JUAREZ ALARCON DANIEL                   34633K                                  JUAREZ ALARCON DANIEL                   0000000000000000519145DOMICILIACION GOCREDIT                  04                     000000000002021081801                                                                               
020000126310100000000007530920210818                        51202108180024000002813903498721364PUGA RUIZ MARIA TERESA DE JESUS         32618K                                  PUGA RUIZ MARIA TERESA DE JESUS         0000000000000000519147DOMICILIACION GOCREDIT                  04                     000000000002021081801                                                                               
020000127310100000000014064020210818                        51202108180024000002813902215151286HERON CASTILLO EDUARDO ERIC             30344K                                  HERON CASTILLO EDUARDO ERIC             0000000000000000519149DOMICILIACION GOCREDIT                  04                     000000000002021081801                                                                               
020000128310100000000011296220210818                        51202108180024000002903902438771476SANCHEZ ORONA JOSE ARTURO               32455K                                  SANCHEZ ORONA JOSE ARTURO               0000000000000000519151DOMICILIACION GOCREDIT                  04                     000000000002021081801                                                                               
020000129300100000000001947420210818                        51202108180024000002813903688727835ALEJO LEAL SALVADOR                     30804K                                  ALEJO LEAL SALVADOR                     0000000000000000519153DOMICILIACION GOCREDIT                  00                     000000000002021081801                                                                               
020000130310100000000000500220210818                        51202108180024000002811902506012463DIAZ LOREDO GABRIEL                     30437N                                  DIAZ LOREDO GABRIEL                     0000000000000000519155DOMICILIACION GOCREDIT                  04                     000000000002021081801                                                                               
020000131310100000000005141220210818                        51202108180024000002813903621348459GARCIA RODRIGUEZ JUAN JOSE              32811N                                  GARCIA RODRIGUEZ JUAN JOSE              0000000000000000519157DOMICILIACION GOCREDIT                  04                     000000000002021081801                                                                               
020000132310100000000003285520210818                        51202108180024000002813903621348459GARCIA RODRIGUEZ JUAN JOSE              37060N                                  GARCIA RODRIGUEZ JUAN JOSE              0000000000000000519159DOMICILIACION GOCREDIT                  04                     000000000002021081801                                                                               
020000133310100000000003903020210818                        51202108180024000002811902506012463DIAZ LOREDO GABRIEL                     30393N                                  DIAZ LOREDO GABRIEL                     0000000000000000519161DOMICILIACION GOCREDIT                  04                     000000000002021081801                                                                               
020000134310100000000001371720210818                        51202108180024000002813902686652767ZAVALA DELGADO FRANCISCO JAVIER         35042N                                  ZAVALA DELGADO FRANCISCO JAVIER         0000000000000000519163DOMICILIACION GOCREDIT                  04                     000000000002021081801                                                                               
020000135310100000000001371720210818                        51202108180024000002811902755223168TURRUBIATES CARRIZALES ALEJANDRO        32408N                                  TURRUBIATES CARRIZALES ALEJANDRO        0000000000000000519165DOMICILIACION GOCREDIT                  04                     000000000002021081801                                                                               
020000136310100000000002786420210818                        51202108180024000002813902517488796MALDONADO CABELLO JOSE LUIS             30709N                                  MALDONADO CABELLO JOSE LUIS             0000000000000000519167DOMICILIACION GOCREDIT                  04                     000000000002021081801                                                                               
020000137310100000000003227520210818                        51202108180024000002813902567551136HERNANDEZ REYNA LEOPOLDO JULIO          33642N                                  HERNANDEZ REYNA LEOPOLDO JULIO          0000000000000000519169DOMICILIACION GOCREDIT                  04                     000000000002021081801                                                                               
020000138310100000000001800520210818                        51202108180024000002811902495944228LEMUS DIAZ MIGUEL ANGEL                 35585N                                  LEMUS DIAZ MIGUEL ANGEL                 0000000000000000519171DOMICILIACION GOCREDIT                  04                     000000000002021081801                                                                               
020000139310100000000001870920210818                        51202108180024000002580448500045412FLORES MORALES CARMEN ANABEL            33639N                                  FLORES MORALES CARMEN ANABEL            0000000000000000519173DOMICILIACION GOCREDIT                  04                     000000000002021081801                                                                               
020000140310100000000002132520210818                        51202108180024000002580902780533099LOPEZ FERNANDEZ ENRIQUE                 34343N                                  LOPEZ FERNANDEZ ENRIQUE                 0000000000000000519175DOMICILIACION GOCREDIT                  04                     000000000002021081801                                                                               
020000141310100000000001694520210818                        51202108180024000002813904142481438MORALES QUEZADA MARIA CONSUELO          32666N                                  MORALES QUEZADA MARIA CONSUELO          0000000000000000519177DOMICILIACION GOCREDIT                  04                     000000000002021081801                                                                               
020000142310100000000002786420210818                        51202108180024000002813902528797052VENEGAS MARTINEZ ALFREDO                30710N                                  VENEGAS MARTINEZ ALFREDO                0000000000000000519179DOMICILIACION GOCREDIT                  04                     000000000002021081801                                                                               
020000143310100000000002097920210818                        51202108180024000002813902499195932JUAREZ ALARCON DANIEL                   34633N                                  JUAREZ ALARCON DANIEL                   0000000000000000519181DOMICILIACION GOCREDIT                  04                     000000000002021081801                                                                               
020000144310100000000003227520210818                        51202108180024000002813903498721364PUGA RUIZ MARIA TERESA DE JESUS         32618N                                  PUGA RUIZ MARIA TERESA DE JESUS         0000000000000000519183DOMICILIACION GOCREDIT                  04                     000000000002021081801                                                                               
020000145310100000000006027420210818                        51202108180024000002813902215151286HERON CASTILLO EDUARDO ERIC             30344N                                  HERON CASTILLO EDUARDO ERIC             0000000000000000519185DOMICILIACION GOCREDIT                  04                     000000000002021081801                                                                               
020000146310100000000004841320210818                        51202108180024000002903902438771476SANCHEZ ORONA JOSE ARTURO               32455N                                  SANCHEZ ORONA JOSE ARTURO               0000000000000000519187DOMICILIACION GOCREDIT                  04                     000000000002021081801                                                                               
020000147300100000000000834620210818                        51202108180024000002813903688727835ALEJO LEAL SALVADOR                     30804N                                  ALEJO LEAL SALVADOR                     0000000000000000519189DOMICILIACION GOCREDIT                  00                     000000000002021081801                                                                               
020000148310100000000002743420210818                        51202108180024000002813902686652767ZAVALA DELGADO FRANCISCO JAVIER         35042G                                  ZAVALA DELGADO FRANCISCO JAVIER         0000000000000000519191DOMICILIACION GOCREDIT                  04                     000000000002021081801                                                                               
020000149310100000000002743420210818                        51202108180024000002811902755223168TURRUBIATES CARRIZALES ALEJANDRO        32408G                                  TURRUBIATES CARRIZALES ALEJANDRO        0000000000000000519193DOMICILIACION GOCREDIT                  04                     000000000002021081801                                                                               
020000150310100000000005572720210818                        51202108180024000002813902517488796MALDONADO CABELLO JOSE LUIS             30709G                                  MALDONADO CABELLO JOSE LUIS             0000000000000000519195DOMICILIACION GOCREDIT                  04                     000000000002021081801                                                                               
020000151310100000000006455020210818                        51202108180024000002813902567551136HERNANDEZ REYNA LEOPOLDO JULIO          33642G                                  HERNANDEZ REYNA LEOPOLDO JULIO          0000000000000000519197DOMICILIACION GOCREDIT                  04                     000000000002021081801                                                                               
020000152310100000000003600920210818                        51202108180024000002811902495944228LEMUS DIAZ MIGUEL ANGEL                 35585G                                  LEMUS DIAZ MIGUEL ANGEL                 0000000000000000519199DOMICILIACION GOCREDIT                  04                     000000000002021081801                                                                               
020000153310100000000003741820210818                        51202108180024000002580448500045412FLORES MORALES CARMEN ANABEL            33639G                                  FLORES MORALES CARMEN ANABEL            0000000000000000519201DOMICILIACION GOCREDIT                  04                     000000000002021081801                                                                               
020000154310100000000004265020210818                        51202108180024000002580902780533099LOPEZ FERNANDEZ ENRIQUE                 34343G                                  LOPEZ FERNANDEZ ENRIQUE                 0000000000000000519203DOMICILIACION GOCREDIT                  04                     000000000002021081801                                                                               
020000155310100000000003388920210818                        51202108180024000002813904142481438MORALES QUEZADA MARIA CONSUELO          32666G                                  MORALES QUEZADA MARIA CONSUELO          0000000000000000519205DOMICILIACION GOCREDIT                  04                     000000000002021081801                                                                               
020000156310100000000005572720210818                        51202108180024000002813902528797052VENEGAS MARTINEZ ALFREDO                30710G                                  VENEGAS MARTINEZ ALFREDO                0000000000000000519207DOMICILIACION GOCREDIT                  04                     000000000002021081801                                                                               
020000157310100000000004195820210818                        51202108180024000002813902499195932JUAREZ ALARCON DANIEL                   34633G                                  JUAREZ ALARCON DANIEL                   0000000000000000519209DOMICILIACION GOCREDIT                  04                     000000000002021081801                                                                               
020000158310100000000006455020210818                        51202108180024000002813903498721364PUGA RUIZ MARIA TERESA DE JESUS         32618G                                  PUGA RUIZ MARIA TERESA DE JESUS         0000000000000000519211DOMICILIACION GOCREDIT                  04                     000000000002021081801                                                                               
020000159310100000000012054820210818                        51202108180024000002813902215151286HERON CASTILLO EDUARDO ERIC             30344G                                  HERON CASTILLO EDUARDO ERIC             0000000000000000519213DOMICILIACION GOCREDIT                  04                     000000000002021081801                                                                               
020000160310100000000009682520210818                        51202108180024000002903902438771476SANCHEZ ORONA JOSE ARTURO               32455G                                  SANCHEZ ORONA JOSE ARTURO               0000000000000000519215DOMICILIACION GOCREDIT                  04                     000000000002021081801                                                                               
020000161300100000000001669220210818                        51202108180024000002813903688727835ALEJO LEAL SALVADOR                     30804G                                  ALEJO LEAL SALVADOR                     0000000000000000519217DOMICILIACION GOCREDIT                  00                     000000000002021081801                                                                               
020000162310100000000001829020210818                        51202108180024000002813902686652767ZAVALA DELGADO FRANCISCO JAVIER         35042C                                  ZAVALA DELGADO FRANCISCO JAVIER         0000000000000000519219DOMICILIACION GOCREDIT                  04                     000000000002021081801                                                                               
020000163310100000000001829020210818                        51202108180024000002811902755223168TURRUBIATES CARRIZALES ALEJANDRO        32408C                                  TURRUBIATES CARRIZALES ALEJANDRO        0000000000000000519221DOMICILIACION GOCREDIT                  04                     000000000002021081801                                                                               
020000164310100000000003715120210818                        51202108180024000002813902517488796MALDONADO CABELLO JOSE LUIS             30709C                                  MALDONADO CABELLO JOSE LUIS             0000000000000000519223DOMICILIACION GOCREDIT                  04                     000000000002021081801                                                                               
020000165310100000000004303420210818                        51202108180024000002813902567551136HERNANDEZ REYNA LEOPOLDO JULIO          33642C                                  HERNANDEZ REYNA LEOPOLDO JULIO          0000000000000000519225DOMICILIACION GOCREDIT                  04                     000000000002021081801                                                                               
020000166310100000000002400620210818                        51202108180024000002811902495944228LEMUS DIAZ MIGUEL ANGEL                 35585C                                  LEMUS DIAZ MIGUEL ANGEL                 0000000000000000519227DOMICILIACION GOCREDIT                  04                     000000000002021081801                                                                               
020000167310100000000002494520210818                        51202108180024000002580448500045412FLORES MORALES CARMEN ANABEL            33639C                                  FLORES MORALES CARMEN ANABEL            0000000000000000519229DOMICILIACION GOCREDIT                  04                     000000000002021081801                                                                               
020000168310100000000002843420210818                        51202108180024000002580902780533099LOPEZ FERNANDEZ ENRIQUE                 34343C                                  LOPEZ FERNANDEZ ENRIQUE                 0000000000000000519231DOMICILIACION GOCREDIT                  04                     000000000002021081801                                                                               
020000169310100000000002259320210818                        51202108180024000002813904142481438MORALES QUEZADA MARIA CONSUELO          32666C                                  MORALES QUEZADA MARIA CONSUELO          0000000000000000519233DOMICILIACION GOCREDIT                  04                     000000000002021081801                                                                               
020000170310100000000003715120210818                        51202108180024000002813902528797052VENEGAS MARTINEZ ALFREDO                30710C                                  VENEGAS MARTINEZ ALFREDO                0000000000000000519235DOMICILIACION GOCREDIT                  04                     000000000002021081801                                                                               
020000171310100000000002797220210818                        51202108180024000002813902499195932JUAREZ ALARCON DANIEL                   34633C                                  JUAREZ ALARCON DANIEL                   0000000000000000519237DOMICILIACION GOCREDIT                  04                     000000000002021081801                                                                               
020000172310100000000004303420210818                        51202108180024000002813903498721364PUGA RUIZ MARIA TERESA DE JESUS         32618C                                  PUGA RUIZ MARIA TERESA DE JESUS         0000000000000000519239DOMICILIACION GOCREDIT                  04                     000000000002021081801                                                                               
020000173310100000000008036620210818                        51202108180024000002813902215151286HERON CASTILLO EDUARDO ERIC             30344C                                  HERON CASTILLO EDUARDO ERIC             0000000000000000519241DOMICILIACION GOCREDIT                  04                     000000000002021081801                                                                               
020000174310100000000006455020210818                        51202108180024000002903902438771476SANCHEZ ORONA JOSE ARTURO               32455C                                  SANCHEZ ORONA JOSE ARTURO               0000000000000000519243DOMICILIACION GOCREDIT                  04                     000000000002021081801                                                                               
020000175300100000000001112820210818                        51202108180024000002813903688727835ALEJO LEAL SALVADOR                     30804C                                  ALEJO LEAL SALVADOR                     0000000000000000519245DOMICILIACION GOCREDIT                  00                     000000000002021081801                                                                               
0900001763018000010000174000000000009007993                                                                                                                                                                                                                                                                                                                                                                     
