01000000130002S20100004202110010100                         MONTO FACIL SAPI DE CV SOFOM ENR        MFA110429MT9                                                                                                                                                                                            00014445547804                                                                                      
020000002310100000000050142820211001                        51202110010024000002180902530364261PEREZ GODINEZ MARIA GUADALUPE           36985ABC                                PEREZ GODINEZ MARIA GUADALUPE           0000000000000002394045DOMICILIACIONGOCREDIT                   04                     000000000002021100104                                                                               
020000003310100000000021703320211001                        51202110010024000002180901261289153RIVERA CASTILLO MARIA LUISA             35916ABC                                RIVERA CASTILLO MARIA LUISA             0000000000000002394376DOMICILIACIONGOCREDIT                   04                     000000000002021100104                                                                               
020000004310100000000020354620211001                        51202110010024000002580904349862992NAVA SALINAS RAUL FRANCISCO             30440ABC                                NAVA SALINAS RAUL FRANCISCO             0000000000000002394378DOMICILIACIONGOCREDIT                   04                     000000000002021100104                                                                               
020000005310100000000018643620211001                        51202110010024000002580904349862992NAVA SALINAS RAUL FRANCISCO             35741ABC                                NAVA SALINAS RAUL FRANCISCO             0000000000000002394381DOMICILIACIONGOCREDIT                   04                     000000000002021100104                                                                               
020000006310100000000034278120211001                        51202110010024000002060904098085210DEL BOSQUE LOPEZ CESAR AUGUSTO          32332ABC                                DEL BOSQUE LOPEZ CESAR AUGUSTO          0000000000000002394413DOMICILIACIONGOCREDIT                   04                     000000000002021100104                                                                               
020000007310100000000061571420211001                        51202110010024000002180902757535048MORENO QUINTANILLA MARIA DOLORES        31183ABC                                MORENO QUINTANILLA MARIA DOLORES        0000000000000002394437DOMICILIACIONGOCREDIT                   04                     000000000002021100104                                                                               
020000008310100000000013203020211001                        51202110010024000002580902585488080MARTINEZ HERNANDEZ FELIPE               28976ABC                                MARTINEZ HERNANDEZ FELIPE               0000000000000002394671DOMICILIACIONGOCREDIT                   04                     000000000002021100104                                                                               
020000009310100000000035800020211001                        51202110010024000002180902530364261PEREZ GODINEZ MARIA GUADALUPE           36985ABC                                PEREZ GODINEZ MARIA GUADALUPE           0000000000000002394709DOMICILIACIONGOCREDIT                   04                     000000000002021100104                                                                               
020000010310100000000015200020211001                        51202110010024000002180901261289153RIVERA CASTILLO MARIA LUISA             35916ABC                                RIVERA CASTILLO MARIA LUISA             0000000000000002394998DOMICILIACIONGOCREDIT                   04                     000000000002021100104                                                                               
020000011310100000000014250020211001                        51202110010024000002580904349862992NAVA SALINAS RAUL FRANCISCO             30440ABC                                NAVA SALINAS RAUL FRANCISCO             0000000000000002395000DOMICILIACIONGOCREDIT                   04                     000000000002021100104                                                                               
020000012310100000000013060020211001                        51202110010024000002580904349862992NAVA SALINAS RAUL FRANCISCO             35741ABC                                NAVA SALINAS RAUL FRANCISCO             0000000000000002395002DOMICILIACIONGOCREDIT                   04                     000000000002021100104                                                                               
020000013310100000000024000020211001                        51202110010024000002060904098085210DEL BOSQUE LOPEZ CESAR AUGUSTO          32332ABC                                DEL BOSQUE LOPEZ CESAR AUGUSTO          0000000000000002395024DOMICILIACIONGOCREDIT                   04                     000000000002021100104                                                                               
020000014310100000000043100020211001                        51202110010024000002180902757535048MORENO QUINTANILLA MARIA DOLORES        31183ABC                                MORENO QUINTANILLA MARIA DOLORES        0000000000000002395040DOMICILIACIONGOCREDIT                   04                     000000000002021100104                                                                               
020000015310100000000009250020211001                        51202110010024000002580902585488080MARTINEZ HERNANDEZ FELIPE               28976ABC                                MARTINEZ HERNANDEZ FELIPE               0000000000000002395056DOMICILIACIONGOCREDIT                   04                     000000000002021100104                                                                               
020000016310100000000015350020211001                        51202110010024000002180902530364261PEREZ GODINEZ MARIA GUADALUPE           36985ABC                                PEREZ GODINEZ MARIA GUADALUPE           0000000000000002395396DOMICILIACIONGOCREDIT                   04                     000000000002021100104                                                                               
020000017310100000000006520020211001                        51202110010024000002180901261289153RIVERA CASTILLO MARIA LUISA             35916ABC                                RIVERA CASTILLO MARIA LUISA             0000000000000002395480DOMICILIACIONGOCREDIT                   04                     000000000002021100104                                                                               
020000018310100000000006110020211001                        51202110010024000002580904349862992NAVA SALINAS RAUL FRANCISCO             30440ABC                                NAVA SALINAS RAUL FRANCISCO             0000000000000002395482DOMICILIACIONGOCREDIT                   04                     000000000002021100104                                                                               
020000019310100000000005600020211001                        51202110010024000002580904349862992NAVA SALINAS RAUL FRANCISCO             35741ABC                                NAVA SALINAS RAUL FRANCISCO             0000000000000002395484DOMICILIACIONGOCREDIT                   04                     000000000002021100104                                                                               
020000020310100000000010290020211001                        51202110010024000002060904098085210DEL BOSQUE LOPEZ CESAR AUGUSTO          32332ABC                                DEL BOSQUE LOPEZ CESAR AUGUSTO          0000000000000002395506DOMICILIACIONGOCREDIT                   04                     000000000002021100104                                                                               
020000021310100000000018480020211001                        51202110010024000002180902757535048MORENO QUINTANILLA MARIA DOLORES        31183ABC                                MORENO QUINTANILLA MARIA DOLORES        0000000000000002395726DOMICILIACIONGOCREDIT                   04                     000000000002021100104                                                                               
020000022310100000000003970020211001                        51202110010024000002580902585488080MARTINEZ HERNANDEZ FELIPE               28976ABC                                MARTINEZ HERNANDEZ FELIPE               0000000000000002395742DOMICILIACIONGOCREDIT                   04                     000000000002021100104                                                                               
020000023310100000000004401020211001                        51202110010724000072180011414397822LARA CORTES VICTOR SALOMON              30369ABC                                LARA CORTES VICTOR SALOMON              0000000000000002394027DOMICILIACIONGOCREDIT                   04                     004000000002021100104                                                                               
020000024310100000000002840020211001                        51202110010724000072180011414397822LARA CORTES VICTOR SALOMON              30369ABC                                LARA CORTES VICTOR SALOMON              0000000000000002394697DOMICILIACIONGOCREDIT                   04                     004000000002021100104                                                                               
020000025310100000000001220020211001                        51202110010724000072180011414397822LARA CORTES VICTOR SALOMON              30369ABC                                LARA CORTES VICTOR SALOMON              0000000000000002395384DOMICILIACIONGOCREDIT                   04                     004000000002021100104                                                                               
020000026310100000000008614620211001                        51202110010724000072040006152370353FLORES LEAL MIRTHA GUADALUPE            26908ABC                                FLORES LEAL MIRTHA GUADALUPE            0000000000000002394030DOMICILIACIONGOCREDIT                   04                     004000000002021100104                                                                               
020000027310100000000005560020211001                        51202110010724000072040006152370353FLORES LEAL MIRTHA GUADALUPE            26908ABC                                FLORES LEAL MIRTHA GUADALUPE            0000000000000002394699DOMICILIACIONGOCREDIT                   04                     004000000002021100104                                                                               
020000028310100000000002390020211001                        51202110010724000072040006152370353FLORES LEAL MIRTHA GUADALUPE            26908ABC                                FLORES LEAL MIRTHA GUADALUPE            0000000000000002395386DOMICILIACIONGOCREDIT                   04                     004000000002021100104                                                                               
020000029310100000000027965420211001                        51202110010724000072580005191158660ORTEGA PEREZ MARIA EDUVIGES             34031ABC                                ORTEGA PEREZ MARIA EDUVIGES             0000000000000002394033DOMICILIACIONGOCREDIT                   04                     004000000002021100104                                                                               
020000030310100000000018850020211001                        51202110010724000072580005191158660ORTEGA PEREZ MARIA EDUVIGES             34031ABC                                ORTEGA PEREZ MARIA EDUVIGES             0000000000000002394701DOMICILIACIONGOCREDIT                   04                     004000000002021100104                                                                               
020000031310100000000008080020211001                        51202110010724000072580005191158660ORTEGA PEREZ MARIA EDUVIGES             34031ABC                                ORTEGA PEREZ MARIA EDUVIGES             0000000000000002395388DOMICILIACIONGOCREDIT                   04                     004000000002021100104                                                                               
020000032310100000000048398420211001                        51202110010124000012580011267831988BANDA DE LEON MA MARGARITA              36506ABC                                BANDA DE LEON MA MARGARITA              0000000000000002394036DOMICILIACIONGOCREDIT                   04                     004000000002021100104                                                                               
020000033300100000000033330020211001                        51202110010124000012580011267831988BANDA DE LEON MA MARGARITA              36506ABC                                BANDA DE LEON MA MARGARITA              0000000000000002394703DOMICILIACIONGOCREDIT                   00                     004003947032021100104                                                                               
020000034310100000000014290020211001                        51202110010124000012580011267831988BANDA DE LEON MA MARGARITA              36506ABC                                BANDA DE LEON MA MARGARITA              0000000000000002395390DOMICILIACIONGOCREDIT                   04                     004000000002021100104                                                                               
020000035310100000000072890820211001                        51202110010124000012580015232317789OLIVO BRISEŃO IRMA                      34657ABC                                OLIVO BRISEŃO IRMA                      0000000000000002394039DOMICILIACIONGOCREDIT                   04                     004000000002021100104                                                                               
020000036310100000000051730020211001                        51202110010124000012580015232317789OLIVO BRISEŃO IRMA                      34657ABC                                OLIVO BRISEŃO IRMA                      0000000000000002394705DOMICILIACIONGOCREDIT                   04                     004000000002021100104                                                                               
020000037310100000000022170020211001                        51202110010124000012580015232317789OLIVO BRISEŃO IRMA                      34657ABC                                OLIVO BRISEŃO IRMA                      0000000000000002395392DOMICILIACIONGOCREDIT                   04                     004000000002021100104                                                                               
020000038310100000000051477720211001                        51202110010124000012424029492449057CASTILLO RODRIGUEZ VICTORIA             32119ABC                                CASTILLO RODRIGUEZ VICTORIA             0000000000000002394042DOMICILIACIONGOCREDIT                   04                     004000000002021100104                                                                               
020000039310100000000036740020211001                        51202110010124000012424029492449057CASTILLO RODRIGUEZ VICTORIA             32119ABC                                CASTILLO RODRIGUEZ VICTORIA             0000000000000002394707DOMICILIACIONGOCREDIT                   04                     004000000002021100104                                                                               
020000040310100000000015750020211001                        51202110010124000012424029492449057CASTILLO RODRIGUEZ VICTORIA             32119ABC                                CASTILLO RODRIGUEZ VICTORIA             0000000000000002395394DOMICILIACIONGOCREDIT                   04                     004000000002021100104                                                                               
020000041310100000000043406620211001                        51202110010144000014190605729273697MARTINEZ GONZALEZ SILVIA                37521ABC                                MARTINEZ GONZALEZ SILVIA                0000000000000002394048DOMICILIACIONGOCREDIT                   04                     004000000002021100104                                                                               
020000042310100000000031090020211001                        51202110010144000014190605729273697MARTINEZ GONZALEZ SILVIA                37521ABC                                MARTINEZ GONZALEZ SILVIA                0000000000000002394711DOMICILIACIONGOCREDIT                   04                     004000000002021100104                                                                               
020000043310100000000013330020211001                        51202110010144000014190605729273697MARTINEZ GONZALEZ SILVIA                37521ABC                                MARTINEZ GONZALEZ SILVIA                0000000000000002395400DOMICILIACIONGOCREDIT                   04                     004000000002021100104                                                                               
020000044310100000000040362120211001                        51202110010724000072040004824618277CHAVEZ ARMENTA ENRIQUE                  36052ABC                                CHAVEZ ARMENTA ENRIQUE                  0000000000000002394051DOMICILIACIONGOCREDIT                   04                     004000000002021100104                                                                               
020000045310100000000028950020211001                        51202110010724000072040004824618277CHAVEZ ARMENTA ENRIQUE                  36052ABC                                CHAVEZ ARMENTA ENRIQUE                  0000000000000002394713DOMICILIACIONGOCREDIT                   04                     004000000002021100104                                                                               
020000046310100000000012410020211001                        51202110010724000072040004824618277CHAVEZ ARMENTA ENRIQUE                  36052ABC                                CHAVEZ ARMENTA ENRIQUE                  0000000000000002395402DOMICILIACIONGOCREDIT                   04                     004000000002021100104                                                                               
020000047310100000000032555020211001                        51202110010144000014060567740009131MANQUERO LOZOYA GUSTAVO ALONSO          36539ABC                                MANQUERO LOZOYA GUSTAVO ALONSO          0000000000000002394054DOMICILIACIONGOCREDIT                   04                     004000000002021100104                                                                               
020000048310100000000023490020211001                        51202110010144000014060567740009131MANQUERO LOZOYA GUSTAVO ALONSO          36539ABC                                MANQUERO LOZOYA GUSTAVO ALONSO          0000000000000002394715DOMICILIACIONGOCREDIT                   04                     004000000002021100104                                                                               
020000049310100000000010070020211001                        51202110010144000014060567740009131MANQUERO LOZOYA GUSTAVO ALONSO          36539ABC                                MANQUERO LOZOYA GUSTAVO ALONSO          0000000000000002395404DOMICILIACIONGOCREDIT                   04                     004000000002021100104                                                                               
020000050310100000000030582120211001                        51202110010124000012060015007018157DORADO DELGADO MARIA DE LOS ANGELES     26189ABC                                DORADO DELGADO MARIA DE LOS ANGELES     0000000000000002394057DOMICILIACIONGOCREDIT                   04                     004000000002021100104                                                                               
020000051310100000000022180020211001                        51202110010124000012060015007018157DORADO DELGADO MARIA DE LOS ANGELES     26189ABC                                DORADO DELGADO MARIA DE LOS ANGELES     0000000000000002394717DOMICILIACIONGOCREDIT                   04                     004000000002021100104                                                                               
020000052310100000000009510020211001                        51202110010124000012060015007018157DORADO DELGADO MARIA DE LOS ANGELES     26189ABC                                DORADO DELGADO MARIA DE LOS ANGELES     0000000000000002395406DOMICILIACIONGOCREDIT                   04                     004000000002021100104                                                                               
020000053310100000000026776520211001                        51202110010124000012580015588912142ALVIZO HUERTA JUDITH                    34999ABC                                ALVIZO HUERTA JUDITH                    0000000000000002394060DOMICILIACIONGOCREDIT                   04                     004000000002021100104                                                                               
020000054310100000000019450020211001                        51202110010124000012580015588912142ALVIZO HUERTA JUDITH                    34999ABC                                ALVIZO HUERTA JUDITH                    0000000000000002394719DOMICILIACIONGOCREDIT                   04                     004000000002021100104                                                                               
020000055310100000000008340020211001                        51202110010124000012580015588912142ALVIZO HUERTA JUDITH                    34999ABC                                ALVIZO HUERTA JUDITH                    0000000000000002395408DOMICILIACIONGOCREDIT                   04                     004000000002021100104                                                                               
020000056310100000000010414120211001                        51202110010124000012580004620441100BENAVIDES DIAZ ELVIRA                   36340ABC                                BENAVIDES DIAZ ELVIRA                   0000000000000002394063DOMICILIACIONGOCREDIT                   04                     004000000002021100104                                                                               
020000057310100000000007620020211001                        51202110010124000012580004620441100BENAVIDES DIAZ ELVIRA                   36340ABC                                BENAVIDES DIAZ ELVIRA                   0000000000000002394721DOMICILIACIONGOCREDIT                   04                     004000000002021100104                                                                               
020000058310100000000003270020211001                        51202110010124000012580004620441100BENAVIDES DIAZ ELVIRA                   36340ABC                                BENAVIDES DIAZ ELVIRA                   0000000000000002395410DOMICILIACIONGOCREDIT                   04                     004000000002021100104                                                                               
020000059310100000000021122620211001                        51202110010724000072040002822844317RIOS ERIVES ELIAZAR                     31440ABC                                RIOS ERIVES ELIAZAR                     0000000000000002394066DOMICILIACIONGOCREDIT                   04                     004000000002021100104                                                                               
020000060310100000000015490020211001                        51202110010724000072040002822844317RIOS ERIVES ELIAZAR                     31440ABC                                RIOS ERIVES ELIAZAR                     0000000000000002394723DOMICILIACIONGOCREDIT                   04                     004000000002021100104                                                                               
020000061310100000000006640020211001                        51202110010724000072040002822844317RIOS ERIVES ELIAZAR                     31440ABC                                RIOS ERIVES ELIAZAR                     0000000000000002395412DOMICILIACIONGOCREDIT                   04                     004000000002021100104                                                                               
020000062310100000000019254420211001                        51202110010724000072580007887182414GUTIERREZ GUERRA CARLOS JAVIER          31038ABC                                GUTIERREZ GUERRA CARLOS JAVIER          0000000000000002394069DOMICILIACIONGOCREDIT                   04                     004000000002021100104                                                                               
020000063310100000000014170020211001                        51202110010724000072580007887182414GUTIERREZ GUERRA CARLOS JAVIER          31038ABC                                GUTIERREZ GUERRA CARLOS JAVIER          0000000000000002394725DOMICILIACIONGOCREDIT                   04                     004000000002021100104                                                                               
020000064310100000000006080020211001                        51202110010724000072580007887182414GUTIERREZ GUERRA CARLOS JAVIER          31038ABC                                GUTIERREZ GUERRA CARLOS JAVIER          0000000000000002395414DOMICILIACIONGOCREDIT                   04                     004000000002021100104                                                                               
020000065310100000000017783920211001                        51202110010124000012580015712767781GARCIA GUTIERREZ MA AMPARO              32936ABC                                GARCIA GUTIERREZ MA AMPARO              0000000000000002394072DOMICILIACIONGOCREDIT                   04                     004000000002021100104                                                                               
020000066310100000000013150020211001                        51202110010124000012580015712767781GARCIA GUTIERREZ MA AMPARO              32936ABC                                GARCIA GUTIERREZ MA AMPARO              0000000000000002394727DOMICILIACIONGOCREDIT                   04                     004000000002021100104                                                                               
020000067310100000000005640020211001                        51202110010124000012580015712767781GARCIA GUTIERREZ MA AMPARO              32936ABC                                GARCIA GUTIERREZ MA AMPARO              0000000000000002395416DOMICILIACIONGOCREDIT                   04                     004000000002021100104                                                                               
020000068310100000000017181320211001                        51202110010724000072580001048034116BRICEŃO CALZONCIT MA DE LA LUZ          29097ABC                                BRICEŃO CALZONCIT MA DE LA LUZ          0000000000000002394075DOMICILIACIONGOCREDIT                   04                     004000000002021100104                                                                               
020000069310100000000012720020211001                        51202110010724000072580001048034116BRICEŃO CALZONCIT MA DE LA LUZ          29097ABC                                BRICEŃO CALZONCIT MA DE LA LUZ          0000000000000002394729DOMICILIACIONGOCREDIT                   04                     004000000002021100104                                                                               
020000070310100000000005450020211001                        51202110010724000072580001048034116BRICEŃO CALZONCIT MA DE LA LUZ          29097ABC                                BRICEŃO CALZONCIT MA DE LA LUZ          0000000000000002395418DOMICILIACIONGOCREDIT                   04                     004000000002021100104                                                                               
020000071310100000000017137020211001                        51202110010724000072580010232573364SANDOVAL LOPEZ JULIO                    35848ABC                                SANDOVAL LOPEZ JULIO                    0000000000000002394078DOMICILIACIONGOCREDIT                   04                     004000000002021100104                                                                               
020000072310100000000012690020211001                        51202110010724000072580010232573364SANDOVAL LOPEZ JULIO                    35848ABC                                SANDOVAL LOPEZ JULIO                    0000000000000002394731DOMICILIACIONGOCREDIT                   04                     004000000002021100104                                                                               
020000073310100000000005440020211001                        51202110010724000072580010232573364SANDOVAL LOPEZ JULIO                    35848ABC                                SANDOVAL LOPEZ JULIO                    0000000000000002395420DOMICILIACIONGOCREDIT                   04                     004000000002021100104                                                                               
020000074310100000000007701820211001                        51202110010124000012022015680063428BALCAZAR ZAMORANO JESUS JUVENTINO       28606ABC                                BALCAZAR ZAMORANO JESUS JUVENTINO       0000000000000002394081DOMICILIACIONGOCREDIT                   04                     004000000002021100104                                                                               
020000075310100000000005790020211001                        51202110010124000012022015680063428BALCAZAR ZAMORANO JESUS JUVENTINO       28606ABC                                BALCAZAR ZAMORANO JESUS JUVENTINO       0000000000000002394733DOMICILIACIONGOCREDIT                   04                     004000000002021100104                                                                               
020000076310100000000002480020211001                        51202110010124000012022015680063428BALCAZAR ZAMORANO JESUS JUVENTINO       28606ABC                                BALCAZAR ZAMORANO JESUS JUVENTINO       0000000000000002395424DOMICILIACIONGOCREDIT                   04                     004000000002021100104                                                                               
020000077310100000000012479420211001                        51202110010144000014060606000148978REYES ANGUIANO JESUS                    36918ABC                                REYES ANGUIANO JESUS                    0000000000000002394084DOMICILIACIONGOCREDIT                   04                     004000000002021100104                                                                               
020000078310100000000009440020211001                        51202110010144000014060606000148978REYES ANGUIANO JESUS                    36918ABC                                REYES ANGUIANO JESUS                    0000000000000002394735DOMICILIACIONGOCREDIT                   04                     004000000002021100104                                                                               
020000079310100000000004050020211001                        51202110010144000014060606000148978REYES ANGUIANO JESUS                    36918ABC                                REYES ANGUIANO JESUS                    0000000000000002395426DOMICILIACIONGOCREDIT                   04                     004000000002021100104                                                                               
020000080310100000000017137020211001                        51202110010124000012934015080219135PUENTE ALFARO JUAN ANTONIO              34634ABC                                PUENTE ALFARO JUAN ANTONIO              0000000000000002394087DOMICILIACIONGOCREDIT                   04                     004000000002021100104                                                                               
020000081310100000000013270020211001                        51202110010124000012934015080219135PUENTE ALFARO JUAN ANTONIO              34634ABC                                PUENTE ALFARO JUAN ANTONIO              0000000000000002394737DOMICILIACIONGOCREDIT                   04                     004000000002021100104                                                                               
020000082310100000000005690020211001                        51202110010124000012934015080219135PUENTE ALFARO JUAN ANTONIO              34634ABC                                PUENTE ALFARO JUAN ANTONIO              0000000000000002395428DOMICILIACIONGOCREDIT                   04                     004000000002021100104                                                                               
020000083310100000000018869220211001                        51202110010124000012760015638251324ALATORRE MUŃOZ FELIPE                   19078ABC                                ALATORRE MUŃOZ FELIPE                   0000000000000002394090DOMICILIACIONGOCREDIT                   04                     004000000002021100104                                                                               
020000084310100000000015610020211001                        51202110010124000012760015638251324ALATORRE MUŃOZ FELIPE                   19078ABC                                ALATORRE MUŃOZ FELIPE                   0000000000000002394739DOMICILIACIONGOCREDIT                   04                     004000000002021100104                                                                               
020000085310100000000006690020211001                        51202110010124000012760015638251324ALATORRE MUŃOZ FELIPE                   19078ABC                                ALATORRE MUŃOZ FELIPE                   0000000000000002395430DOMICILIACIONGOCREDIT                   04                     004000000002021100104                                                                               
020000086310100000000016076520211001                        51202110010124000012180014963602546FIGUEROA RODRIGUEZ MARIO                36216ABC                                FIGUEROA RODRIGUEZ MARIO                0000000000000002394093DOMICILIACIONGOCREDIT                   04                     004000000002021100104                                                                               
020000087310100000000014090020211001                        51202110010124000012180014963602546FIGUEROA RODRIGUEZ MARIO                36216ABC                                FIGUEROA RODRIGUEZ MARIO                0000000000000002394741DOMICILIACIONGOCREDIT                   04                     004000000002021100104                                                                               
020000088310100000000006040020211001                        51202110010124000012180014963602546FIGUEROA RODRIGUEZ MARIO                36216ABC                                FIGUEROA RODRIGUEZ MARIO                0000000000000002395432DOMICILIACIONGOCREDIT                   04                     004000000002021100104                                                                               
020000089310100000000022005020211001                        51202110010724000072813004038258715CRUZ LUCAS FILIBERTO                    30499ABC                                CRUZ LUCAS FILIBERTO                    0000000000000002394096DOMICILIACIONGOCREDIT                   04                     004000000002021100104                                                                               
020000090310100000000019400020211001                        51202110010724000072813004038258715CRUZ LUCAS FILIBERTO                    30499ABC                                CRUZ LUCAS FILIBERTO                    0000000000000002394743DOMICILIACIONGOCREDIT                   04                     004000000002021100104                                                                               
020000091310100000000008320020211001                        51202110010724000072813004038258715CRUZ LUCAS FILIBERTO                    30499ABC                                CRUZ LUCAS FILIBERTO                    0000000000000002395434DOMICILIACIONGOCREDIT                   04                     004000000002021100104                                                                               
020000092310100000000003728720211001                        51202110010724000072934005367878951VELAZQUEZ DAVILA ROSA MA                34213ABC                                VELAZQUEZ DAVILA ROSA MA                0000000000000002394099DOMICILIACIONGOCREDIT                   04                     004000000002021100104                                                                               
020000093310100000000003310020211001                        51202110010724000072934005367878951VELAZQUEZ DAVILA ROSA MA                34213ABC                                VELAZQUEZ DAVILA ROSA MA                0000000000000002394745DOMICILIACIONGOCREDIT                   04                     004000000002021100104                                                                               
020000094310100000000001420020211001                        51202110010724000072934005367878951VELAZQUEZ DAVILA ROSA MA                34213ABC                                VELAZQUEZ DAVILA ROSA MA                0000000000000002395436DOMICILIACIONGOCREDIT                   04                     004000000002021100104                                                                               
020000095310100000000035215620211001                        51202110010144000014040606192122903AGUILAR ZAMORA ANGEL CESAR              34021ABC                                AGUILAR ZAMORA ANGEL CESAR              0000000000000002394102DOMICILIACIONGOCREDIT                   04                     004000000002021100104                                                                               
020000096310100000000031270020211001                        51202110010144000014040606192122903AGUILAR ZAMORA ANGEL CESAR              34021ABC                                AGUILAR ZAMORA ANGEL CESAR              0000000000000002394747DOMICILIACIONGOCREDIT                   04                     004000000002021100104                                                                               
020000097310100000000013400020211001                        51202110010144000014040606192122903AGUILAR ZAMORA ANGEL CESAR              34021ABC                                AGUILAR ZAMORA ANGEL CESAR              0000000000000002395438DOMICILIACIONGOCREDIT                   04                     004000000002021100104                                                                               
020000098310100000000014970420211001                        51202110010124000012040015014572334OLIVAS LEREE RAMON FILIBERTO            36335ABC                                OLIVAS LEREE RAMON FILIBERTO            0000000000000002394105DOMICILIACIONGOCREDIT                   04                     004000000002021100104                                                                               
020000099310100000000013330020211001                        51202110010124000012040015014572334OLIVAS LEREE RAMON FILIBERTO            36335ABC                                OLIVAS LEREE RAMON FILIBERTO            0000000000000002394749DOMICILIACIONGOCREDIT                   04                     004000000002021100104                                                                               
020000100310100000000005710020211001                        51202110010124000012040015014572334OLIVAS LEREE RAMON FILIBERTO            36335ABC                                OLIVAS LEREE RAMON FILIBERTO            0000000000000002395440DOMICILIACIONGOCREDIT                   04                     004000000002021100104                                                                               
020000101310100000000020958520211001                        51202110010124000012580015306638433LOPEZ ROBLES MAGDALENA                  30333ABC                                LOPEZ ROBLES MAGDALENA                  0000000000000002394108DOMICILIACIONGOCREDIT                   04                     004000000002021100104                                                                               
020000102310100000000018740020211001                        51202110010124000012580015306638433LOPEZ ROBLES MAGDALENA                  30333ABC                                LOPEZ ROBLES MAGDALENA                  0000000000000002394962DOMICILIACIONGOCREDIT                   04                     004000000002021100104                                                                               
020000103310100000000008040020211001                        51202110010124000012580015306638433LOPEZ ROBLES MAGDALENA                  30333ABC                                LOPEZ ROBLES MAGDALENA                  0000000000000002395442DOMICILIACIONGOCREDIT                   04                     004000000002021100104                                                                               
020000104310100000000006601520211001                        51202110010124000012060015710076619VAQUERA VILLASEŃOR MARTIN               29494ABC                                VAQUERA VILLASEŃOR MARTIN               0000000000000002394111DOMICILIACIONGOCREDIT                   04                     004000000002021100104                                                                               
020000105310100000000006060020211001                        51202110010124000012060015710076619VAQUERA VILLASEŃOR MARTIN               29494ABC                                VAQUERA VILLASEŃOR MARTIN               0000000000000002394964DOMICILIACIONGOCREDIT                   04                     004000000002021100104                                                                               
020000106310100000000002600020211001                        51202110010124000012060015710076619VAQUERA VILLASEŃOR MARTIN               29494ABC                                VAQUERA VILLASEŃOR MARTIN               0000000000000002395444DOMICILIACIONGOCREDIT                   04                     004000000002021100104                                                                               
020000107310100000000032217520211001                        51202110010124000012180015638820209HERNANDEZ AGUILAR NOEMI                 34358ABC                                HERNANDEZ AGUILAR NOEMI                 0000000000000002394114DOMICILIACIONGOCREDIT                   04                     004000000002021100104                                                                               
020000108310100000000032100020211001                        51202110010124000012180015638820209HERNANDEZ AGUILAR NOEMI                 34358ABC                                HERNANDEZ AGUILAR NOEMI                 0000000000000002394966DOMICILIACIONGOCREDIT                   04                     004000000002021100104                                                                               
020000109310100000000013760020211001                        51202110010124000012180015638820209HERNANDEZ AGUILAR NOEMI                 34358ABC                                HERNANDEZ AGUILAR NOEMI                 0000000000000002395446DOMICILIACIONGOCREDIT                   04                     004000000002021100104                                                                               
020000110310100000000031737920211001                        51202110010214000021580064695892993LEIJA AGUILAR JUAN                      24025ABC                                LEIJA AGUILAR JUAN                      0000000000000002394117DOMICILIACIONGOCREDIT                   04                     004000000002021100104                                                                               
020000111310100000000031840020211001                        51202110010214000021580064695892993LEIJA AGUILAR JUAN                      24025ABC                                LEIJA AGUILAR JUAN                      0000000000000002394968DOMICILIACIONGOCREDIT                   04                     004000000002021100104                                                                               
020000112310100000000013650020211001                        51202110010214000021580064695892993LEIJA AGUILAR JUAN                      24025ABC                                LEIJA AGUILAR JUAN                      0000000000000002395448DOMICILIACIONGOCREDIT                   04                     004000000002021100104                                                                               
020000113310100000000010093720211001                        51202110010124000012072029972722510CASTRO FRANCO MARCOS ROGELIO            30466ABC                                CASTRO FRANCO MARCOS ROGELIO            0000000000000002394120DOMICILIACIONGOCREDIT                   04                     004000000002021100104                                                                               
020000114310100000000010170020211001                        51202110010124000012072029972722510CASTRO FRANCO MARCOS ROGELIO            30466ABC                                CASTRO FRANCO MARCOS ROGELIO            0000000000000002394970DOMICILIACIONGOCREDIT                   04                     004000000002021100104                                                                               
020000115310100000000004360020211001                        51202110010124000012072029972722510CASTRO FRANCO MARCOS ROGELIO            30466ABC                                CASTRO FRANCO MARCOS ROGELIO            0000000000000002395450DOMICILIACIONGOCREDIT                   04                     004000000002021100104                                                                               
020000116310100000000006487120211001                        51202110010124000012060029019624347BERNAL GARCIA MARIA GUADALUPE           30310ABC                                BERNAL GARCIA MARIA GUADALUPE           0000000000000002394123DOMICILIACIONGOCREDIT                   04                     004000000002021100104                                                                               
020000117310100000000007350020211001                        51202110010124000012060029019624347BERNAL GARCIA MARIA GUADALUPE           30310ABC                                BERNAL GARCIA MARIA GUADALUPE           0000000000000002394972DOMICILIACIONGOCREDIT                   04                     004000000002021100104                                                                               
020000118310100000000003150020211001                        51202110010124000012060029019624347BERNAL GARCIA MARIA GUADALUPE           30310ABC                                BERNAL GARCIA MARIA GUADALUPE           0000000000000002395452DOMICILIACIONGOCREDIT                   04                     004000000002021100104                                                                               
020000119310100000000053068720211001                        51202110010124000012180004636553932ALVARADO CARDIEL DAVID                  34162ABC                                ALVARADO CARDIEL DAVID                  0000000000000002394340DOMICILIACIONGOCREDIT                   04                     004000000002021100104                                                                               
020000120310100000000060800020211001                        51202110010124000012180004636553932ALVARADO CARDIEL DAVID                  34162ABC                                ALVARADO CARDIEL DAVID                  0000000000000002394974DOMICILIACIONGOCREDIT                   04                     004000000002021100104                                                                               
020000121310100000000026060020211001                        51202110010124000012180004636553932ALVARADO CARDIEL DAVID                  34162ABC                                ALVARADO CARDIEL DAVID                  0000000000000002395454DOMICILIACIONGOCREDIT                   04                     004000000002021100104                                                                               
020000122310100000000020312320211001                        51202110010124000012028028795699367GUTIERREZ PALMA RAMON                   26826ABC                                GUTIERREZ PALMA RAMON                   0000000000000002394343DOMICILIACIONGOCREDIT                   04                     004000000002021100104                                                                               
020000123310100000000024810020211001                        51202110010124000012028028795699367GUTIERREZ PALMA RAMON                   26826ABC                                GUTIERREZ PALMA RAMON                   0000000000000002394976DOMICILIACIONGOCREDIT                   04                     004000000002021100104                                                                               
020000124310100000000010640020211001                        51202110010124000012028028795699367GUTIERREZ PALMA RAMON                   26826ABC                                GUTIERREZ PALMA RAMON                   0000000000000002395456DOMICILIACIONGOCREDIT                   04                     004000000002021100104                                                                               
020000125310100000000013982720211001                        51202110010124000012165015318333756QUINTANA SEGUEDA MIGUEL ANGEL           36447ABC                                QUINTANA SEGUEDA MIGUEL ANGEL           0000000000000002394346DOMICILIACIONGOCREDIT                   53                     004000000002021100104                                                                               
020000126310100000000017750020211001                        51202110010124000012165015318333756QUINTANA SEGUEDA MIGUEL ANGEL           36447ABC                                QUINTANA SEGUEDA MIGUEL ANGEL           0000000000000002394978DOMICILIACIONGOCREDIT                   53                     004000000002021100104                                                                               
020000127310100000000007610020211001                        51202110010124000012165015318333756QUINTANA SEGUEDA MIGUEL ANGEL           36447ABC                                QUINTANA SEGUEDA MIGUEL ANGEL           0000000000000002395460DOMICILIACIONGOCREDIT                   53                     004000000002021100104                                                                               
020000128310100000000019725520211001                        51202110010124000012065026886617828HERNANDEZ HERNANDEZ JOSE CARLOS         33299ABC                                HERNANDEZ HERNANDEZ JOSE CARLOS         0000000000000002394349DOMICILIACIONGOCREDIT                   04                     004000000002021100104                                                                               
020000129310100000000026150020211001                        51202110010124000012065026886617828HERNANDEZ HERNANDEZ JOSE CARLOS         33299ABC                                HERNANDEZ HERNANDEZ JOSE CARLOS         0000000000000002394980DOMICILIACIONGOCREDIT                   04                     004000000002021100104                                                                               
020000130310100000000011210020211001                        51202110010124000012065026886617828HERNANDEZ HERNANDEZ JOSE CARLOS         33299ABC                                HERNANDEZ HERNANDEZ JOSE CARLOS         0000000000000002395462DOMICILIACIONGOCREDIT                   04                     004000000002021100104                                                                               
020000131310100000000014877420211001                        51202110010124000012810015426458263PEREZ RODRIGUEZ JUANA                   35651ABC                                PEREZ RODRIGUEZ JUANA                   0000000000000002394352DOMICILIACIONGOCREDIT                   04                     004000000002021100104                                                                               
020000132310100000000010420020211001                        51202110010124000012810015426458263PEREZ RODRIGUEZ JUANA                   35651ABC                                PEREZ RODRIGUEZ JUANA                   0000000000000002394982DOMICILIACIONGOCREDIT                   04                     004000000002021100104                                                                               
020000133310100000000004470020211001                        51202110010124000012810015426458263PEREZ RODRIGUEZ JUANA                   35651ABC                                PEREZ RODRIGUEZ JUANA                   0000000000000002395464DOMICILIACIONGOCREDIT                   04                     004000000002021100104                                                                               
020000134310100000000128174620211001                        51202110010724000072180003151126746LAZCANO ESTRELLA SILVIA                 36174ABC                                LAZCANO ESTRELLA SILVIA                 0000000000000002394355DOMICILIACIONGOCREDIT                   04                     004000000002021100104                                                                               
020000135310100000000089730020211001                        51202110010724000072180003151126746LAZCANO ESTRELLA SILVIA                 36174ABC                                LAZCANO ESTRELLA SILVIA                 0000000000000002394984DOMICILIACIONGOCREDIT                   04                     004000000002021100104                                                                               
020000136310100000000038460020211001                        51202110010724000072180003151126746LAZCANO ESTRELLA SILVIA                 36174ABC                                LAZCANO ESTRELLA SILVIA                 0000000000000002395466DOMICILIACIONGOCREDIT                   04                     004000000002021100104                                                                               
020000137310100000000035327820211001                        51202110010124000012180015142638521PARRA SIMPSON ROSA                      30507ABC                                PARRA SIMPSON ROSA                      0000000000000002394358DOMICILIACIONGOCREDIT                   04                     004000000002021100104                                                                               
020000138310100000000024730020211001                        51202110010124000012180015142638521PARRA SIMPSON ROSA                      30507ABC                                PARRA SIMPSON ROSA                      0000000000000002394986DOMICILIACIONGOCREDIT                   04                     004000000002021100104                                                                               
020000139310100000000010600020211001                        51202110010124000012180015142638521PARRA SIMPSON ROSA                      30507ABC                                PARRA SIMPSON ROSA                      0000000000000002395468DOMICILIACIONGOCREDIT                   04                     004000000002021100104                                                                               
020000140310100000000041844420211001                        51202110010124000012180015053425658AGUIŃAGA GONZALEZ RODOLFO               33261ABC                                AGUIŃAGA GONZALEZ RODOLFO               0000000000000002394361DOMICILIACIONGOCREDIT                   04                     004000000002021100104                                                                               
020000141310100000000029300020211001                        51202110010124000012180015053425658AGUIŃAGA GONZALEZ RODOLFO               33261ABC                                AGUIŃAGA GONZALEZ RODOLFO               0000000000000002394988DOMICILIACIONGOCREDIT                   04                     004000000002021100104                                                                               
020000142310100000000012560020211001                        51202110010124000012180015053425658AGUIŃAGA GONZALEZ RODOLFO               33261ABC                                AGUIŃAGA GONZALEZ RODOLFO               0000000000000002395470DOMICILIACIONGOCREDIT                   04                     004000000002021100104                                                                               
020000143310100000000041948020211001                        51202110010724000072180011376352604DE LA TORRE SAENZ VIRGINIA              36195ABC                                DE LA TORRE SAENZ VIRGINIA              0000000000000002394364DOMICILIACIONGOCREDIT                   04                     004000000002021100104                                                                               
020000144310100000000029370020211001                        51202110010724000072180011376352604DE LA TORRE SAENZ VIRGINIA              36195ABC                                DE LA TORRE SAENZ VIRGINIA              0000000000000002394990DOMICILIACIONGOCREDIT                   04                     004000000002021100104                                                                               
020000145310100000000012590020211001                        51202110010724000072180011376352604DE LA TORRE SAENZ VIRGINIA              36195ABC                                DE LA TORRE SAENZ VIRGINIA              0000000000000002395472DOMICILIACIONGOCREDIT                   04                     004000000002021100104                                                                               
020000146310100000000040374720211001                        51202110010724000072580010390052390ENRIQUEZ MORALES MARCELA                30867ABC                                ENRIQUEZ MORALES MARCELA                0000000000000002394367DOMICILIACIONGOCREDIT                   04                     004000000002021100104                                                                               
020000147310100000000028270020211001                        51202110010724000072580010390052390ENRIQUEZ MORALES MARCELA                30867ABC                                ENRIQUEZ MORALES MARCELA                0000000000000002394992DOMICILIACIONGOCREDIT                   04                     004000000002021100104                                                                               
020000148310100000000012120020211001                        51202110010724000072580010390052390ENRIQUEZ MORALES MARCELA                30867ABC                                ENRIQUEZ MORALES MARCELA                0000000000000002395474DOMICILIACIONGOCREDIT                   04                     004000000002021100104                                                                               
020000149310100000000017682620211001                        51202110010124000012180028366409743MALDONADO CRISTERNA JAIME               26103ABC                                MALDONADO CRISTERNA JAIME               0000000000000002394370DOMICILIACIONGOCREDIT                   04                     004000000002021100104                                                                               
020000150310100000000012380020211001                        51202110010124000012180028366409743MALDONADO CRISTERNA JAIME               26103ABC                                MALDONADO CRISTERNA JAIME               0000000000000002394994DOMICILIACIONGOCREDIT                   04                     004000000002021100104                                                                               
020000151310100000000005310020211001                        51202110010124000012180028366409743MALDONADO CRISTERNA JAIME               26103ABC                                MALDONADO CRISTERNA JAIME               0000000000000002395476DOMICILIACIONGOCREDIT                   04                     004000000002021100104                                                                               
020000152310100000000034157120211001                        51202110010124000012180012192265248CARMONA SOLANO ISMAEL JESUS             32466ABC                                CARMONA SOLANO ISMAEL JESUS             0000000000000002394373DOMICILIACIONGOCREDIT                   04                     004000000002021100104                                                                               
020000153310100000000023910020211001                        51202110010124000012180012192265248CARMONA SOLANO ISMAEL JESUS             32466ABC                                CARMONA SOLANO ISMAEL JESUS             0000000000000002394996DOMICILIACIONGOCREDIT                   04                     004000000002021100104                                                                               
020000154310100000000010250020211001                        51202110010124000012180012192265248CARMONA SOLANO ISMAEL JESUS             32466ABC                                CARMONA SOLANO ISMAEL JESUS             0000000000000002395478DOMICILIACIONGOCREDIT                   04                     004000000002021100104                                                                               
020000155310100000000017465520211001                        51202110010124000012028029923688628SALAS ECHEVERRIA SARA                   23133ABC                                SALAS ECHEVERRIA SARA                   0000000000000002394384DOMICILIACIONGOCREDIT                   04                     004000000002021100104                                                                               
020000156310100000000012230020211001                        51202110010124000012028029923688628SALAS ECHEVERRIA SARA                   23133ABC                                SALAS ECHEVERRIA SARA                   0000000000000002395004DOMICILIACIONGOCREDIT                   04                     004000000002021100104                                                                               
020000157310100000000005240020211001                        51202110010124000012028029923688628SALAS ECHEVERRIA SARA                   23133ABC                                SALAS ECHEVERRIA SARA                   0000000000000002395486DOMICILIACIONGOCREDIT                   04                     004000000002021100104                                                                               
020000158310100000000014645520211001                        51202110010124000012180015999615535CORTES ORTEGA OFELIA                    32518ABC                                CORTES ORTEGA OFELIA                    0000000000000002394387DOMICILIACIONGOCREDIT                   04                     004000000002021100104                                                                               
020000159310100000000010260020211001                        51202110010124000012180015999615535CORTES ORTEGA OFELIA                    32518ABC                                CORTES ORTEGA OFELIA                    0000000000000002395006DOMICILIACIONGOCREDIT                   04                     004000000002021100104                                                                               
020000160310100000000004400020211001                        51202110010124000012180015999615535CORTES ORTEGA OFELIA                    32518ABC                                CORTES ORTEGA OFELIA                    0000000000000002395488DOMICILIACIONGOCREDIT                   04                     004000000002021100104                                                                               
020000161310100000000029754720211001                        51202110010124000012580004684579050ROSALES URIBE MARGARITA                 33527ABC                                ROSALES URIBE MARGARITA                 0000000000000002394390DOMICILIACIONGOCREDIT                   04                     004000000002021100104                                                                               
020000162310100000000020830020211001                        51202110010124000012580004684579050ROSALES URIBE MARGARITA                 33527ABC                                ROSALES URIBE MARGARITA                 0000000000000002395008DOMICILIACIONGOCREDIT                   04                     004000000002021100104                                                                               
020000163310100000000008930020211001                        51202110010124000012580004684579050ROSALES URIBE MARGARITA                 33527ABC                                ROSALES URIBE MARGARITA                 0000000000000002395490DOMICILIACIONGOCREDIT                   04                     004000000002021100104                                                                               
020000164310100000000004512920211001                        51202110010144000014065568036030300LAVADOR MEDINA MANUEL PILAR             35735ABC                                LAVADOR MEDINA MANUEL PILAR             0000000000000002394393DOMICILIACIONGOCREDIT                   04                     004000000002021100104                                                                               
020000165310100000000003160020211001                        51202110010144000014065568036030300LAVADOR MEDINA MANUEL PILAR             35735ABC                                LAVADOR MEDINA MANUEL PILAR             0000000000000002395010DOMICILIACIONGOCREDIT                   04                     004000000002021100104                                                                               
020000166310100000000001360020211001                        51202110010144000014065568036030300LAVADOR MEDINA MANUEL PILAR             35735ABC                                LAVADOR MEDINA MANUEL PILAR             0000000000000002395492DOMICILIACIONGOCREDIT                   04                     004000000002021100104                                                                               
020000167310100000000012102820211001                        51202110010124000012180028696342745RODRIGUEZ ESQUIVEL MARTHA ALEJANDRA     31977ABC                                RODRIGUEZ ESQUIVEL MARTHA ALEJANDRA     0000000000000002394396DOMICILIACIONGOCREDIT                   04                     004000000002021100104                                                                               
020000168310100000000008480020211001                        51202110010124000012180028696342745RODRIGUEZ ESQUIVEL MARTHA ALEJANDRA     31977ABC                                RODRIGUEZ ESQUIVEL MARTHA ALEJANDRA     0000000000000002395012DOMICILIACIONGOCREDIT                   04                     004000000002021100104                                                                               
020000169310100000000003640020211001                        51202110010124000012180028696342745RODRIGUEZ ESQUIVEL MARTHA ALEJANDRA     31977ABC                                RODRIGUEZ ESQUIVEL MARTHA ALEJANDRA     0000000000000002395494DOMICILIACIONGOCREDIT                   04                     004000000002021100104                                                                               
020000170310100000000017138820211001                        51202110010124000012060015156904329ESPINDOLA GAYTAN BEATRIZ                29402ABC                                ESPINDOLA GAYTAN BEATRIZ                0000000000000002394399DOMICILIACIONGOCREDIT                   04                     004000000002021100104                                                                               
020000171310100000000012000020211001                        51202110010124000012060015156904329ESPINDOLA GAYTAN BEATRIZ                29402ABC                                ESPINDOLA GAYTAN BEATRIZ                0000000000000002395014DOMICILIACIONGOCREDIT                   04                     004000000002021100104                                                                               
020000172310100000000005150020211001                        51202110010124000012060015156904329ESPINDOLA GAYTAN BEATRIZ                29402ABC                                ESPINDOLA GAYTAN BEATRIZ                0000000000000002395496DOMICILIACIONGOCREDIT                   04                     004000000002021100104                                                                               
020000173310100000000034523820211001                        51202110010124000012022029475618650HERRERA SOLORIO JOSE LUIS               34924ABC                                HERRERA SOLORIO JOSE LUIS               0000000000000002394402DOMICILIACIONGOCREDIT                   04                     004000000002021100104                                                                               
020000174310100000000024170020211001                        51202110010124000012022029475618650HERRERA SOLORIO JOSE LUIS               34924ABC                                HERRERA SOLORIO JOSE LUIS               0000000000000002395016DOMICILIACIONGOCREDIT                   04                     004000000002021100104                                                                               
020000175310100000000010360020211001                        51202110010124000012022029475618650HERRERA SOLORIO JOSE LUIS               34924ABC                                HERRERA SOLORIO JOSE LUIS               0000000000000002395498DOMICILIACIONGOCREDIT                   04                     004000000002021100104                                                                               
020000176310100000000038992420211001                        51202110010124000012077026919102133UŃATE MARTINEZ ALMA DELIA               24418ABC                                UŃATE MARTINEZ ALMA DELIA               0000000000000002394405DOMICILIACIONGOCREDIT                   04                     004000000002021100104                                                                               
020000177310100000000027300020211001                        51202110010124000012077026919102133UŃATE MARTINEZ ALMA DELIA               24418ABC                                UŃATE MARTINEZ ALMA DELIA               0000000000000002395018DOMICILIACIONGOCREDIT                   04                     004000000002021100104                                                                               
020000178310100000000011700020211001                        51202110010124000012077026919102133UŃATE MARTINEZ ALMA DELIA               24418ABC                                UŃATE MARTINEZ ALMA DELIA               0000000000000002395500DOMICILIACIONGOCREDIT                   04                     004000000002021100104                                                                               
020000179310100000000007289020211001                        51202110010724000072580006632073562RODRIGUEZ MONTALVO MARIA CRISTINA       27646ABC                                RODRIGUEZ MONTALVO MARIA CRISTINA       0000000000000002394408DOMICILIACIONGOCREDIT                   04                     004000000002021100104                                                                               
020000180310100000000005110020211001                        51202110010724000072580006632073562RODRIGUEZ MONTALVO MARIA CRISTINA       27646ABC                                RODRIGUEZ MONTALVO MARIA CRISTINA       0000000000000002395020DOMICILIACIONGOCREDIT                   04                     004000000002021100104                                                                               
020000181300100000000002190020211001                        51202110010724000072580006632073562RODRIGUEZ MONTALVO MARIA CRISTINA       27646ABC                                RODRIGUEZ MONTALVO MARIA CRISTINA       0000000000000002395502DOMICILIACIONGOCREDIT                   00                     004003955022021100104                                                                               
020000182310100000000005123620211001                        51202110010124000012060029221179402ALBINO ABASTA KARLA                     33168ABC                                ALBINO ABASTA KARLA                     0000000000000002394411DOMICILIACIONGOCREDIT                   04                     004000000002021100104                                                                               
020000183310100000000003590020211001                        51202110010124000012060029221179402ALBINO ABASTA KARLA                     33168ABC                                ALBINO ABASTA KARLA                     0000000000000002395022DOMICILIACIONGOCREDIT                   04                     004000000002021100104                                                                               
020000184310100000000001540020211001                        51202110010124000012060029221179402ALBINO ABASTA KARLA                     33168ABC                                ALBINO ABASTA KARLA                     0000000000000002395504DOMICILIACIONGOCREDIT                   04                     004000000002021100104                                                                               
020000185310100000000027203920211001                        51202110010124000012040015464305313GONZALEZ ESCOPINICHI ADRIANA YOLANDA    23135ABC                                GONZALEZ ESCOPINICHI ADRIANA YOLANDA    0000000000000002394416DOMICILIACIONGOCREDIT                   04                     004000000002021100104                                                                               
020000186310100000000019050020211001                        51202110010124000012040015464305313GONZALEZ ESCOPINICHI ADRIANA YOLANDA    23135ABC                                GONZALEZ ESCOPINICHI ADRIANA YOLANDA    0000000000000002395026DOMICILIACIONGOCREDIT                   04                     004000000002021100104                                                                               
020000187310100000000008170020211001                        51202110010124000012040015464305313GONZALEZ ESCOPINICHI ADRIANA YOLANDA    23135ABC                                GONZALEZ ESCOPINICHI ADRIANA YOLANDA    0000000000000002395508DOMICILIACIONGOCREDIT                   04                     004000000002021100104                                                                               
020000188310100000000024030220211001                        51202110010124000012065015090120280VERDUZCO SALAZAR ARGELIA MARIVEL        26370ABC                                VERDUZCO SALAZAR ARGELIA MARIVEL        0000000000000002394419DOMICILIACIONGOCREDIT                   04                     004000000002021100104                                                                               
020000189310100000000016830020211001                        51202110010124000012065015090120280VERDUZCO SALAZAR ARGELIA MARIVEL        26370ABC                                VERDUZCO SALAZAR ARGELIA MARIVEL        0000000000000002395028DOMICILIACIONGOCREDIT                   04                     004000000002021100104                                                                               
020000190310100000000007210020211001                        51202110010124000012065015090120280VERDUZCO SALAZAR ARGELIA MARIVEL        26370ABC                                VERDUZCO SALAZAR ARGELIA MARIVEL        0000000000000002395510DOMICILIACIONGOCREDIT                   04                     004000000002021100104                                                                               
020000191310100000000020494320211001                        51202110010124000012811015539573173REYES VICENCIO MARCELINO                33273ABC                                REYES VICENCIO MARCELINO                0000000000000002394422DOMICILIACIONGOCREDIT                   04                     004000000002021100104                                                                               
020000192310100000000014350020211001                        51202110010124000012811015539573173REYES VICENCIO MARCELINO                33273ABC                                REYES VICENCIO MARCELINO                0000000000000002395030DOMICILIACIONGOCREDIT                   04                     004000000002021100104                                                                               
020000193310100000000006150020211001                        51202110010124000012811015539573173REYES VICENCIO MARCELINO                33273ABC                                REYES VICENCIO MARCELINO                0000000000000002395716DOMICILIACIONGOCREDIT                   04                     004000000002021100104                                                                               
020000194310100000000011246220211001                        51202110010124000012022012085201192TORRES PEŃA MARIA DEL ROSARIO           33964ABC                                TORRES PEŃA MARIA DEL ROSARIO           0000000000000002394425DOMICILIACIONGOCREDIT                   04                     004000000002021100104                                                                               
020000195310100000000007880020211001                        51202110010124000012022012085201192TORRES PEŃA MARIA DEL ROSARIO           33964ABC                                TORRES PEŃA MARIA DEL ROSARIO           0000000000000002395032DOMICILIACIONGOCREDIT                   04                     004000000002021100104                                                                               
020000196310100000000003380020211001                        51202110010124000012022012085201192TORRES PEŃA MARIA DEL ROSARIO           33964ABC                                TORRES PEŃA MARIA DEL ROSARIO           0000000000000002395718DOMICILIACIONGOCREDIT                   04                     004000000002021100104                                                                               
020000197310100000000011002520211001                        51202110010124000012810015253389246CASTILLO VAZQUEZ RIGOBERTO              35598ABC                                CASTILLO VAZQUEZ RIGOBERTO              0000000000000002394428DOMICILIACIONGOCREDIT                   04                     004000000002021100104                                                                               
020000198310100000000007710020211001                        51202110010124000012810015253389246CASTILLO VAZQUEZ RIGOBERTO              35598ABC                                CASTILLO VAZQUEZ RIGOBERTO              0000000000000002395034DOMICILIACIONGOCREDIT                   04                     004000000002021100104                                                                               
020000199310100000000003310020211001                        51202110010124000012810015253389246CASTILLO VAZQUEZ RIGOBERTO              35598ABC                                CASTILLO VAZQUEZ RIGOBERTO              0000000000000002395720DOMICILIACIONGOCREDIT                   04                     004000000002021100104                                                                               
020000200310100000000005988220211001                        51202110010124000012078015284757171GUERRERO ESPINOSA RICARDO               27169ABC                                GUERRERO ESPINOSA RICARDO               0000000000000002394431DOMICILIACIONGOCREDIT                   04                     004000000002021100104                                                                               
020000201310100000000004200020211001                        51202110010124000012078015284757171GUERRERO ESPINOSA RICARDO               27169ABC                                GUERRERO ESPINOSA RICARDO               0000000000000002395036DOMICILIACIONGOCREDIT                   04                     004000000002021100104                                                                               
020000202310100000000001800020211001                        51202110010124000012078015284757171GUERRERO ESPINOSA RICARDO               27169ABC                                GUERRERO ESPINOSA RICARDO               0000000000000002395722DOMICILIACIONGOCREDIT                   04                     004000000002021100104                                                                               
020000203310100000000018136020211001                        51202110010124000012827011718962616RAMOS SIFUENTES MATILDE                 30657ABC                                RAMOS SIFUENTES MATILDE                 0000000000000002394434DOMICILIACIONGOCREDIT                   04                     004000000002021100104                                                                               
020000204310100000000012700020211001                        51202110010124000012827011718962616RAMOS SIFUENTES MATILDE                 30657ABC                                RAMOS SIFUENTES MATILDE                 0000000000000002395038DOMICILIACIONGOCREDIT                   04                     004000000002021100104                                                                               
020000205310100000000005450020211001                        51202110010124000012827011718962616RAMOS SIFUENTES MATILDE                 30657ABC                                RAMOS SIFUENTES MATILDE                 0000000000000002395724DOMICILIACIONGOCREDIT                   04                     004000000002021100104                                                                               
020000206310100000000037487220211001                        51202110010124000012022029475618650HERRERA SOLORIO JOSE LUIS               33889ABC                                HERRERA SOLORIO JOSE LUIS               0000000000000002394651DOMICILIACIONGOCREDIT                   04                     004000000002021100104                                                                               
020000207310100000000026250020211001                        51202110010124000012022029475618650HERRERA SOLORIO JOSE LUIS               33889ABC                                HERRERA SOLORIO JOSE LUIS               0000000000000002395042DOMICILIACIONGOCREDIT                   04                     004000000002021100104                                                                               
020000208310100000000011250020211001                        51202110010124000012022029475618650HERRERA SOLORIO JOSE LUIS               33889ABC                                HERRERA SOLORIO JOSE LUIS               0000000000000002395728DOMICILIACIONGOCREDIT                   04                     004000000002021100104                                                                               
020000209310100000000012695220211001                        51202110010124000012068029981701264TORRES GONZALEZ JOSE GUADALUPE          33576ABC                                TORRES GONZALEZ JOSE GUADALUPE          0000000000000002394654DOMICILIACIONGOCREDIT                   04                     004000000002021100104                                                                               
020000210310100000000008890020211001                        51202110010124000012068029981701264TORRES GONZALEZ JOSE GUADALUPE          33576ABC                                TORRES GONZALEZ JOSE GUADALUPE          0000000000000002395044DOMICILIACIONGOCREDIT                   04                     004000000002021100104                                                                               
020000211310100000000003810020211001                        51202110010124000012068029981701264TORRES GONZALEZ JOSE GUADALUPE          33576ABC                                TORRES GONZALEZ JOSE GUADALUPE          0000000000000002395730DOMICILIACIONGOCREDIT                   04                     004000000002021100104                                                                               
020000212310100000000005711420211001                        51202110010214000021064063537502538MARTINEZ GUERRERO JESUS                 29982ABC                                MARTINEZ GUERRERO JESUS                 0000000000000002394657DOMICILIACIONGOCREDIT                   04                     004000000002021100104                                                                               
020000213310100000000004000020211001                        51202110010214000021064063537502538MARTINEZ GUERRERO JESUS                 29982ABC                                MARTINEZ GUERRERO JESUS                 0000000000000002395046DOMICILIACIONGOCREDIT                   04                     004000000002021100104                                                                               
020000214310100000000001720020211001                        51202110010214000021064063537502538MARTINEZ GUERRERO JESUS                 29982ABC                                MARTINEZ GUERRERO JESUS                 0000000000000002395732DOMICILIACIONGOCREDIT                   04                     004000000002021100104                                                                               
020000215310100000000021063520211001                        51202110010124000012580027578817384PECINA GONZALEZ JUAN                    32657ABC                                PECINA GONZALEZ JUAN                    0000000000000002394660DOMICILIACIONGOCREDIT                   04                     004000000002021100104                                                                               
020000216310100000000014750020211001                        51202110010124000012580027578817384PECINA GONZALEZ JUAN                    32657ABC                                PECINA GONZALEZ JUAN                    0000000000000002395048DOMICILIACIONGOCREDIT                   04                     004000000002021100104                                                                               
020000217310100000000006320020211001                        51202110010124000012580027578817384PECINA GONZALEZ JUAN                    32657ABC                                PECINA GONZALEZ JUAN                    0000000000000002395734DOMICILIACIONGOCREDIT                   04                     004000000002021100104                                                                               
020000218310100000000016601520211001                        51202110010124000012060015213876112TRUJILLO ROMERO ERIKA MARICELA          35465ABC                                TRUJILLO ROMERO ERIKA MARICELA          0000000000000002394663DOMICILIACIONGOCREDIT                   04                     004000000002021100104                                                                               
020000219310100000000011630020211001                        51202110010124000012060015213876112TRUJILLO ROMERO ERIKA MARICELA          35465ABC                                TRUJILLO ROMERO ERIKA MARICELA          0000000000000002395050DOMICILIACIONGOCREDIT                   04                     004000000002021100104                                                                               
020000220310100000000004990020211001                        51202110010124000012060015213876112TRUJILLO ROMERO ERIKA MARICELA          35465ABC                                TRUJILLO ROMERO ERIKA MARICELA          0000000000000002395736DOMICILIACIONGOCREDIT                   04                     004000000002021100104                                                                               
020000221310100000000003985020211001                        51202110010124000012060028736467778CALDERA SALAS JUANA RITA                32925ABC                                CALDERA SALAS JUANA RITA                0000000000000002394666DOMICILIACIONGOCREDIT                   04                     004000000002021100104                                                                               
020000222310100000000002790020211001                        51202110010124000012060028736467778CALDERA SALAS JUANA RITA                32925ABC                                CALDERA SALAS JUANA RITA                0000000000000002395052DOMICILIACIONGOCREDIT                   04                     004000000002021100104                                                                               
020000223310100000000001200020211001                        51202110010124000012060028736467778CALDERA SALAS JUANA RITA                32925ABC                                CALDERA SALAS JUANA RITA                0000000000000002395738DOMICILIACIONGOCREDIT                   04                     004000000002021100104                                                                               
020000224310100000000014508820211001                        51202110010124000012060026256948847GUTIERREZ GALLEGOS MARIA TOMASA         25084ABC                                GUTIERREZ GALLEGOS MARIA TOMASA         0000000000000002394669DOMICILIACIONGOCREDIT                   04                     004000000002021100104                                                                               
020000225310100000000010160020211001                        51202110010124000012060026256948847GUTIERREZ GALLEGOS MARIA TOMASA         25084ABC                                GUTIERREZ GALLEGOS MARIA TOMASA         0000000000000002395054DOMICILIACIONGOCREDIT                   04                     004000000002021100104                                                                               
020000226310100000000004360020211001                        51202110010124000012060026256948847GUTIERREZ GALLEGOS MARIA TOMASA         25084ABC                                GUTIERREZ GALLEGOS MARIA TOMASA         0000000000000002395740DOMICILIACIONGOCREDIT                   04                     004000000002021100104                                                                               
020000227310100000000015140520211001                        51202110010724000072813004958370113AGUILAR RAMIREZ JOSE LUIS               30467ABC                                AGUILAR RAMIREZ JOSE LUIS               0000000000000002394674DOMICILIACIONGOCREDIT                   04                     004000000002021100104                                                                               
020000228310100000000010600020211001                        51202110010724000072813004958370113AGUILAR RAMIREZ JOSE LUIS               30467ABC                                AGUILAR RAMIREZ JOSE LUIS               0000000000000002395058DOMICILIACIONGOCREDIT                   04                     004000000002021100104                                                                               
020000229310100000000004550020211001                        51202110010724000072813004958370113AGUILAR RAMIREZ JOSE LUIS               30467ABC                                AGUILAR RAMIREZ JOSE LUIS               0000000000000002395744DOMICILIACIONGOCREDIT                   04                     004000000002021100104                                                                               
020000230310100000000007254420211001                        51202110010124000012068015160081861MENA MENA GILBERTO                      28293ABC                                MENA MENA GILBERTO                      0000000000000002394677DOMICILIACIONGOCREDIT                   04                     004000000002021100104                                                                               
020000231310100000000005080020211001                        51202110010124000012068015160081861MENA MENA GILBERTO                      28293ABC                                MENA MENA GILBERTO                      0000000000000002395060DOMICILIACIONGOCREDIT                   04                     004000000002021100104                                                                               
020000232310100000000002180020211001                        51202110010124000012068015160081861MENA MENA GILBERTO                      28293ABC                                MENA MENA GILBERTO                      0000000000000002395746DOMICILIACIONGOCREDIT                   04                     004000000002021100104                                                                               
020000233310100000000006525720211001                        51202110010124000012705026046841684ROBLEDO ROCHA RAFAEL                    28032ABC                                ROBLEDO ROCHA RAFAEL                    0000000000000002394680DOMICILIACIONGOCREDIT                   04                     004000000002021100104                                                                               
020000234310100000000004570020211001                        51202110010124000012705026046841684ROBLEDO ROCHA RAFAEL                    28032ABC                                ROBLEDO ROCHA RAFAEL                    0000000000000002395271DOMICILIACIONGOCREDIT                   04                     004000000002021100104                                                                               
020000235310100000000001960020211001                        51202110010124000012705026046841684ROBLEDO ROCHA RAFAEL                    28032ABC                                ROBLEDO ROCHA RAFAEL                    0000000000000002395748DOMICILIACIONGOCREDIT                   04                     004000000002021100104                                                                               
020000236310100000000013972320211001                        51202110010124000012700014700605694MATA QUIROZ JUANA FRANCISCA             31173ABC                                MATA QUIROZ JUANA FRANCISCA             0000000000000002394683DOMICILIACIONGOCREDIT                   04                     004000000002021100104                                                                               
020000237310100000000009790020211001                        51202110010124000012700014700605694MATA QUIROZ JUANA FRANCISCA             31173ABC                                MATA QUIROZ JUANA FRANCISCA             0000000000000002395273DOMICILIACIONGOCREDIT                   04                     004000000002021100104                                                                               
020000238310100000000004200020211001                        51202110010124000012700014700605694MATA QUIROZ JUANA FRANCISCA             31173ABC                                MATA QUIROZ JUANA FRANCISCA             0000000000000002395750DOMICILIACIONGOCREDIT                   04                     004000000002021100104                                                                               
020000239310100000000036272020211001                        51202110010724000072813011325095629GARCIA SANCHEZ AURORA                   30288ABC                                GARCIA SANCHEZ AURORA                   0000000000000002394686DOMICILIACIONGOCREDIT                   04                     004000000002021100104                                                                               
020000240310100000000025400020211001                        51202110010724000072813011325095629GARCIA SANCHEZ AURORA                   30288ABC                                GARCIA SANCHEZ AURORA                   0000000000000002395275DOMICILIACIONGOCREDIT                   04                     004000000002021100104                                                                               
020000241310100000000010890020211001                        51202110010724000072813011325095629GARCIA SANCHEZ AURORA                   30288ABC                                GARCIA SANCHEZ AURORA                   0000000000000002395752DOMICILIACIONGOCREDIT                   04                     004000000002021100104                                                                               
020000242310100000000009980220211001                        51202110010724000072580010230549918GONZALEZ SANCHEZ EMILIA                 32547ABC                                GONZALEZ SANCHEZ EMILIA                 0000000000000002394689DOMICILIACIONGOCREDIT                   04                     004000000002021100104                                                                               
020000243310100000000006990020211001                        51202110010724000072580010230549918GONZALEZ SANCHEZ EMILIA                 32547ABC                                GONZALEZ SANCHEZ EMILIA                 0000000000000002395277DOMICILIACIONGOCREDIT                   04                     004000000002021100104                                                                               
020000244310100000000003000020211001                        51202110010724000072580010230549918GONZALEZ SANCHEZ EMILIA                 32547ABC                                GONZALEZ SANCHEZ EMILIA                 0000000000000002395754DOMICILIACIONGOCREDIT                   04                     004000000002021100104                                                                               
020000245310100000000018154120211001                        51202110010124000012040015770772575GONZALEZ CASTRO JESUS SALVADOR          32639ABC                                GONZALEZ CASTRO JESUS SALVADOR          0000000000000002394692DOMICILIACIONGOCREDIT                   04                     004000000002021100104                                                                               
020000246310100000000012710020211001                        51202110010124000012040015770772575GONZALEZ CASTRO JESUS SALVADOR          32639ABC                                GONZALEZ CASTRO JESUS SALVADOR          0000000000000002395279DOMICILIACIONGOCREDIT                   04                     004000000002021100104                                                                               
020000247310100000000005450020211001                        51202110010124000012040015770772575GONZALEZ CASTRO JESUS SALVADOR          32639ABC                                GONZALEZ CASTRO JESUS SALVADOR          0000000000000002395756DOMICILIACIONGOCREDIT                   04                     004000000002021100104                                                                               
020000248310100000000072090420211001                        51202110010124000012075011609881030VILLANUEVA HERNANDEZ JOSE ALFREDO       25812ABC                                VILLANUEVA HERNANDEZ JOSE ALFREDO       0000000000000002394695DOMICILIACIONGOCREDIT                   04                     004000000002021100104                                                                               
020000249310100000000050470020211001                        51202110010124000012075011609881030VILLANUEVA HERNANDEZ JOSE ALFREDO       25812ABC                                VILLANUEVA HERNANDEZ JOSE ALFREDO       0000000000000002395382DOMICILIACIONGOCREDIT                   04                     004000000002021100104                                                                               
