01000000130014S20000001202107290100                         MONTO FACIL SAPI DE CV SOFOM ENR        MFA110429MT9                                                                                                                                                                                            
020000002300100000000004515320210729                        51202107290140100000000023000547355ALVAREZ TRASVINA JUAN LUIS              26428                                   ALVAREZ TRASVINA JUAN LUIS              0000000000000000026428DOMICILIACION GOCREDIT                  04000000000000000000000
020000003300100000000006020420210729                        51202107290140100000000023000547355ALVAREZ TRASVINA JUAN LUIS              26428                                   ALVAREZ TRASVINA JUAN LUIS              0000000000000000026428DOMICILIACION GOCREDIT                  04000000000000000000000
020000004300100000000009030520210729                        51202107290140100000000023000547355ALVAREZ TRASVINA JUAN LUIS              26428                                   ALVAREZ TRASVINA JUAN LUIS              0000000000000000026428DOMICILIACION GOCREDIT                  04000000000000000000000
020000005300100000000010535620210729                        51202107290140100000000023000547355ALVAREZ TRASVINA JUAN LUIS              26428                                   ALVAREZ TRASVINA JUAN LUIS              0000000000000000026428DOMICILIACION GOCREDIT                  04000000000000000000000
020000006300100000000005714520210729                        51202107290140100000000060614021004GUERRERO ALVAREZ RITA                   26932                                   GUERRERO ALVAREZ RITA                   0000000000000000026932DOMICILIACION GOCREDIT                  04000000000000000000000
020000007300100000000013333820210729                        51202107290140100000000060614021004GUERRERO ALVAREZ RITA                   26932                                   GUERRERO ALVAREZ RITA                   0000000000000000026932DOMICILIACION GOCREDIT                  04000000000000000000000
020000008300100000000002112320210729                        51202107290140100000000056797467708ENRIQUEZ RINCON CARLOS MIGUEL           29312                                   ENRIQUEZ RINCON CARLOS MIGUEL           0000000000000000029312DOMICILIACION GOCREDIT                  04000000000000000000000
020000009300100000000004928720210729                        51202107290140100000000056797467708ENRIQUEZ RINCON CARLOS MIGUEL           29312                                   ENRIQUEZ RINCON CARLOS MIGUEL           0000000000000000029312DOMICILIACION GOCREDIT                  04000000000000000000000
020000010300100000000003135820210729                        51202107290140100000000056726511678NAVA RUIZ JOSE LUIS                     31088                                   NAVA RUIZ JOSE LUIS                     0000000000000000031088DOMICILIACION GOCREDIT                  04000000000000000000000
020000011300100000000004181020210729                        51202107290140100000000056726511678NAVA RUIZ JOSE LUIS                     31088                                   NAVA RUIZ JOSE LUIS                     0000000000000000031088DOMICILIACION GOCREDIT                  04000000000000000000000
020000012300100000000006271520210729                        51202107290140100000000056726511678NAVA RUIZ JOSE LUIS                     31088                                   NAVA RUIZ JOSE LUIS                     0000000000000000031088DOMICILIACION GOCREDIT                  04000000000000000000000
020000013300100000000007316720210729                        51202107290140100000000056726511678NAVA RUIZ JOSE LUIS                     31088                                   NAVA RUIZ JOSE LUIS                     0000000000000000031088DOMICILIACION GOCREDIT                  04000000000000000000000
020000014300100000000003191520210729                        51202107290140100000000060608247065PENALOZA ROLDAN FELIX ALEJANDRO         31229                                   PENALOZA ROLDAN FELIX ALEJANDRO         0000000000000000031229DOMICILIACION GOCREDIT                  04000000000000000000000
020000015300100000000003491520210729                        51202107290140100000000060608247065PENALOZA ROLDAN FELIX ALEJANDRO         31229                                   PENALOZA ROLDAN FELIX ALEJANDRO         0000000000000000031229DOMICILIACION GOCREDIT                  04000000000000000000000
020000016300100000000007446820210729                        51202107290140100000000060608247065PENALOZA ROLDAN FELIX ALEJANDRO         31229                                   PENALOZA ROLDAN FELIX ALEJANDRO         0000000000000000031229DOMICILIACION GOCREDIT                  04000000000000000000000
020000017300100000000008146720210729                        51202107290140100000000060608247065PENALOZA ROLDAN FELIX ALEJANDRO         31229                                   PENALOZA ROLDAN FELIX ALEJANDRO         0000000000000000031229DOMICILIACION GOCREDIT                  04000000000000000000000
020000018300100000000010440520210729                        51202107290140100000000056811394835ROBLES ALVARADO ROBERTO                 33848                                   ROBLES ALVARADO ROBERTO                 0000000000000000033848DOMICILIACION GOCREDIT                  04000000000000000000000
020000019300100000000026683920210729                        51202107290140100000000056811394835ROBLES ALVARADO ROBERTO                 34672                                   ROBLES ALVARADO ROBERTO                 0000000000000000034672DOMICILIACION GOCREDIT                  04000000000000000000000
020000020300100000000035578520210729                        51202107290140100000000056811394835ROBLES ALVARADO ROBERTO                 34672                                   ROBLES ALVARADO ROBERTO                 0000000000000000034672DOMICILIACION GOCREDIT                  04000000000000000000000
020000021300100000000053367820210729                        51202107290140100000000056811394835ROBLES ALVARADO ROBERTO                 34672                                   ROBLES ALVARADO ROBERTO                 0000000000000000034672DOMICILIACION GOCREDIT                  04000000000000000000000
020000022300100000000062262420210729                        51202107290140100000000056811394835ROBLES ALVARADO ROBERTO                 34672                                   ROBLES ALVARADO ROBERTO                 0000000000000000034672DOMICILIACION GOCREDIT                  04000000000000000000000
020000023300100000000007822320210729                        51202107290140100000000056553337446CASTRO QUINTANA MAURO                   36093                                   CASTRO QUINTANA MAURO                   0000000000000000036093DOMICILIACION GOCREDIT                  04000000000000000000000
020000024300100000000008122320210729                        51202107290140100000000056553337446CASTRO QUINTANA MAURO                   36093                                   CASTRO QUINTANA MAURO                   0000000000000000036093DOMICILIACION GOCREDIT                  04000000000000000000000
020000025300100000000018252120210729                        51202107290140100000000056553337446CASTRO QUINTANA MAURO                   36093                                   CASTRO QUINTANA MAURO                   0000000000000000036093DOMICILIACION GOCREDIT                  04000000000000000000000
020000026300100000000018952120210729                        51202107290140100000000056553337446CASTRO QUINTANA MAURO                   36093                                   CASTRO QUINTANA MAURO                   0000000000000000036093DOMICILIACION GOCREDIT                  04000000000000000000000
020000027300100000000004474520210729                        51202107290140100000000056811394835ROBLES ALVARADO ROBERTO                 33848                                   ROBLES ALVARADO ROBERTO                 0000000000000000033848DOMICILIACION GOCREDIT                  04000000000000000000000
0900000283000000010000026000000000003453290                                                                                                                                                                                                                                                                 
