01000000131012S20522031202109100100                         FINPAIS SA DE CV                        FCO/130429629                                                                                                                                                                                           
020000762310100000000000027420210914                        51202109100120100000000002628582025MARTINEZ GONZALEZ TALINA                628F10092021                            TALINA MARTINEZ GONZALEZ                0000000000000000500774domiciliacionfinpais                    00                     
020000749310100000000000301420210914                        51202109100120100000000002861295764DOMINGUEZ GARCIA IGNACIO                970F10092021                            IGNACIO DOMINGUEZ GARCIA                0000000000000000500761domiciliacionfinpais                    00                     
020000742310100000000003000020210914                        51202109100120100000000001579938641CORDOVA CASTELLANOS JESUS               929F10092021                            JESUS CORDOVA CASTELLANOS               0000000000000000500754domiciliacionfinpais                    00                     
020000645310100000000000152220210914                        51202109100120100000000001438663017GONZALEZ JIMENEZ PEDRO                  934F10092021                            PEDRO GONZALEZ JIMENEZ                  0000000000000000500657domiciliacionfinpais                    00                     
020000586310100000000000005620210914                        51202109100120100000000001416416888RAMOS PEREZ MARIA DEL ROSARIO           873F10092021                            MARIA DEL ROSARIO RAMOS PEREZ           0000000000000000500598domiciliacionfinpais                    00                     
020000557310100000000001023620210914                        51202109100120100000000001513323749MUŃOZ TORRES VIOLETA                    1026F10092021                           VIOLETA MUQOZ TORRES                    0000000000000000500569domiciliacionfinpais                    00                     
020000520310100000000008150020210914                        51202109100120100000000001529916448FAJARDO ZAMORA REBECA                   817F10092021                            REBECA FAJARDO ZAMORA                   0000000000000000500532domiciliacionfinpais                    00                     
020000472310100000000000000120210914                        51202109100120100000000002773940934ARIAS BALLESTER JOSE RODRIGO            1244F10092021                           JOSE RODRIGO ARIAS BALLESTER            0000000000000000500484domiciliacionfinpais                    00                     
020000317310100000000004130020210914                        51202109100120100000000001529916448FAJARDO ZAMORA REBECA                   817F10092021                            REBECA FAJARDO ZAMORA                   0000000000000000500329domiciliacionfinpais                    00                     
020000303310100000000000023220210914                        51202109100120100000000001511428586GARCIA ALEJANDRO RUBEN DARIO            1246F10092021                           RUBEN DARIO ALEJANDRO GARCIA            0000000000000000500315domiciliacionfinpais                    00                     
020000139310100000000000000120210914                        51202109100120100000000001561793414ANGULO IBARRA GRISELL                   792F10092021                            GRISEL ANGULO IBARRA                    0000000000000000500151domiciliacionfinpais                    00                     
020000070310100000000000010020210914                        51202109100120100000000002967161972AMADOR HERNANDEZ EDUARDO ALEJANDRO      1084F10092021                           EDUARDO ALEJANDRO AMADOR HERNANDEZ      0000000000000000500082domiciliacionfinpais                    00                     
0900000140005220310000012000000000000168236                                                                                                                                                                                                                                                                 
